:020000040800F2
:1000000000500020792D0008893F00088B3F000830
:100010008D3F00088F3F0008913F0008000000005E
:10002000000000000000000000000000A1420008E5
:10003000933F00080000000041430008953F00087E
:10004000BD2D0008BD2D0008BD2D0008BD2D0008E8
:10005000BD2D0008BD2D0008BD2D0008BD2D0008D8
:10006000BD2D0008BD2D0008BD2D0008BD2D0008C8
:10007000BD2D0008BD2D0008BD2D0008BD2D0008B8
:10008000BD2D0008BD2D0008BD2D0008BD2D0008A8
:10009000BD2D0008BD2D0008BD2D0008BD2D000898
:1000A000BD2D00089D3F0008BD2D0008BD2D000896
:1000B000BD2D0008BD2D0008BD2D0008BD2D000878
:1000C000BD2D0008BD2D0008BD2D0008BD2D000868
:1000D000BD2D0008BD2D0008BD2D0008BD2D000858
:1000E000BD2D0008BD2D0008BD2D0008000000003A
:1000F0000000000000000000000000000000000000
:0C01000000000000000000005FF808F1A3
:10010C00FB00003E000B0036000100020003000063
:10011C0000650054FFEF0000FA80000B1282000112
:10012C0000020000000000000000000000000000C1
:10013C0000280000FFFF4581FFFFFA72000000005D
:10014C00000003E80000000100017FFFFFFE8001BA
:10015C00001B000000000000000000000000000078
:10016C00003E03304000000002CAE3093E8000005C
:10017C0020000000000000004000000060000000B3
:10018C0041FF000000000B2A0000165500002182E0
:10019C00FD872650FD800000001F00000005800038
:1001AC00000000000001000000020000000300003D
:1001BC00400000000000046F0002653200005EC0C9
:1001CC0040000000000000000000000000000000E3
:1001DC00FB8C6F5DFD5D08D9007C733B006C12CC11
:1001EC003200139D3200D0D632000800400001F4DA
:1001FC00FFE68079020000000000D0D60000271036
:10020C00FB000000400000000000000000000000A7
:10021C0000000001000000000000010001000000CF
:10022C000000FA36FFBC308E0005FBF0FFD95BC82E
:10023C00FFD09ABE000010A9FFF41EB200CEBBF78F
:10024C000000000100000004000200020200000C8B
:10025C00FFC280000001800000CF80004000000041
:10026C000000000100000000000006000000001467
:10027C000000000000000000000000000000000072
:10028C000000000000000000000000000000000062
:10029C000000000000000000000000000000000052
:1002AC0000000000033F68B6793528BCC67ED16CCF
:1002BC0080000000400000000000B26A0000000056
:1002CC00000000000000000000003FF000000030C3
:1002DC000000000000000000000000000000000012
:1002EC000000000000000000000000000000000002
:1002FC000000254D002F706D000005AE000C02D0E3
:10030C000000000000650054FFEF0000000000003A
:10031C00000001000044000000000C00000001007F
:10032C00000000000065000000540000FFEF00001A
:10033C0000000000000000000000000000000000B1
:10034C004000000000000000000000000000000061
:10035C004000000000000000000000000000000051
:10036C00000000010000000200000000000000007E
:10037C000000000000000000000000000000000071
:10038C000000000000000000000000000000000061
:10039C00001B000000000000000000000000000036
:1003AC000000000000000000000000000000000041
:1003BC0000000000000000000000000040000000F1
:1003CC00001B000000000000000000000000000006
:1003DC000000000000000000000000000000000011
:1003EC000000000000000000000000000000000001
:1003FC0000000000000000000000000000000000F1
:10040C00D8DCBAA2F1DEB2B8B4A88191F74A907FD9
:10041C00916AF3F9DBA8F9B0BAA080F2CE81F3C2ED
:10042C00F1C1F2C3F3CCA2B280F1C6D880BAA7DF77
:10043C00DFDFF2A7C3CBC5B6F087A2942448703C8B
:10044C0095406834589B78A2F183922D557DD8B194
:10045C00B4B8A1D09180F270F370F27C80A8F10155
:10046C00B09887D943D886C988BAA1F20EB89780BC
:10047C00F1A9DFDFDFAADFDFDFF2AAC5CDC7A90C48
:10048C00C92C97979797F1A989264666B0B4BA807C
:10049C00ACDEF2CAF1B28C02A9B69800890E161E17
:1004AC00B8A9B4992C547CB08AA896365676F1B972
:1004BC00AFB4B083C0B8A89711B18F98B9AFF0247E
:1004CC000844106418F1A329557DAF83B593AFF0A0
:1004DC00002850F1A3869F61A6DADEDFD9FAA38645
:1004EC0096DB31A6D9F8DFBAA68FC2C5C7B28CC1CC
:1004FC00B8A2DFDFDFA3DFDFDFD8D8F1B8A8B28680
:10050C00B4980D355DB8AA98B0872D353DB2B6BA02
:10051C00AF8C96198F9FA70E161EB49AB8AA872C6B
:10052C00547CB9A3DEDFDFA3B180F2C4CDC9F1B82E
:10053C00A9B499830D355D89B9A32D557DB593A3C8
:10054C000E161EA92C547CB8B4B0F19783A8118454
:10055C00A50998A383F0DA240844106418D8F1A5EF
:10056C0029557DA58595021A2E3A565A4048F9F31D
:10057C00A3D9F8F098832408441064189782A8F142
:10058C0011F098A2240844106418DAF3DED883A57D
:10059C009401D9A302F1A2C3C5C7D8F18492A24D8C
:1005AC00DA2AD84869D92AD86855DA32D85071D99C
:1005BC0032D8705DDA3AD85879D93AD87893A34DB5
:1005CC00DA2AD84869D92AD86855DA32D85071D97C
:1005DC0032D8705DDA3AD85879D93AD878A88A9A4C
:1005EC00F02850789EF38818F19F1D98A8D908D848
:1005FC00C89F129EF315A8DA1210D8F1AFC89787CE
:10060C0034B5B994A421F3D922D8F22DF3D92AD830
:10061C00F235F3D932D881A4606061D961D86C68A5
:10062C0069D969D8747071D971D8B1A384193D5D39
:10063C00A3831A3E5E931030811011B8B0AF8F9423
:10064C00F2DA3ED8B49AA88729DAF8D8879A35DA3C
:10065C00F8D8879A3DDAF8D8B1B9A49885022E5605
:10066C00A581000C14A397B08AF12DD928D84DD9A7
:10067C0048D86DD968D8B1840DDA0ED8A32983DA9D
:10068C002C0ED8A3844983DA2C4C0ED8B8B0A88A87
:10069C009AF520AADADFD8A840AAD0DADED8A8606A
:1006AC00AADAD0DFD8F19786A8319B069907AB97C9
:1006BC0028889BF00C201440B8B0B4A88C9CF00493
:1006CC002851791D301438B282ABD0982C50507808
:1006DC00789BF11AB0F08A9CA82951798B29517911
:1006EC008A2470598B2058718A4469388B39406838
:1006FC008A6448318B304960A58820097158446858
:10070C00113964493019F1AC002C547CF08CA804DC
:10071C00285078F1889726A85998AC8C0226466602
:10072C00F0899CA82951792470594469386448315E
:10073C00A98809205970AB11384069A81931486053
:10074C008CA83C415C207C00F187981986A86E76B9
:10075C007EA999882D557D9EB9A38A228A6E8A56C8
:10076C008A5E9FB183062646660E2E4E6E9DB8ADF0
:10077C00002C547CF2B18CB499B9A32D557D819188
:10078C00AC38AD3AB58391AC2DD928D84DD948D8D1
:10079C006DD968D88C9DAE29D904AED851D904AE88
:1007AC00D879D904D881F39DAD008DAE1981ADD91E
:1007BC0001D8F2AEDA26D88E912983A7D9ADADAD8A
:1007CC00ADF32AD8D8F1B0AC89913E5E76F3AC2E5D
:1007DC002EF1B18C5A9CAC2C2828289CAC3018A833
:1007EC00988128343C9724A728343C9C24F2B08967
:1007FC00AC912C4C6C8A9B2DD9D8D851D9D8D8799E
:10080C00D9D8D8F19E88A331DAD8D8912DD928D847
:10081C004DD948D86DD968D8B18393353D8025DA48
:10082C00D8D88569DAD8D8B49381A328343CF3ABF3
:10083C008BF8A391B609B4D9ABDEFAB0879CB9A3F7
:10084C00DDF1A3A3A3A395F1A3A3A39DF1A3A3A35C
:10085C00A3F2A3B49080F2A3A3A3A3A3A3A3A3A3E3
:10086C00A3B2A3A3A3A3A3A3B087B599F1A3A3A3F6
:10087C0098F1A3A3A3A397A3A3A3A3F39BA3A3DC84
:10088C00B9A7F1262626D8D8FF000000037B034C1D
:10089C00CD6C03AB0336567600680402CB47A2023C
:1008AC00180400058BC1010C0400000000037F0636
:1008BC000CC92C979797038903264666006C022077
:1008CC00000240040000000002440400000000028A
:1008DC00480400000000024C040000000002500418
:1008EC000000000002540400000000025804000044
:1008FC000000025C040000000002BC0400000000C8
:10090C0001EC0400004000037F060CC92C9797975C
:10091C000402030D355D040904872D353D00A30148
:10092C000000000001078601FE074105F120283078
:10093C0038077E01300746019A074704F128303802
:10094C00076C04F1283038021602000901B202FFCC
:10095C00FF0190040923A135016A02060001600819
:10096C0000000000000000000060044000000001D6
:0B097C00620200000060040040000068
:10098800F46C00080000002070000020F46C0008DF
:10099800000000000000000070000020340F00205C
:0809A800000000000000000047
:1009B00008B5074A136843F010031360032000F0E2
:1009C000FDF9002003F0A4FA03F0E4F9002008BDCB
:1009D00000200240024A136801331360704700BFD1
:1009E000CC0D0020014B1868704700BFCC0D0020D3
:1009F00030B583B005460C460023019303685C4A7A
:100A0000934208D002F58062934204D040F2AC6178
:100A1000584803F0BDF92368112B3AD86368013BAD
:100A20000F2B3CD8A368072B3FD895F82430012B17
:100A300000F09B80012385F824306368062B3AD8A8
:100A40002868426B03EB8303053B1F21994022EA90
:100A50000102216801FA03F3134343632368092B5E
:100A600049D92868C26803EB43031E3B072199401C
:100A700022EA0102A16801FA03F31343C360236869
:100A8000103B012B45D90020002385F8243003B00A
:100A900030BD40F2AD61374803F07AF9BEE740F26D
:100AA000AE61344803F074F9BCE740F2AF613148FD
:100AB00003F06EF9B9E70C2B0ED82868026B03EB34
:100AC0008303233B1F21994022EA0102216801FA96
:100AD00003F313430363C1E72868C26A03EB83038C
:100AE000413B1F21994022EA0102216801FA03F3E8
:100AF0001343C362B2E72868026903EB430307218B
:100B0000994022EA0102A16801FA03F31343036149
:100B1000B5E72B68164A934205D0AB6A43F0200331
:100B2000AB620120B0E79A6812F4000F1BD19A68FB
:100B300042F400029A602368102B01D00020A3E742
:100B40000D4B1B680D4AA2FB03239B0C03EB830395
:100B50005A00019202E0019B013B0193019B002B93
:100B6000F9D1002090E700208EE702208FE700BF38
:100B700000240140946900080000002083DE1B432C
:100B800038B503689A6812F0010F01D1002038BD12
:100B900004469A6822F001029A60FFF723FF054697
:100BA00023689B6813F0010F0ED0FFF71BFF401B5B
:100BB0000228F5D9A36A43F01003A362E36A43F065
:100BC0000103E3620120E2E70020E0E7002800F0F3
:100BD000EA8038B504460368744A934208D002F5A7
:100BE0008062934204D04FF4C271714803F0D0F890
:100BF000636813B1B3F5006F63D1A36813B1B3F5A4
:100C0000807F64D1E368012B67D8E3698BB1B3F5CA
:100C1000003F0ED0B3F5C02F0BD0B3F5002F08D096
:100C2000B3F5202F05D0B3F5402F02D0B3F5602FD8
:100C300059D1A36863B12369013B0F2B59D863696C
:100C4000012B5CD863691BB1A369013B072B5CD8FE
:100C5000A36A002B5FD02046FFF792FFA36A13F030
:100C6000100340F09A80002840F09780A26A22F496
:100C7000885222F0020242F00202A2626268E16936
:100C80000A43E56842EA4502A168B1F5807F4CD08D
:100C9000012947D0616901294AD02568696821F492
:100CA00069410B436B6021688D68424B2B401343B5
:100CB0008B60A368B3F5807F4BD0012B49D0002116
:100CC0004AE040F285113A4803F062F895E74FF4A4
:100CD000C371374803F05CF894E740F28711344859
:100CE00003F056F891E74FF4C471314803F050F81F
:100CF0009FE74FF4C6712E4803F04AF89FE740F291
:100D00008D112B4803F044F89CE74FF4C871284834
:100D100003F03EF89CE7E36284F82430204603F0B9
:100D200083F898E74FF48073B4E74FF48073B1E72A
:100D300035B9A169013943EA413343F40063ACE7B3
:100D4000A16A41F02001A162E16A41F00101E16282
:100D5000A3E72369013B19052568EB6A23F47003B7
:100D60000B43EB6223689968134B0B409A420BD0FC
:100D7000A36A23F0120343F01003A362E36A43F073
:100D80000103E36201200DE00023E362A36A23F084
:100D9000030343F00103A36204E0A36A43F01003DA
:100DA000A362012038BD0120704700BF002401402C
:100DB00094690008FDF7E1FFFE0E1FFF10B5044621
:100DC000C31E042B0FD80A4AD36823F4E0631B0424
:100DD0001B0C240204F4E064234343F0BF6343F498
:100DE0000033D36010BDA421024802F0D1FFEAE72E
:100DF00000ED00E0CC69000870B505460C461646CB
:100E00000F2A25D80F2C28D81B4BDB68C3F30223ED
:100E1000C3F10702042A28BF0422191D062921D97B
:100E2000033B4FF0FF3101FA02F224EA02049C4036
:100E300001FA03F326EA03063443002D14DB2401F0
:100E4000E4B205F1604505F5614585F8004370BDE4
:100E5000BC210A4802F09CFFD4E7BD21074802F0FC
:100E600097FFD1E70023DCE705F00F052401E4B28A
:100E7000034B5C55EBE700BF00ED00E0CC690008D8
:100E800014ED00E010B5041E08DB04F01F02640935
:100E900001239340044A42F8243010BDD021034876
:100EA00002F076FFF1E700BF00E100E0CC69000846
:100EB0000138B0F1807F0AD2064B5860064AF02113
:100EC00082F823100020986007221A6070470120E2
:100ED000704700BF10E000E000ED00E010B50446F0
:100EE000042800D038B9042C0BD0094A136823F029
:100EF0000403136010BD40F2DB11064802F048FF06
:100F0000F1E7034A136843F004031360F2E700BFFC
:100F100010E000E0CC6900082DE9F04383B0804682
:100F20000F46B64B984213D003F5806398420FD01A
:100F300003F5806398420BD003F58063984207D095
:100F400003F58063984203D0CF21AD4802F020FF23
:100F50003B689AB212B11B0C1B041BB1D021A848EC
:100F600002F016FF7B68012B1ED9112B1CD0022B1F
:100F70001AD0122B18D0A34A934215D002F5801232
:100F8000934211D002F5801293420DD0A2F5F812CF
:100F9000934209D002F58012934205D002F58012E7
:100FA000934201D0032B03D14FF000094E46D8E005
:100FB000D121934802F0ECFEF6E7002B5ED0012B26
:100FC00005D1FB68013B022B65D8D7F80C90FF2CAC
:100FD00000F296804046FF2C00F29580B200036834
:100FE0000F21914023EA010309FA02F2134303603F
:100FF0007B6813F0805F00F0B380834B9A6942F006
:1010000001029A619B6903F001030193019BB208FD
:10101000911C7E4B53F8210006F0030399000F2327
:101020008B4020EA0300754B984572D003F580632E
:10103000984500F0CD8003F58063984500F0CA80A4
:1010400003F58063984562D0042363E0704A9342BD
:1010500014D00BD96F4A934210D002F580329342DC
:101060000CD0A2F580129342B1D107E0A2F5801214
:10107000934203D002F580329342A8D1BB68022B81
:101080002DD8BB68002B38D0012B2ED0C8F81450B7
:101090004FF008099BE7E721594802F079FE94E7F1
:1010A000EE21574802F074FE8EE0FB68013B022BF4
:1010B00003D8FB6803F1080989E7F521504802F0DD
:1010C00067FEF6E7FB68013B022B03D8FB6803F1E0
:1010D0000C097CE7FC214A4802F05AFEF6E740F290
:1010E0000911474802F054FECBE7C8F810504FF002
:1010F00008096CE74FF0000969E74FF0040966E75B
:1011000008F1040067E7A6F10802920067E70323ED
:1011100000E000238B40034302323C4941F8223077
:101120007B6813F4803F57D03B4A13682343136016
:101130007B6813F4003F55D0374A5368234353600C
:101140007B6813F4801F53D0334A93682343936022
:101150007B6813F4001F61D02F4AD3681C43D4600E
:1011600001360F2E60D80125B5403C682C40A542C1
:10117000F6D1224B984513D003F5806398450FD0E4
:1011800003F5806398450BD003F58063984507D03D
:1011900003F58063984503D0DF21194802F0F8FD7C
:1011A0007B68122B8ED03FF651AF022B3FF47DAF00
:1011B0007FF603AF032B9DD0112B7FF408AFFB68A4
:1011C000013B022B3FF66CAFFB6803F10409FEE61E
:1011D00001239FE702239DE70F4A136823EA0403D4
:1011E0001360A5E70C4A536823EA04035360A7E79A
:1011F000094A936823EA04039360A9E700080140C1
:10120000086A0008000011100010024000000140B0
:10121000000021100000311000040140044AD3688E
:1012200023EA0404D4609BE703B0BDE8F08300BF69
:101230000004014070B5064615460C4629B1012D43
:1012400009D875B92404346170BD40F2E51106482F
:1012500002F09EFDF3E74FF4F371034802F098FDAE
:10126000EFE73461F0E700BF086A000803685A69D5
:1012700012F4806F0DD06FF480625A61042303640E
:1012800000230363202280F83D2080F83C300120B9
:10129000704700207047F8B506460C4617461D46B5
:1012A0001EE02DB1FFF79EFB069BC01AA84217D97E
:1012B00000233363202286F83D2086F83E3086F8EE
:1012C0003C3003201AE033685B6924EA03039BB2D5
:1012D000B3FA83F35B099F420FD1B5F1FF3FE0D131
:1012E000C4F30743012BEED033689B6924EA030360
:1012F0009BB2B3FA83F35B09EDE70020F8BDF8B5C4
:1013000004460D4616461F4632E01A6842F4007243
:101310001A6023686FF480625A61042323640023F7
:101320002363202284F83D2084F83C3001202DE006
:1013300026B1FFF757FBC01BB04219D90023236326
:10134000202284F83D2084F83C3003201EE02368EE
:101350005B6925EA03039BB2003318BF0123A3B1E5
:1013600023685A6912F4806FCFD1B6F1FF3FDFD105
:10137000C5F30743012BEAD023689B6925EA0303E1
:101380009BB2003318BF0123E9E70020F8BD70B518
:1013900004460D46164623685B6913F0800F19D189
:1013A0002046FFF763FFB8B9B5F1FF3FF3D025B191
:1013B000FFF718FB801BA842EDD9236C43F02003F4
:1013C000236400232363202284F83D2084F83C30EA
:1013D000032000E0002070BD0120FCE72DE9F04172
:1013E00084B004460E46174698460B9D0268136863
:1013F00043F48073136000950A9B00224FF00111A3
:10140000FFF749FF002847D1236806F0FE061E615A
:101410002B460A9A26492046FFF771FF20B1236C1C
:10142000042B3ED1012338E00023039323685A693B
:1014300003929B690393039B2A460A992046FFF770
:10144000A6FF034648B1236C042B2CD122681368F5
:1014500043F40073136001231FE0B8F1010F13D0B0
:1014600023683A0A1A612A460A992046FFF78FFF35
:10147000034668B1236C042B17D12268136843F428
:1014800000731360012308E02268FFB2176104E0D3
:101490002268FFB2176100E00323184604B0BDE8DC
:1014A000F0810323F9E70323F7E70323F5E700BF00
:1014B000020001002DE9F04184B004460E461746B3
:1014C00098460B9D0268136843F4806313600268BA
:1014D000136843F48073136000950A9B00224FF059
:1014E0000111FFF7D8FE002874D1F6B2236806F088
:1014F000FE021A612B460A9A3F492046FFF7FFFE7B
:1015000020B1236C042B6AD1012364E000230393F0
:1015100023685A6903929B690393039B2A460A999D
:101520002046FFF734FF48B1236C042B59D12268C1
:10153000136843F40073136001234CE0B8F1010F0A
:1015400012D12368FFB21F612A460A992046FFF78D
:101550001EFF00B3236C042B47D12268136843F4A9
:1015600000731360012336E023683A0A1A612A46A1
:101570000A992046FFF70BFF48B1236C042B32D1A8
:101580002268136843F400731360012323E0236887
:10159000FFB21F61D8E72268136843F480731360B9
:1015A00000950A9B00224FF001112046FFF773FEC1
:1015B000E8B9236846F001061E612B460A9A0E49D7
:1015C0002046FFF79CFE034628B1236C042B10D164
:1015D000012300E00323184604B0BDE8F081032393
:1015E000F9E70323F7E70323F5E70323F3E70323EF
:1015F000F1E70323EFE700BF0200010070B50446E6
:101600000D46164623685B6913F0040F19D1204676
:10161000FFF72CFEB8B9B5F1FF3FF3D025B1FFF7C6
:10162000E1F9801BA842EDD9236C43F02003236429
:1016300000232363202284F83D2084F83C300320DB
:1016400000E0002070BD0120FCE770B505460C46A7
:1016500016462B685A6912F0400F22D15A6912F0CF
:10166000100F11D124B1FFF7BDF9801BA042F0D9B2
:101670002B6C43F020032B64202385F83D3000239E
:1016800085F83C30032070BD6FF010025A610023D2
:101690002B642B63202285F83D2085F83C30012007
:1016A000F1E70020EFE70000002800F0E78010B528
:1016B00004460368724A934208D002F5806293425E
:1016C00004D040F27F116F4802F062FB6368013B77
:1016D0006D4A934267D8A36813B1B3F5804F68D1C0
:1016E000E36823F47F7323F00303002B67D123699E
:1016F000B3F5804F02D0B3F5404F66D16369012B3B
:1017000069D8A36933F0FE036BD1E3690BB1402BB9
:101710006DD1236A0BB1802B6FD194F83D30002B33
:1017200071D0242384F83D302268136823F001032C
:10173000136000F011FF554BA3FB00239B0C2268A4
:1017400053606168524A914263D801332268136240
:1017500063684F4A934266D85B00B0FBF3F0C0F376
:101760000B03032B00D804202368D861E369216AA6
:1017700022680B4313602369E16822680B4393607E
:101780006369A16922680B43D3602268136843F040
:101790000103136000202064202384F83D3020637F
:1017A00084F83E0010BD4FF4C071364802F0F0FAE4
:1017B00091E740F28111334802F0EAFA90E74FF4E2
:1017C000C171304802F0E4FA91E740F283112D48EC
:1017D00002F0DEFA92E74FF4C2712A4802F0D8FA1A
:1017E0008FE740F28511274802F0D2FA8DE74FF4D7
:1017F000C371244802F0CCFA8BE740F287112148EC
:1018000002F0C6FA89E784F83C30204602F02EFB4D
:1018100087E74FF4967202FB03F31E4AA2FB0323F1
:101820009B09013392E7A16889B903EB4302B0FB3E
:10183000F2F2C2F30B02B2FA82F25209E2B991B9A2
:1018400003EB4303B0FBF3F040F400408CE703EB01
:10185000830202EB8202B0FBF2F2C2F30B02B2FA95
:1018600082F25209EAE703EB830303EB8303B0FB45
:10187000F3F040F4404077E7012075E7012070471E
:1018800000540040406A00087F1A060083DE1B43B4
:10189000A0860100D34D62102DE9F04182B00446CC
:1018A0000F4690461E46FFF79DF80546012E01D0D3
:1018B000102E09D194F83D30DBB2202B0AD0022340
:1018C000184602B0BDE8F0814FF41961544802F0A7
:1018D0005FFAEFE700951923012252492046FFF7EE
:1018E000DAFC002840F0938094F83C30012B00F0A3
:1018F0009080012384F83C3023681A6812F0010FAD
:1019000003D11A6842F001021A602268136823F4B6
:1019100000631360212384F83D30402384F83E3077
:1019200000232364089B6362BDF8243063853E4B2B
:10193000E362638D238501950A9B009333464246FB
:1019400039462046FFF74AFDB0B1236C042B04D181
:10195000002384F83C300123B2E7002384F83C30B4
:101960000323ADE7236C042B55D12268136843F49D
:10197000007313600123A3E7238D002B28D02A4690
:101980000A992046FFF703FD0028EBD1636A5A1C31
:10199000626222681B781361238D013B9BB2238511
:1019A000628D013A92B262852268516911F0040F8A
:1019B000E2D0002BE0D0636A591C61621B7813618E
:1019C000238D013B2385638D013B9BB26385D3E768
:1019D0002A460A992046FFF711FE034648B1236CB8
:1019E000042B1AD12268136843F400731360012397
:1019F00066E721680A6842F400720A60202284F8CF
:101A00003D20002284F83E2084F83C2058E7022341
:101A100056E7022354E7032352E7032350E700BFAE
:101A2000406A0008020010000000FFFF2DE9F041AD
:101A300086B004460F4690461E46FEF7D3FF054685
:101A4000012E01D0102E09D194F83D30DBB2202BAD
:101A50000AD00226304606B0BDE8F08140F61521D6
:101A6000944802F095F9EFE7009519230122924975
:101A70002046FFF710FC002840F0598194F83C30D4
:101A8000012B00F05681012384F83C3023681A684A
:101A900012F0010F03D11A6842F001021A602268A5
:101AA000136823F400631360222384F83D3040233D
:101AB00084F83E30002323640C9B6362BDF834300D
:101AC00063857E4BE362638D238501950E9B0093B6
:101AD0003346424639462046FFF7ECFC064660B1E5
:101AE000236C042B04D1002384F83C300126B1E799
:101AF000002384F83C300326ACE7238D5BB90293C6
:101B000023685A6902929A690292029A1A6842F408
:101B100000721A607FE0012B0FD0022B21D02268C7
:101B2000136843F4806313600023059323685A69A4
:101B300005929B690593059B6DE02268136823F469
:101B40008063136072B60023039323685A6903927B
:101B50009A690392039A1A6842F400721A6062B694
:101B600059E02268136843F40063136072B60023DF
:101B7000049323685A6904929A690492049A1A6831
:101B800022F480621A6062B645E02A460E99204629
:101B9000FFF75BFD68B923681A69636A591C6162C3
:101BA0001A70238D013B2385638D013B9BB26385B6
:101BB00031E0236C202B01D001264BE7032649E7B7
:101BC00000950E9B00223E492046FFF764FB00284B
:101BD00040F0B18072B62268136843F4007313605A
:101BE00023681A69636A591C61621A70238D013B6C
:101BF0002385638D013B9BB2638562B623681A69B6
:101C0000636A591C61621A70238D013B2385638DC1
:101C1000013B9BB26385238D002B7FD0032B51D8D2
:101C2000012BB2D0022BCBD000950E9B0022244971
:101C30002046FFF730FB00287FD12268136823F489
:101C40008063136072B623681A69636A591C616203
:101C50001A70238D013B2385638D013B9BB2638505
:101C600000950E9B002216492046FFF714FB002822
:101C700065D12268136843F40073136023681A69FE
:101C8000636A591C61621A70238D013B2385638D41
:101C9000013B9BB2638562B623681A69636A591C6B
:101CA00061621A70238D013B2385638D013B9BB2DA
:101CB0006385B0E7406A0008020010000000FFFFE3
:101CC000040001002A460E992046FFF7BEFCF0B939
:101CD00023681A69636A591C61621A70238D013B7B
:101CE0002385638D013B9BB2638523685A6912F09B
:101CF000040F90D01A69636A591C61621A70238DAF
:101D0000013B2385638D013B9BB2638583E7236C95
:101D1000202B01D001269DE603269BE6202384F894
:101D20003D30002384F83E3084F83C3092E60226B1
:101D300090E602268EE603268CE603268AE6032634
:101D400088E600BF82B0084B1B68084AA2FB032349
:101D50005B0A00FB03F0019000BF019B5A1E019239
:101D6000002BF9D102B0704700000020D34D621063
:101D700070B582B0044678B3236813B113F00F0F27
:101D800030D0236813F0010F46D063682BB1B3F550
:101D9000803F02D0B3F5A02F2AD1AC4B5B6803F093
:101DA0000C03042B2FD0A94B5B6803F00C03082B0A
:101DB00024D06368B3F5803F5BD0002B6FD103F173
:101DC000804303F504331A6822F480321A601A68DB
:101DD00022F480221A6051E04FF486719C4801F091
:101DE000D7FFC9E740F20D11994801F0D1FFC8E7CC
:101DF00040F21311964801F0CBFFCEE7934B5B689E
:101E000013F4803FD5D0914B1B6813F4003F03D0EF
:101E10006368002B00F02D82236813F0020F00F09E
:101E20008A802369012B63D863691F2B66D8874B8F
:101E30005B6813F00C0F6CD0844B5B6803F00C03F1
:101E4000082B61D02369002B00F09A80814B01227E
:101E50001A60FEF7C7FD05467C4B1B6813F0020FA6
:101E600040F08580FEF7BEFD401B0228F4D9032018
:101E700002E2764A136843F480331360636843B325
:101E8000FEF7B0FD0546714B1B6813F4003FC3D14C
:101E9000FEF7A8FD401B6428F5D90320ECE1B3F55B
:101EA000A02F09D0694B1A6822F480321A601A6890
:101EB00022F480221A60E1E703F18043A3F53C336A
:101EC0001A6842F480221A601A6842F480321A605A
:101ED000D4E7FEF787FD05465C4B1B6813F4003F13
:101EE0009AD0FEF77FFD401B6428F5D90320C3E19B
:101EF00040F24711564801F04BFF95E74FF4A471AB
:101F0000534801F045FF92E7504B5B6813F4803F64
:101F100098D14E4B1B6813F0020F04D02369012B9C
:101F200001D00120A8E1494A136823F0F803616950
:101F300043EAC1031360236813F0080F3BD0A36981
:101F4000012B2FD8A369002B66D0434B01221A60C6
:101F5000FEF748FD05463D4B5B6A13F0020F27D1A3
:101F6000FEF740FD401B0228F5D9032084E1374AE3
:101F7000136823F0F803616943EAC1031360DAE7E9
:101F8000344B00221A60FEF72DFD05462F4B1B68CF
:101F900013F0020FCFD0FEF725FD401B0228F5D924
:101FA000032069E14FF4C471294801F0F1FEC9E74B
:101FB0000120FFF7C7FE236813F0040F00F0A5808F
:101FC000E368012B01D9052B38D1204BDB6913F0D5
:101FD000805F39D11D4BDA6942F08052DA61DB69EA
:101FE00003F080530193019B01251C4B1B6813F4E4
:101FF000807F35D0E368012B46D0002B5CD103F104
:10200000804303F504331A6A22F001021A621A6A45
:1020100022F004021A623CE00F4B00221A60FEF725
:10202000E1FC0546094B5B6A13F0020FC3D0FEF7D3
:10203000D9FC401B0228F5D903201DE140F2B7115D
:10204000034801F0A5FEC0E70025CEE700100240DE
:102050008C6A000800004242800442420070004046
:10206000874A136843F480731360FEF7BBFC06468F
:10207000834B1B6813F4807FBCD1FEF7B3FC801B3D
:102080006428F5D90320F7E07E4A136A43F0010380
:102090001362E36833B3FEF7A5FC0646794B1B6A6F
:1020A00013F0020F2FD1FEF79DFC801B41F2883305
:1020B0009842F3D90320DFE0052B09D0714B1A6A4F
:1020C00022F001021A621A6A22F004021A62E0E7A0
:1020D0006C4B1A6A42F004021A621A6A42F0010258
:1020E0001A62D6E7FEF77EFC0646664B1B6A13F0C3
:1020F000020F08D0FEF776FC801B41F2883398422D
:10210000F3D90320B8E0002D53D1E369022B56D850
:10211000E369002B00F0AF805A4A526802F00C02CB
:10212000082A00F0AB80022B40F08F80236A13B1A5
:10213000B3F5803F49D1636A4BB3B3F5802F26D006
:10214000B3F5002F23D0B3F5402F20D0B3F5801F77
:102150001DD0B3F5A01F1AD0B3F5C01F17D0B3F52B
:10216000E01F14D0B3F5001F11D0B3F5101F0ED02F
:10217000B3F5201F0BD0B3F5301F08D0B3F5401FC7
:1021800005D0B3F5501F02D0B3F5601F23D13E4BED
:1021900000221A60FEF726FC05463A4B1B6813F036
:1021A000007F1ED0FEF71EFC401B0228F5D903203D
:1021B00062E0344AD36923F08053D361A5E740F24B
:1021C0005521324801F0E4FDA2E740F25E212F489C
:1021D00001F0DEFDAFE740F25F212C4801F0D8FDB1
:1021E000D5E7236AB3F5803F1AD026494B6823F41C
:1021F0007413226A606A024313434B60224B01222C
:102200001A60FEF7EFFB04461E4B1B6813F0007FBD
:1022100019D1FEF7E7FB001B0228F5D903202BE0BC
:10222000A36813B1B3F5003F07D1164A536823F4EE
:102230000033A1680B435360D7E740F27521134880
:1022400001F0A6FDF1E7002016E00F4B00221A6016
:10225000FEF7C8FB04460B4B1B6813F0007F06D04B
:10226000FEF7C0FB001B0228F5D9032004E0002084
:1022700002E0012000E0002002B070BD0120FBE779
:102280000070004000100240600042428C6A00086A
:1022900010B487B0184C94E80F000DF1180C0CE93D
:1022A0000F00238AADF80430144B5B6803F00C0276
:1022B000042A03D0082A05D0114800E0114807B0CD
:1022C00010BC7047C3F3834206A90A4412F8100CED
:1022D00013F4803F0CD0094B5B68C3F340430B44BD
:1022E00013F8142C074BB3FBF2F300FB03F0E6E703
:1022F000054B03FB00F0E2E7786A0008001002409B
:1023000000127A0000A24A0400093D0070B50D4693
:102310000446C0B1236813F00F0F1AD0022D1ED847
:10232000854B1B6803F00703AB421ED2824A136839
:1023300023F007032B431360136803F00703AB423A
:1023400013D0012070BD40F2CA217C4801F020FD6D
:10235000E0E740F2CB21794801F01AFDDEE74FF4C7
:102360003371764801F014FDDAE7236813F0020FA9
:1023700018D0A3687BB1802B0DD0902B0BD0A02B55
:1023800009D0B02B07D0C02B05D0D02B03D0E02B29
:1023900001D0F02B34D16A4A536823F0F003A168CE
:1023A0000B435360236813F0010F61D06368022B65
:1023B0002CD86368012B2FD0022B34D0604A1268CE
:1023C00012F0020F00F0B6805D494A6822F0030265
:1023D00013434B60FEF706FB06466368012B29D0CA
:1023E000022B36D0564B5B6813F00C0F40D0FEF733
:1023F000F9FA801B41F288339842F3D90320A1E710
:1024000040F2E5214D4801F0C3FCC4E74FF43B71B5
:102410004A4801F0BDFCCCE7494A126812F4003F7B
:10242000D2D101208EE7464A126812F0007FCBD14C
:10243000012087E7424B5B6803F00C03042B17D0A5
:10244000FEF7D0FA801B41F288339842F2D903207C
:1024500078E73B4B5B6803F00C03082B08D0FEF7D2
:10246000C1FA801B41F288339842F2D9032069E710
:10247000314B1B6803F00703AB420CD92E4A13689B
:1024800023F007032B431360136803F00703AB42E9
:1024900001D0012056E7236813F0040F14D0E3683D
:1024A0005BB1B3F5806F08D0B3F5A06F05D0B3F57D
:1024B000C06F02D0B3F5E06F30D1214A536823F4E6
:1024C000E063E1680B435360236813F0080F15D0F5
:1024D00023695BB1B3F5806F08D0B3F5A06F05D069
:1024E000B3F5C06F02D0B3F5E06F1DD1144A536845
:1024F00023F46053216943EAC1035360FFF7C8FE28
:102500000F4B5B68C3F303130E4AD35CD8400E4BEA
:102510001860002001F0FCFC002013E74FF450711C
:10252000064801F035FCC8E740F24731034801F0A6
:102530002FFCDBE7012005E7002002408C6A000841
:1025400000100240546C000800000020014B186885
:10255000704700BF0000002008B5FFF7F7FF044BED
:102560005B68C3F30223034AD35CD84008BD00BFB5
:1025700000100240646C000808B5FFF7E7FF044B49
:102580005B68C3F3C223034AD35CD84008BD00BFD5
:1025900000100240646C000838B50D460446D0B106
:1025A000FDB10F232360124B5A6802F003026260F0
:1025B0005A6802F0F002A2605A6802F4E062E26037
:1025C0005B68DB0803F4E06323610A4B1B6803F0DC
:1025D00007032B6038BD40F2BF41074801F0D8FB2C
:1025E000DEE74FF49861044801F0D2FBD9E700BF61
:1025F00000100240002002408C6A000870B582B0D2
:102600000446036813F0130F6DD0236813F0010F15
:102610003FD0636843B1B3F5807F05D0B3F5007F49
:1026200002D0B3F5407F63D1504BDB6913F0805F7C
:1026300063D14E4BDA6942F08052DA61DB6903F014
:1026400080530193019B0125494B1B6813F4807F44
:1026500055D0464B1B6A13F4407311D0626802F4E4
:1026600040729A420CD0414A136A23F440704149A7
:1026700001260E6000260E60106213F0010F52D189
:102680003A4A136A23F4407361680B431362002DC6
:102690005AD1236813F0020F11D0A36843B1B3F5E8
:1026A000804F05D0B3F5004F02D0B3F5404F50D165
:1026B0002E4A536823F44043A1680B4353602368B8
:1026C00013F0100F50D0E368B3F5800F01D0002B4A
:1026D00044D1264A536823F48003E1680B435360D6
:1026E000002002B070BD7E21234801F051FB8CE731
:1026F0008421214801F04CFB96E70025A4E71C4A01
:10270000136843F480731360FEF76CF90646184BA8
:102710001B6813F4807F9CD1FEF764F9801B64284A
:10272000F5D90320DDE7FEF75DF906460F4B1B6A7E
:1027300013F0020FA4D1FEF755F9801B41F2883344
:102740009842F3D90320CCE7D36923F08053D361B7
:102750009FE7CB21084801F01BFBA9E740F22711B6
:10276000054801F015FBB4E70020BAE7001002406D
:102770000070004040044242C46A000870470000F4
:1027800010B5044603680F4A93420FD0B3F1804F4F
:102790000CD0A2F59432934208D002F580629342A5
:1027A00004D040F25F11084801F0F2FA2268D368C1
:1027B00043F00103D3602268136843F00103136000
:1027C000002010BD002C0140006B000870477047CE
:1027D0007047704710B5044603681A6912F0020F7B
:1027E00011D0DA6812F0020F0DD06FF002021A61F8
:1027F0000123037703689B6913F0030F70D0FFF781
:10280000E6FF0023237723681A6912F0040F12D021
:10281000DA6812F0040F0ED06FF004021A6102237E
:10282000237723689B6913F4407F5FD02046FFF72E
:10283000CEFF0023237723681A6912F0080F12D005
:10284000DA6812F0080F0ED06FF008021A61042344
:1028500023772368DB6913F0030F4ED02046FFF780
:10286000B6FF0023237723681A6912F0100F12D0E5
:10287000DA6812F0100F0ED06FF010021A61082300
:1028800023772368DB6913F4407F3DD02046FFF7B0
:102890009EFF0023237723681A6912F0010F03D0EB
:1028A000DA6812F0010F36D123681A6912F0800F2E
:1028B00003D0DA6812F0800F34D123681A6912F05D
:1028C000400F03D0DA6812F0400F32D123681A6942
:1028D00012F0200F03D0DA6812F0200F30D110BDB3
:1028E000FFF774FF2046FFF773FF8AE72046FFF7E4
:1028F0006DFF2046FFF76CFF9BE72046FFF766FF62
:102900002046FFF765FFACE72046FFF75FFF204654
:10291000FFF75EFFBDE76FF001021A61204601F08C
:102920004DF9C1E76FF080021A61204600F0A3F86C
:10293000C3E76FF040021A612046FFF74AFFC5E780
:102940006FF020021A61204600F094F8C7E70000FB
:1029500003681B4A90420AD0B0F1804F07D0A2F51D
:102960009432904203D002F58062904203D123F06A
:1029700070034A681343124A90420AD0B0F1804F64
:1029800007D0A2F59432904203D002F580629042C3
:1029900003D123F44073CA68134323F080034A69C8
:1029A000134303608B68C3620B688362044B9842D5
:1029B00002D00123436170470B690363F9E700BF4D
:1029C000002C014000284ED010B504460368274A69
:1029D00093420ED0B3F1804F0BD0A2F594329342C4
:1029E00007D002F58062934203D0D721204801F03E
:1029F000CFF9A3683BB1102B05D0202B03D0402B7F
:102A000001D0602B1AD123692BB1B3F5807F02D09E
:102A1000B3F5007F17D1A3690BB1802B18D194F8BF
:102A20003D30D3B1022384F83D30211D2068FFF7EB
:102A30008FFF012384F83D30002010BDD8210C48C1
:102A400001F0A6F9DFE7D921094801F0A1F9E2E791
:102A5000DA21074801F09CF9E1E784F83C30204690
:102A6000FFF78CFEDEE70120704700BF002C01401D
:102A7000006B0008704770472DE9F8430446426830
:102A80007E4B9A4200F29180E3681BB1B3F5005F80
:102A900040F09180236933B1B3F5806F03D0B3F573
:102AA000C06F40F08E8063694FF6F372134200D11D
:102AB00023B940F6AC11724801F06AF92268136933
:102AC00023F44053E1680B431361A3682269134365
:102AD000626913432168CA6822F4B05222F00C02E2
:102AE0001343CB602268536923F44073A1690B43FD
:102AF00053612268634B9A4269D0FFF72DFD00EBCA
:102B0000800000EB80006568AD00B0FBF5F55E4F1E
:102B1000A7FB05356D092E01FFF71EFD00EB8000B8
:102B200000EB80006568AD00B0FBF5F9FFF714FD20
:102B300000EB800000EB80006568AD00B0FBF5F5B0
:102B4000A7FB05356D094FF0640808FB15952D01AD
:102B50003235A7FB05356D0905F0F0053544FFF763
:102B6000FBFC00EB800000EB80006668B600B0FB69
:102B7000F6F6FFF7F1FC00EB800000EB80006368E5
:102B80009B00B0FBF3F0A7FB0030400908FB106886
:102B90004FEA081808F13208A7FB0837C7F34317B4
:102BA00023682F449F60BDE8F88340F6A91134489C
:102BB00001F0EEF868E740F6AA11314801F0E8F8B4
:102BC00068E740F6AB112E4801F0E2F86BE7FFF73B
:102BD000D3FC00EB800000EB80006568AD00B0FB2B
:102BE000F5F5294FA7FB05356D092E01FFF7C4FC4C
:102BF00000EB800000EB80006568AD00B0FBF5F9EC
:102C0000FFF7BAFC00EB800000EB80006568AD00C8
:102C1000B0FBF5F5A7FB05356D094FF0640808FB1F
:102C200015952D013235A7FB05356D0905F0F00529
:102C30003544FFF7A1FC00EB800000EB80006668E4
:102C4000B600B0FBF6F6FFF797FC00EB800000EB58
:102C5000800063689B00B0FBF3F0A7FB00304009E5
:102C600008FB10684FEA081808F13208A7FB08377C
:102C7000C7F3431723682F449F6094E720AA4400BA
:102C8000386B0008003801401F85EB5100286CD0DC
:102C900010B5044683690BB30368354A93420CD0E0
:102CA000A2F57442934208D002F58062934204D0A8
:102CB00040F211112F4801F06BF8A369FBB1B3F595
:102CC000807F1CD0B3F5007F19D0B3F5407F16D0BC
:102CD0004FF48971274801F05BF810E00368244A3B
:102CE00093420CD0A2F57442934208D002F5806260
:102CF000934204D04FF48B711E4801F049F8A36849
:102D000013B1B3F5805F24D194F839303BB3242359
:102D100084F839302268D36823F40053D360204606
:102D2000FFF7AAFE2268136923F490431361226817
:102D3000536923F02A0353612268D36843F4005394
:102D4000D3600020E063202384F8393084F83A30DF
:102D500010BD4FF48C71074801F01AF8D4E784F8DD
:102D60003830204601F0A6F8D1E70120704700BFB7
:102D700000380140386B0008002103E00A4B5B5823
:102D80004350043109480A4B42189A42F6D3094A83
:102D900002E0002342F8043B074B9A42F9D301F0CA
:102DA00005F900F0CFFF7047F46C00080000002028
:102DB0007000002070000020340F0020FEE70000AB
:102DC00030B585B00C46074B1D681E230293019158
:102DD000009201230246D0212846FEF727FE60B26A
:102DE00005B030BDD00D002008B50A460121FFF71F
:102DF000E7FF08BDF0B587B007460D46164600242C
:102E000015E036F814301A0A8DF814208DF81530B4
:102E1000094B18681E2302930223019305AB00930C
:102E200001233A46D021FEF737FD0134E4B2AC422B
:102E3000E7D307B0F0BD00BFD00D002010B584B0BF
:102E4000064B1C681E230293019100920123024647
:102E5000D0212046FEF720FD04B010BDD00D00208B
:102E600000B583B002AA02F8011D0121FFF7E6FFB9
:102E700003B05DF804FB12B900231846704770B523
:102E800082B016461D460C460DF10701FFF7ACFF58
:102E9000034658B10120B0400138A41B661C00FA5B
:102EA00006F49DF80720144034412C70184602B0F7
:102EB00070BD02B97047F0B583B017461D460C4689
:102EC000064602A9002301F8013DFFF78DFF08B96E
:102ED00003B0F0BD0123BB40013BE11B01318B403E
:102EE00005FA01F1C9B219409DF8072022EA03034F
:102EF00019438DF807103046FFF7B2FFE8E770B5C9
:102F000082B004460D4616460DF10701FFF76CFF2F
:102F10006EB9012101FA05F39DF8071021EA0301BA
:102F20008DF807102046FFF79BFF02B070BD01210E
:102F300001FA05F39DF807101943C9B2F0E708B587
:102F400000F01F000AB140F0200009B140F040003D
:102F500001466D20FFF784FF08BD08B501466E20CD
:102F6000FFF77EFF08BD2DE9F84380460E46174661
:102F70009946002211463846FFF7E1FF4846FFF721
:102F8000ECFF002509E0102411E00022114638462C
:102F9000FFF7D5FF4846FFF7E0FFB54221D205F124
:102FA0001003B342EFDDF4B2EBB2E31ADCB2C9F5C1
:102FB00080739C4202DDC9F10003DCB208EB05021C
:102FC00021466F20FFF7FCFE2544ADB24C445FFA6A
:102FD00084F9AE42E1D9B9F1000FD6D10137FFB281
:102FE000D3E7BDE8F8832DE9F04F83B081468846EA
:102FF000104600921D469DF830B09DF834A0002286
:103000001146FFF79CFF2846FFF7A7FFBBF1000F13
:1030100007D100230193BAF1000F07D10027002642
:103020002BE0102003F054F80190F4E7102003F097
:103030004FF80746F3E710242BE05A1819F802203E
:10304000FA540133DBB29C42F7D82DE00023FAE7B3
:10305000019803F045F8BAF1000F01D1504655E050
:10306000384603F03DF8002050E000221146009859
:10307000FFF765FF2846FFF770FF46453FD2314610
:1030800006F110034345D6DD5FFA88F4F3B2E41A83
:10309000E4B2C5F580739C4201DD6C42E4B2BAF142
:1030A000000FD3D109EB06073A4621466F20FFF700
:1030B000C5FEBBF1000F15D0019B9BB1002211464C
:1030C0000098FFF73CFF2846FFF747FF019A21468B
:1030D0006F20FFF775FE22460199384603F008F885
:1030E0000028B5D12644B6B22544EDB2B045C4D9C6
:1030F000002DBAD1009B0133DBB20093B5E7BBF1E1
:10310000000F06D1BAF1000F07D1012003B0BDE8CE
:10311000F08F019802F0E4FFF4E7384602F0E0FF98
:103120000120F3E72DE9F04F85B005468B46904628
:103130001AB94FF00009002434E0082002F0C8FF5B
:103140008146F8E7621C92B22B5D0393A31C9BB2ED
:1031500015F802A00334A7B2EE5C33E0042E01D8C8
:1031600000230BE03146484603F082F88146F7E73A
:10317000FA18AA5C09F8032001339BB2B2B29A4252
:10318000F6D8B6B200230193012300935346039A65
:1031900031464846FFF727FF82463E44B4B2BAF1B3
:1031A000000F2CD05C4533D2B8F1000FCAD0621C9E
:1031B00092B22B5D0393A31C9BB215F802A00334BB
:1031C000A7B2EE5C2EB1B8F1000FC7D105EB07092D
:1031D000D7E7B8F1000F0BD07C1CA4B215F807A0FC
:1031E000BAF1010F09D132213820FFF739FED6E7B5
:1031F0007C1CA4B215F807A0F2E7B246CFE7B8F1FD
:10320000000F01D1C24608E0484602F069FF04E021
:10321000B8F1000F05D14FF0010A504605B0BDE8E6
:10322000F08F484602F05CFF4FF0010AF5E700001E
:1032300010B5054C224602217220FFF7C1FD20780F
:10324000637843EA002010BDD40D002008B5024683
:103250007420FFF7B5FD08BD10B5034C21463A2098
:10326000FFF7C2FD207810BDD40D002008B5012263
:1032700002216A20FFF743FE08BD000010B5054C8F
:103280002346062211460020FFF7F5FD207840B2C4
:1032900010BD00BFD40D002008B5C3B206221146F0
:1032A0000020FFF706FE08BD10B5054C2346062298
:1032B00011460120FFF7DFFD207840B210BD00BFAE
:1032C000D40D002008B5C3B2062211460120FFF735
:1032D000F0FD08BD10B5054C23460622114602201C
:1032E000FFF7C9FD207840B210BD00BFD40D00200B
:1032F00008B5C3B2062211460220FFF7DAFD08BD69
:1033000008B5002206216B20FFF7F9FD08BD00007B
:1033100008B5164B1860012207216B20FFF7EFFD5F
:10332000642001F0CCF8FFF7EBFF0A2001F0C7F8AA
:103330000123032202216B20FFF7BBFD03231A4662
:1033400002211A20FFF7B5FD04211920FFF788FD9F
:103350000323022204211B20FFF7ABFD00230222DE
:1033600004211C20FFF7A5FD08BD00BFD00D0020E3
:1033700008B5012207216A20FFF7C1FD08BD08B585
:10338000002207216A20FFF7BAFD08BDF0B5ABB0F7
:10339000D94B27930024289401252AA941F8105DD0
:1033A000D648FDF7B9FD224602210620FDF724FD8F
:1033B0000620FDF767FD2A4607216B20FFF79FFDDA
:1033C0001E2001F07CF8FFF79BFF22462146204695
:1033D000FFF7B5FDFFF752FF0746FFF765FF06460B
:1033E000FFF778FF7F212520FFF73AFD22460521D0
:1033F0006A20FFF784FD68212520FFF731FD2A466A
:1034000029466A20FFF77BFD142001F058F8BC48DC
:1034100000F0F4FA019500952346224640F28971A6
:10342000B848FFF7E0FDA84205D0B74800F0E6FA3B
:1034300001202BB0F0BDB54800F0E0FA2A46C021CB
:10344000B348FFF76FFE002800F0A081B14800F0FC
:10345000D5FA0A2001F033F803231A4602216B2023
:10346000FFF727FD12213820FFF7FAFC042119206D
:10347000FFF7F6FC2B46032205211A20FFF719FD62
:1034800003231A4602211A20FFF713FD0323022209
:1034900004211B20FFF70DFD03217020FFF7E0FC46
:1034A00021467120FFF7DCFC224621462046FFF72B
:1034B00026FD3846FFF7F0FE3046FFF703FF5A209F
:1034C000FFF716FF944800F099FA22462946132088
:1034D000FFF790FC224629461520FFF78BFC224679
:1034E00029461720FFF786FC8C4800F087FA234610
:1034F0000BE0844A224492F84C182AAA1A4402F893
:10350000A01C0133DBB20134A4B2032BF1D99DF826
:103510000A10CA1C9342ECDB9DF809309DF8082084
:1035200000250195012000900DF10B00FFF75BFDD8
:103530002B46032B40F2C5809DF80A10CA1C93420B
:10354000C0F2BF809DF809309DF808200026019642
:10355000012500950DF10B00FFF745FD2B462A468E
:1035600002216A20FFF7A5FCFFF762FE06AAC1B29E
:103570007420FFF725FC02211F20FFF771FC9C211E
:103580002120FFF76DFC50212020FFF769FC314618
:103590002220FFF765FC2A4602216A20FFF7AFFCD4
:1035A0002A4606216A20FFF7AAFCFFF7E1FE2A4619
:1035B00003216A20FFF7A3FC022000F080FFFFF741
:1035C00037FEC6B2022EFAD9554800F017FA00238A
:1035D000032B40F283809DF80A10CA1C93427DDBC6
:1035E0009DF809309DF808200025019501200090E4
:1035F0000DF10B00FFF7F7FC2B46032B40F29280F6
:103600009DF80A10CA1C9342C0F28C809DF80930C4
:103610009DF8082000250195012000900DF10B0078
:10362000FFF7E1FC2B46032B40F289809DF80A103E
:10363000CA1C9342C0F283809DF809309DF808208F
:1036400000250195012000900DF10B00FFF7CBFC48
:10365000314606A8FFF7FAFD2B46032B7CD99DF8CF
:103660000A10CA1C934277DB9DF809309DF80820A8
:103670000DF10B00FFF777FCFFF7DAFDC1B202296D
:10368000FAD906A8FFF7E2FD0023032B71D99DF8B4
:103690000A10CA1C93426CDB9DF809309DF8082083
:1036A00000240194012500950DF10B00FFF79BFC10
:1036B000FFF765FE2A4602216A20FFF720FC20461C
:1036C000B7E6104A224492F84C182AAA1A4402F883
:1036D000A01C0133DBB20134A4B22AE7094A224418
:1036E00092F84C182AAA1A4402F8A01C0133DBB243
:1036F0000134A4B26CE700BF0000211000080140B3
:10370000706B00080C010008D46B0008846B000883
:1037100098080008986B0008A46B0008AC6B0008C0
:10372000B86B00081C4A224492F84C182AAA1A4482
:1037300002F8A01C0133DBB20134A4B25DE7164AE3
:10374000224492F84C182AAA1A4402F8A01C013309
:10375000DBB20134A4B266E70F4A224492F84C1857
:103760002AAA1A4402F8A01C0133DBB20134A4B225
:1037700073E7094A224492F84C182AAA1A4402F81C
:10378000A01C0133DBB20134A4B27EE7034800F091
:1037900035F902204DE600BF0C010008C06B00089F
:1037A000F8B50F4616461D460446002831D020784D
:1037B000637803EB002002F06BF90022164B02F055
:1037C000D1F9C7E900012079637903EB002002F009
:1037D0005FF90022104B02F0C5F9C6E90001207A1A
:1037E000637A03EB002002F053F900220A4B02F047
:1037F000B9F9C5E90001207B637B03EB002002F0EF
:1038000047F90022044B02F0ADF9069BC3E9000121
:10381000F8BD024B1C68CAE70000103FE40D002011
:103820002DE9F04F87B006460F4692469B4610465C
:10383000194601F0E1FF80468946DDE9102302F0D8
:1038400091F9CDE9000132463B463046394601F058
:10385000D3FF04460D46DDE9122302F083F9CDE9DA
:10386000020132463B462046294602F07BF90646D5
:103870000F4652465B464046494602F073F90246FF
:103880000B463046394601F0B7FF0022334B01F0BA
:10389000B1FFCDE90401DDE90223DDE9000101F01A
:1038A000A9FFDDE9042301F02BFA169BC3E900010F
:1038B000DDE912234046494602F054F98046894624
:1038C000DDE910232046294602F04CF902460B465A
:1038D0004046494601F090FF01F0C0F9024601F16F
:1038E00000431599C1E90023DDE91023104619466C
:1038F00001F082FFDDE9122302F034F980468946A7
:1039000052465B462046294602F02CF904460D46F5
:10391000DDE912231046194601F06EFFDDE912239E
:1039200002F020F902460B463046394601F064FFAA
:1039300000220A4B01F05EFF06460F4622462B4648
:103940004046494601F056FF32463B4601F0D8F961
:10395000149BC3E9000107B0BDE8F08F0000F03F01
:103960002DE9F04383B081460D4616461F461F4B96
:103970001B781BB91E4B1B88292BF8D91B4B002227
:103980001A70FFF769FC1B4C2070FFF751FC184BB5
:103990001880237813F0100F07D1B0F5806F04D092
:1039A00013F0020F0BD1002002E0FFF75FFC0020B4
:1039B00003B0BDE8F083FFF73BFC0D4B18800C4BC8
:1039C0001B88292BF7D9DFF830802A214046FFF7E2
:1039D0003DFC074A13882A3B1380009733462A464A
:1039E00049464046FFF7DCFE0120E1E77300002076
:1039F0007000002072000020E80D002010B5044681
:103A000002F082FC0146204600F042F80121024803
:103A100000F03EF810BD00BFE86B00082DE9F04350
:103A200085B00F46194B1B6813F0010F0BD00446ED
:103A3000435643BB042528462146ABBE04463846C0
:103A400005B0BDE8F0830846FAE714F9011B04AAA3
:103A50001A4402F8101C0133AB42F6D304AA1344F3
:103A6000002203F8102C4FF00408E946404649466E
:103A7000ABBE8046761B002EE1D03546102E28BF07
:103A800010250023E8E70E46F5E700BFF0ED00E063
:103A900008B5FFF7C3FF08BD84B00F4B9A6942F029
:103AA00004029A619A6902F004020192019A9A69E9
:103AB00042F008029A619A6902F008020292029AA0
:103AC0009A6942F010029A619B6903F01003039314
:103AD000039B04B0704700BF0010024000B5B3B0B4
:103AE0003348FFF715FCFA2000F0E9FC4FF40053CF
:103AF0001C9303231E9301221D921F931CA92D4882
:103B0000FDF70AFAFFF742FCFFF732FC14AB16AAE6
:103B100018A91AA8FFF724FF0EAB069310AB059364
:103B200012AB0493DDE91423CDE90223DDE916236A
:103B3000CDE90023DDE91823DDE91A01FFF770FE66
:103B4000DDE90E23CDE90C23DDE91023CDE90A23BD
:103B5000DDE91223CDE90823DDE91423CDE90623AD
:103B6000DDE91623CDE90423DDE91823CDE902239D
:103B7000DDE91A23CDE900230F4A462120A802F0EF
:103B80008FFB20A8FFF73AFF0A4C01224FF40051A7
:103B90002046FDF74FFBC82000F091FC00224FF4B7
:103BA00000512046FDF746FBC82000F088FCADE739
:103BB0002C0E002000100140106C000808B50268AF
:103BC000034B9A4200D008BDFCF704FFFBE700BF9F
:103BD000002C014008B5FFF711FFFEE708B50C48BF
:103BE0000C4B03600C4B436000238360C3604FF4B5
:103BF0008042026143618361C3610362FDF754FD4A
:103C000000B908BD40F211110448FFF7E3FF00BFFF
:103C10002C0E002000540040A0860100006C00081B
:103C200000B585B01248134B036000238360C36066
:103C300043614FF46022C261436001230361FCF7DA
:103C4000C5FF60B90023019301220292039301A9E9
:103C50000748FCF7CDFE30B905B05DF804FBF32151
:103C60000548FFF7B7FFFD210348FFF7B3FF00BF8B
:103C7000800E002000240140006C000808B50B48AD
:103C80000B4B03604FF4E133436000238360C36058
:103C900003610C2242618361C361FEF7F7FF00B943
:103CA00008BD4FF492710348FFF794FFB00E002057
:103CB00000380140006C000800B595B002230A935B
:103CC00001230E9310230F93002311930AA8FEF7EC
:103CD0004FF830BB0F2305930021069107910891FF
:103CE000099105A8FEF712FBF8B9022301930023FE
:103CF000039301A8FEF782FCD8B9FEF727FC0F4B0F
:103D0000A3FB00308009FDF7D3F80420FDF7E6F8A7
:103D100000220F214FF0FF30FDF76EF815B05DF86F
:103D200004FBBE210648FFF755FFCC210448FFF7EE
:103D300051FFD3210248FFF74DFF00BFD34D621062
:103D4000006C000800B587B0FCF732FEFFF7B4FF47
:103D5000FFF7A2FEFFF742FFFFF762FFFFF78EFFBC
:103D600001AC084D0FCD0FC42B682360002101A8C2
:103D700000F08BFB044B18600448FFF73FFE00F097
:103D80007FFBFEE7EC6B0008280E0020406C00086B
:103D90007047000000B583B0214B9A6942F00102E0
:103DA0009A619B6903F001030193019B0320FDF7D6
:103DB00005F8002211466FF00B00FDF71DF80022F8
:103DC00011466FF00A00FDF717F8002211466FF058
:103DD0000900FDF711F8002211466FF00400FDF70D
:103DE0000BF8002211466FF00300FDF705F80022E2
:103DF0000F216FF00100FCF7FFFF00220F214FF0B1
:103E0000FF30FCF7F9FF074B5A6822F0E0625A6076
:103E10005A6842F000725A6003B05DF804FB00BFBC
:103E2000001002400000014002680E4B9A4200D090
:103E3000704700B587B003F56C439A6942F400728D
:103E40009A619B6903F400730193019B0123029320
:103E50000323039302A90448FDF75EF807B05DF859
:103E600004FB00BF002401400008014002680E4B23
:103E70009A4200D0704700B587B0C0230293122346
:103E800003930323059302A90848FDF745F8084B5F
:103E9000DA6942F40012DA61DB6903F4001301937A
:103EA000019B07B05DF804FB00540040000C01408A
:103EB000001002400268144B9A4200D0704710B5BF
:103EC00086B003F558439A6942F480429A619B692F
:103ED00003F480430193019B4FF400730293022388
:103EE000039303230593094C02A92046FDF714F818
:103EF0004FF48063029300230393049302A92046A6
:103F0000FDF70AF806B010BD003801400008014076
:103F100000B589B0002201461920FCF76DFF192079
:103F2000FCF7B0FF144B9A6942F400629A619B69F6
:103F300003F400630193019B02A903A8FEF72CFB85
:103F4000FEF71AFB0D4BA3FB00239B0C013B0C4817
:103F50000C4A026040F2E732C26043600023036112
:103F60008360FEF72FFD18B1012009B05DF804FB56
:103F70000348FEF705FCF8E70010024083DE1B4310
:103F8000F00E0020002C01407047FEE7FEE7FEE740
:103F9000FEE7704708B500F09BFA08BD08B5024877
:103FA000FEF718FC08BD00BFF00E00200F4B1A688A
:103FB00042F001021A6059680D4A0A405A601A68B4
:103FC00022F0847222F480321A601A6822F480226D
:103FD0001A605A6822F4FE025A604FF41F029A6077
:103FE000044B4FF000629A60704700BF001002401F
:103FF0000000FFF800ED00E0124A12F0070F1ED09B
:10400000D11D21F00701C1F5406313440A460E4853
:104010000260002141601344083B23F007030B4872
:10402000036059601960991A51601360084B196058
:10403000084B1960084B4FF000421A6070474FF46C
:104040004063E4E778000020840C00207400002026
:10405000800C00207C0C0020780C002010B4124B47
:104060001A6882421AD359685C18844203D14068A6
:1040700001445960184641684418A24212D10B4CC1
:104080002468A2420CD05268114441601A68126838
:104090000260984200D0186010BC70471346DFE7FA
:1040A0000460F6E70260F4E7840C0020740000204E
:1040B00070B5044600F000FC3A4B1B68BBB13A4BAC
:1040C0001B681C4263D1ACB1083414F0070F11D047
:1040D00024F00704083404F007035BB14FF05003E9
:1040E00083F31188BFF36F8FBFF34F8FFEE7FFF7A6
:1040F00083FFE4E7002C4CD02C4B1B68A3424AD32F
:104100002B4B1D6801E02B4615466A68A24202D27D
:104110002A68002AF7D1234A1268AA423DD01E68B5
:1041200008362A681A606B681B1B102B10D92819D7
:1041300010F0070F08D04FF0500383F31188BFF33E
:104140006F8FBFF34F8FFEE743606C60FFF786FF12
:104150006A6816490B689B1A0B60164909688B42FE
:1041600001D214490B60104B1B6813436B60002392
:104170002B6000F035FC16F0070F10D04FF0500305
:1041800083F31188BFF36F8FBFF34F8FFEE70026D5
:10419000EFE70026EDE70026EBE70026E9E73046EB
:1041A00070BD00BF74000020780C00207C0C002043
:1041B000840C0020800C002080B338B50446A0F1A8
:1041C000080550F8042C164909680A4208D14FF036
:1041D000500383F31188BFF36F8FBFF34F8FFEE758
:1041E00050F8080C40B14FF0500383F31188BFF32F
:1041F0006F8FBFF34F8FFEE722EA010244F8042CD1
:1042000000F05AFB54F8041C064A13680B44136070
:104210002846FFF723FF00F0E3FB38BD704700BFDF
:10422000780C00207C0C00200B4B1B68B3F1FF3F87
:1042300008D04FF0500383F31188BFF36F8FBFF3A3
:104240004F8FFEE74FF0500383F31188BFF36F8F5A
:10425000BFF34F8FFEE700BF040000200648006850
:10426000006880F3088862B661B6BFF34F8FBFF372
:104270006F8F00DF00BF000008ED00E04FF080739B
:1042800040F8043C21F0010140F8081C034B40F8C1
:104290000C3C40F8202C4038704700BF29420008F1
:1042A000074B19680868B0E8F00F80F30988BFF37E
:1042B0006F8F4FF0000080F311884EF00D0E7047A5
:1042C000940C00204FF0500383F31188BFF36F8FDD
:1042D000BFF34F8F0A4A136801331360012B00D0DC
:1042E0007047084B1B6813F0FF0FF9D04FF05003D5
:1042F00083F31188BFF36F8FBFF34F8FFEE700BFCB
:104300000400002004ED00E0094B1B6843B94FF0A6
:10431000500383F31188BFF36F8FBFF34F8FFEE716
:10432000013B034A13600BB983F31188704700BF48
:104330000400002000000000000000000000000059
:10434000EFF30980BFF36F8F0D4B1A6820E9F00F70
:1043500010602DE908404FF0500080F3118800F004
:1043600021FC4FF0000080F31188BDE80840196877
:104370000868B0E8F00F80F30988BFF36F8F7047CB
:10438000940C002008B54FF0500383F31188BFF35D
:104390006F8FBFF34F8F00F097FA18B1034B4FF0B8
:1043A00080521A60002383F3118808BD04ED00E0F9
:1043B000064B1B68064AA2FB03239B09013B054AE7
:1043C0001360054B07221A60704700BF00000020F1
:1043D000D34D621014E000E010E000E000B583B0BF
:1043E0001F4B1A78D2B20192FF221A701B78DBB2EF
:1043F0008DF803309DF8033003F05003194A137011
:10440000194B07221A6009E0174A1368013B136031
:104410009DF803305B00DBB28DF803309DF803306C
:1044200013F0800FF0D1104A13681B0203F4E0630D
:104430001360019BDBB20A4A13700C4B1A6842F4FA
:1044400070021A601A6842F070421A60FFF7B0FFFB
:10445000074B00221A60FFF701FFFFF7E5FE00BFE0
:1044600000E400E08C0C0020900C002020ED00E027
:1044700004000020842801D00330704700207047DA
:1044800008B500F0DBF9002008BDF0B585B00F4697
:10449000446805680669B0F90800FFF7EBFF03AB55
:1044A000019300903B46B2B22946204600F094F9B1
:1044B000012802D1039805B0F0BD0020FBE708B544
:1044C000034600B90123184600F004FB002008BD94
:1044D00008B500F0B3FB012801D0FFF753FF08BD7A
:1044E00000F1080343604FF0FF328260C360036154
:1044F00000230360704700230361704743684B60EB
:104500009A688A609A68516099600861036801330B
:104510000360704730B40D68B5F1FF3F02D000F181
:10452000080202E0026904E01A4653681C68AC42C3
:10453000FAD953684B6099608A60516008610368DA
:104540000133036030BC7047036942688168916041
:104550008268416851605A68824205D00022026137
:10456000186801381860704782685A60F6E70000E2
:10457000084B1B681B683BB1064B1B68DB68DB689C
:104580005A68054B1A607047034B4FF0FF321A60B0
:10459000704700BF980C0020700D002010B5044635
:1045A000006BFFF709FE2046FFF706FE10BD2DE960
:1045B000F04780469946089D099F0A9C266B02F1A8
:1045C0008042013A06EB820626F0070600230F2BF5
:1045D00007D8C856E21882F83400CA560AB1013327
:1045E000F5E7002384F84330062D00D90625E5625F
:1045F00065644FF0000AC4F848A0201DFFF77BFF58
:1046000004F11800FFF777FF2461C5F10705A561E4
:104610006462C4F84CA084F850A04A464146304633
:10462000FFF72CFE206007B13C60BDE8F08700007A
:1046300038B5002407E004EB840293000E481844C8
:10464000FFF74EFF0134062CF5D90C4D2846FFF735
:1046500047FF0B4C2046FFF743FF0A48FFF740FF98
:104660000948FFF73DFF0948FFF73AFF084B1D6077
:10467000084B1C6038BD00BFA00C0020440D00207A
:10468000580D0020780D0020A40D0020900D002072
:10469000980C00209C0C002010B50446FFF712FE79
:1046A000204A1368013313601F4B1B685BB11F4B1B
:1046B0001B686BB91C4B1B68DA6AE36A9A4207D81D
:1046C000194B1C6004E0184B1C601368012B26D0AA
:1046D000174A136801331360E36A01229A401549AF
:1046E000086802430A6003EB83039A00211D124805
:1046F0001044FFF703FFFFF707FE0C4B1B686BB17D
:10470000094B1B68DA6AE36A9A4207D20B4B4FF0F7
:1047100080521A60BFF34F8FBFF36F8F10BDFFF74A
:1047200087FFD5E72C0D0020940C00208C0D002075
:104730003C0D0020400D0020A00C002004ED00E006
:1047400070B504460E461D4B1D681D4B186804309D
:10475000FFF7FAFE50B91A4B1B68DA6A012303FA15
:1047600002F218490B6823EA02030B60B4F1FF3F21
:1047700013D02C44124B1B685C60A54216D8124B18
:1047800018680F4B19680431FFF7C4FE0F4B1B6804
:10479000A34212D90D4B1C600FE0002EE9D0084B4C
:1047A000196804310A48FFF7A9FE06E0094B1868AA
:1047B000034B19680431FFF7ADFE70BDB80D002042
:1047C000940C0020400D0020980C0020700D00205B
:1047D000900D00209C0C00202DE9F04385B0074689
:1047E0008846154699469000FFF762FCF8B10646E8
:1047F0005420FFF75DFC0446A8B10663D4B1002342
:10480000039302940D9B01930C9B00934B462A4605
:1048100041463846FFF7CBFE2046FFF73DFF01201B
:1048200005B0BDE8F0833046FFF7C6FCE6E74FF081
:10483000FF30F5E74FF0FF30F2E7000000B583B03E
:10484000174B019300230093802216491648FFF767
:10485000C3FF012805D0B0F1FF3F17D003B05DF8CA
:1048600004FB4FF0500383F31188BFF36F8FBFF346
:104870004F8F0E4B4FF0FF321A600D4B01221A6022
:104880000C4B00221A60FFF7A9FDE7E74FF0500339
:1048900083F31188BFF36F8FBFF34F8FFEE700BF25
:1048A0006C0D00206C6C00087D4B0008700D002022
:1048B0008C0D0020B80D0020024A136801331360EC
:1048C000704700BF380D0020F8B53A4B1B68002B2D
:1048D00064D1394B1D6801351D60C5B9374B1B6864
:1048E0001B6843B14FF0500383F31188BFF36F8F00
:1048F000BFF34F8FFEE7314A1168314B18681060E3
:104900001960304A136801331360FFF731FE2E4BF4
:104910001B68AB4238D900242C4B1B68DB6A03EBC5
:1049200083039A002A4B9B58012B3CD901243AE07F
:104930000124224B1B681B6843B3204B1B68DB68B8
:10494000DE6873689D4226D3371D3846FFF7FCFDAD
:10495000B36A1BB106F11800FFF7F6FDF36A0122F6
:104960009A401C49086802430A6003EB83039A00DB
:10497000394617481044FFF7C1FDF26A134B1B6814
:10498000DB6A9A42D4D2D4E70024D2E70E4B4FF030
:10499000FF321A60C0E70C4A1360BDE70E4A136885
:1049A0000133136000240D4B1B6803B10124204622
:1049B000F8BD00BF380D0020B80D0020980C002075
:1049C0009C0C0020740D0020700D0020940C002021
:1049D000A00C0020400D0020340D0020BC0D002054
:1049E00038B5334B1B6843B94FF0500383F311883C
:1049F000BFF36F8FBFF34F8FFEE7FFF763FC2C4BC6
:104A00001A68013A1A601B68002B4DD1294B1B68AC
:104A100023B90024FFF778FC204638BD0024264B3C
:104A20001B681BB3244BDB68DC6804F11800FFF73C
:104A30008BFD251D2846FFF787FDE36A01229A407A
:104A40001E49086802430A6003EB83039A00294663
:104A50001B481044FFF752FDE26A1A4B1B68DB6AE1
:104A60009A42DCD3184B01221A60D8E70CB1FFF749
:104A70007FFD164B1C6854B1FFF726FF10B1124B97
:104A800001221A60013CF7D1104B00221A600E4B34
:104A90001B685BB10E4B4FF080521A60BFF34F8F13
:104AA000BFF36F8F0124B5E70024B3E70024B1E71B
:104AB000380D00202C0D0020780D0020400D002026
:104AC000A00C0020940C0020BC0D0020340D002010
:104AD00004ED00E010B5A8B104460F4B1B6843B1CC
:104AE0004FF0500383F31188BFF36F8FBFF34F8FE5
:104AF000FEE7FFF7E1FE00212046FFF721FEFFF76A
:104B00006FFF38B9054B4FF080521A60BFF34F8FDB
:104B1000BFF36F8F10BD00BF380D002004ED00E023
:104B2000134B1B6813B310B5FFF7C6FE114B1C687F
:104B3000FFF756FF24B90E4B1B68002BF4D110BDB4
:104B4000FFF7C0FB0B4BDB68DC68201DFFF7FCFCAC
:104B5000094A1368013B1360054A1368013B13605F
:104B6000FFF7D2FB2046FFF719FDE4E7704700BFCF
:104B7000300D0020A40D00202C0D002008B5FFF7FB
:104B8000CFFF064B1B68012BF9D9054B4FF0805224
:104B90001A60BFF34F8FBFF36F8FF0E7A00C0020B8
:104BA00004ED00E0204B1B681BB1204B01221A6072
:104BB00070471E4B00221A601D4B1B68B3FA83F32B
:104BC000DBB2C3F11F0303EB83018A0019498A5842
:104BD00042B94FF0500383F31188BFF36F8FBFF3D7
:104BE0004F8FFEE710B413489A00D418A100014477
:104BF0004C6864684C601A4491000831084484424F
:104C00000AD003EB83039A000A4B13445B68DA680B
:104C1000094B1A6010BC704761680648142202FBF9
:104C200003025160EDE700BF380D0020BC0D0020ED
:104C3000400D0020A00C0020940C0020054B1B68A8
:104C400033B1054B1B680BB1002070470220704741
:104C5000012070478C0D0020380D00202DE9F04315
:104C60008BB004460D4600F04FF8DFF89080064602
:104C700098F900300F4601332BD022462B462046B0
:104C8000294601F009FA814618BB2046294600F062
:104C9000A1FD0022164B01F0F5F9D0B10122154B10
:104CA0001548CDE90023CDF82090CDE90445CDE9A4
:104CB000024500F095FD98F90030CDE90601022B80
:104CC0000CD0684600F08AFD40B1089B5BB9DDE975
:104CD0000667304639460BB0BDE8F08301F0F2F9C3
:104CE00021230360F1E701F0EDF9089B0360EEE793
:104CF0000000F03F746C0008706C00080800002091
:104D000000F03EBA000000002DE9F04FB24B21F058
:104D100000479F4287B00D46044615DD034607F164
:104D2000404707F580173B4326D002460B4600F06C
:104D300061FD0B46024601F03FF804460B46204653
:104D4000194607B0BDE8F08FA44B0E469F422EDCFB
:104D5000B7F1795F80F24A8183A3D3E9002300F0A1
:104D60004BFD00229E4B01F08DF900B32B462046EF
:104D7000194607B0BDE8F08F7DA3D3E9002300F00A
:104D8000F1FE7DA3D3E9002306460F4620462946BF
:104D900000F0E8FE02460B463046394600F02CFD96
:104DA00004460B462046194607B0BDE8F08F204662
:104DB000294600F00FFD02460B460020884900F00E
:104DC00019FD0022874B00F0CDFE6DA3D3E900232F
:104DD00004460D4600F0C6FE6BA3D3E9002300F0A5
:104DE0000BFD22462B4600F0BDFE69A3D3E900234C
:104DF00000F000FD22462B4600F0B4FE66A3D3E986
:104E0000002300F0F9FC22462B4600F0ABFE64A321
:104E1000D3E9002300F0EEFC22462B4600F0A2FE70
:104E200061A3D3E9002300F0E7FC22462B4600F003
:104E300099FE5FA3D3E90023CDE90001204629466E
:104E400000F090FE5CA3D3E9002300F0D3FC2246DF
:104E50002B4600F087FE5AA3D3E9002300F0CCFCD8
:104E600022462B4600F07EFE57A3D3E9002300F034
:104E7000C1FC22462B4600F075FE594B002200F083
:104E8000BBFC82468B4620462946CDE902AB00F0AA
:104E900051FA554B80469F42894600F31C810246D9
:104EA0000B4600F0A9FCDDE90223CDE90401DDE9B0
:104EB000000100F081FF02460B46DDE9040100F02D
:104EC00051FE4FF0000ACDE9000152464B465046D4
:104ED000494600F047FE02460B462046294600F0B0
:104EE00089FC524604460D464B464046494600F072
:104EF00083FC02460B462046294600F05DFF024631
:104F00000B4600F079FC02460B461BA1D1E90001DB
:104F100000F070FC02460B46DDE9000100F06AFC7F
:104F2000524604460D464B465046494600F064FC46
:104F300002460B4626A1D1E9000100F05BFC0246C7
:104F40000B462046294600F055FC0B46024620A1A0
:104F5000D1E9000100F04EFC04460B46002E3FF75D
:104F6000EEAE03F10043EAE69C7500883CE4377E30
:104F7000182D4454FB21F93F075C143326A6913CBD
:104F800009F7FD0DE13D023F88B20175E0EF493FB1
:104F90003B8F68B52882A43F5544880E55C1C93F50
:104FA0007D6FEB0312D6D43F555555555555C53F2A
:104FB00082922EB1C5B8B33F59018D1B6C06E63FF6
:104FC000C88A599CE52A00404B2D8A1C273A034089
:104FD000182D4454FB21E93FFFFFEF3FFFFFDF3F68
:104FE0000000F03F0000E03F3233EF3F02460B4647
:104FF00000F0B8FD48A3D3E9002306460F4600F0B1
:10500000B1FD47A3D3E9002300F0F6FB32463B464F
:1050100000F0A8FD44A3D3E9002300F0EBFB3246E7
:105020003B4600F09FFD42A3D3E9002300F0E4FBE0
:1050300032463B4600F096FD3FA3D3E9002300F043
:10504000D9FB32463B4600F08DFD3DA3D3E900235A
:1050500000F0D2FB32463B4600F084FD3AA3D3E990
:105060000023804689463046394600F07BFD38A350
:10507000D3E9002300F0BEFB32463B4600F072FD50
:1050800035A3D3E9002300F0B7FB32463B4600F0DE
:1050900069FD33A3D3E9002300F0ACFB32463B4665
:1050A00000F060FD0022344B00F0A6FB02460B46E8
:1050B0004046494600F080FE22462B4600F052FD55
:1050C00022462B4600F098FB04460B462046194624
:1050D00007B0BDE8F08F5246DDE900015B4600F005
:1050E0006BFE42464B4600F03DFD42464B4600F00B
:1050F00083FB02460B4600F07FFB1BA3D3E9002392
:1051000000F078FB0B46024619A1D1E9000100F03E
:1051100071FB04460B4621E709F7FD0DE13D023F17
:1051200088B20175E0EF493F3B8F68B52882A43F04
:105130005544880E55C1C93F7D6FEB0312D6D43F4D
:10514000555555555555C53F82922EB1C5B8B33FFB
:1051500059018D1B6C06E63FC88A599CE52A004020
:105160004B2D8A1C273A0340075C143326A6913C3A
:10517000182D4454FB21F93F0000F03F00000000CF
:105180002DE9F84F5442144323F00048684E48EA92
:10519000D474B44284460F461FD84442044321F0DD
:1051A000004A4AEAD474B4428B4616D803F140440C
:1051B00004F5801414439E463DD09C1704F002046D
:1051C00044EAD1745AEA00010FD1022C50D0032CCA
:1051D0003CD145A1D1E9000105E0104619466246DF
:1051E0003B4600F009FBBDE8F88F58EA020126D0E3
:1051F000B0452DD0B24522D0AAEB08084FEA285876
:10520000B8F13C0F38DC002B3ADA18F13C0F37DAF2
:1052100000200021012C49D0022C3AD0002CE2D0F1
:1052200033A3D3E9002300F0E5FA33A3D3E9002345
:1052300000F0E0FAD7E7BDE8F84F00F03DB9BBF168
:10524000000F11DB2EA1D1E90001CCE73946CAE7F6
:10525000C2452FD0022C0BD0032CBAD0012C4FF01A
:10526000000031D00021BEE727A1D1E90001BAE753
:1052700021A1D1E90001B6E721A1D1E90001C9E7E7
:105280006046394600F098FD00F0A4FA00F014F9E9
:10529000C0E717A3D3E9002300F0ACFA02460B469F
:1052A00015A1D1E9000100F0A5FA9CE701F1004346
:1052B000194698E7022C12D0032C0CD0012C06D0F2
:1052C00013A1D1E900018EE74FF000418BE712A155
:1052D000D1E9000187E712A1D1E9000183E712A11A
:1052E000D1E900017FE700BF182D4454FB2109C01C
:1052F000075C143326A6A13C182D4454FB21094019
:10530000182D4454FB21F93F182D4454FB21F9BFBB
:10531000182D4454FB21E93F182D4454FB21E9BFCB
:10532000D221337F7CD902C0D221337F7CD9024085
:105330000000F07F5F4A2DE9F0418A430D460746A1
:1053400000F0948000290B460446064654DD0F15F4
:1053500000F0A780C3F31303A7F2FF3743F48013D1
:10536000F20FF80702EB43034FEA460503D5ED0FB2
:1053700005EB4303B50000261622B4464FF4001196
:105380007F100CEB010098424FEAD5744FEA4505B7
:1053900003DC1B1A00EB010C0E44013A04EB43033F
:1053A0004FEA5101EDD11046964620244FF00042BD
:1053B00009E052D05B00013C03EBD5734FEA520287
:1053C0004FEA450537D0634502EB0E01F1DD0029B8
:1053D00001EB020E0ADBE046A3EB0C03A94288BFF7
:1053E00003F1FF33C4466D1A1044E3E7BEF1000F2A
:1053F000F1DB0CF10108EFE721F00042024329D074
:10540000002945D10146CA0A153B4905002AFAD0B0
:1054100012F4801001D048E030465200D40200F16E
:105420000106F9D5C6F1200401FA06F6E1401F1A7B
:1054300041EA02038EE72B4324D14408731003F1A1
:105440007F53F20703F5001348BF44F0004403EB19
:10545000075127463846BDE8F081A942AAD800295D
:1054600001EB020EC2DB98460023BBE702460B4667
:1054700000F078FB3A462B4600F0BEF90746384666
:10548000BDE8F081411C16BF421C01365408D5E727
:10549000024600F0AFF902460B4600F08DFC0746CD
:1054A000D8E71A4621463B46B2E70E4620244FF085
:1054B000FF30BBE70000F07F2DE9F84FB84B21F03B
:1054C00000469E420D468A4604460EDDB54B9E427E
:1054D00000F3B08000F0AB80B34BB449B448BAF1EC
:1054E000000FC8BF1946BDE8F88FB24B9E4200F3CB
:1054F000B980A3F1DE739E4240F3A4804FF0FF3BDE
:1055000022462B462046294600F02CFB02460B463D
:105510008046894600F026FB89A3D3E9002306468E
:105520000F4600F01FFB88A3D3E9002300F064F9C5
:1055300032463B4600F016FB85A3D3E9002300F07A
:105540005BF932463B4600F00DFB83A3D3E9002311
:1055500000F052F932463B4600F004FB80A3D3E949
:10556000002300F049F932463B4600F0FBFA7EA3E7
:10557000D3E9002300F040F942464B4600F0F2FA2E
:105580007BA3D3E90023804689463046394600F0A4
:10559000E9FA79A3D3E9002300F02CF932463B461F
:1055A00000F0E0FA76A3D3E9002300F023F93246B5
:1055B0003B4600F0D7FA74A3D3E9002300F01AF9B0
:1055C00032463B4600F0CEFA71A3D3E9002300F047
:1055D00011F932463B4600F0C5FA02460B464046FA
:1055E000494600F009F922462B4600F0BBFABBF110
:1055F000FF3F02460B465CD06F4B4FEACB0B5B4440
:10560000D3E9002300F0F6F822462B4600F0F2F82A
:105610006A4E0246B3440B46DBE9000100F0EAF8AB
:10562000BAF1000F0CDA01F10041BDE8F88F002853
:105630003FF452AF224620462B46294600F0DCF8C4
:10564000BDE8F88F54A3D3E9002300F0D5F8002279
:105650005B4B00F017FD00283FF450AF2046294671
:10566000BDE8F88F00F0B6F8564B04469E420D4652
:1056700025DCA3F550239E424ADC02460B4600F08F
:10568000BBF800224E4B00F0B5F8002206460F464C
:105690004FF080432046294600F0AEF802460B4604
:1056A0003046394600F088FB4FF0000B04460D46AB
:1056B00026E72046294600F09DF8BDE8F88F424BCA
:1056C0009E421ADC0022414B00F094F8002206466C
:1056D0000F463E4B2046294600F044FA0022384B44
:1056E00000F08AF802460B463046394600F064FB6B
:1056F0004FF0020B04460D4602E702460B4600201F
:10570000334900F059FB4FF0030B04460D46F7E612
:1057100000222B4B00F06EF8002206460F46284B65
:105720002046294600F068F802460B4630463946C6
:1057300000F042FB4FF0010B04460D46E0E600BFCF
:1057400011DA22E33AAD903FEB0D76244B7BA93F73
:10575000513DD0A0660DB13F6E204CC5CD45B73F41
:10576000FF8300922449C23F0D5555555555D53FED
:105770002F6C6A2C44B4A2BF9AFDDE522DDEAD3FE1
:105780006D9A74AFF2B0B33F711623FEC671BC3F81
:10579000C4EB98999999C93F9C7500883CE4377E81
:1057A000FFFF0F440000F07FFB21F93FFB21F9BF11
:1057B000182D4454FFFFDB3FA06C0008806C0008EC
:1057C0000000F03FFFFFF23FFF7F03400000F83F83
:1057D0000000F0BF21F000431946704700207047D9
:1057E00000200149704700BF0000F87F81F00041B0
:1057F00002E000BF83F0004330B54FEA41044FEAB6
:10580000430594EA050F08BF90EA020F1FBF54EA50
:10581000000C55EA020C7FEA645C7FEA655C00F0EC
:10582000E2804FEA5454D4EB5555B8BF6D420CDDBD
:105830002C4480EA020281EA030382EA000083EA40
:10584000010180EA020281EA0303362D88BF30BDE0
:1058500011F0004F4FEA01314FF4801C4CEA113136
:1058600002D0404261EB410113F0004F4FEA033395
:105870004CEA133302D0524263EB430394EA050F20
:1058800000F0A780A4F10104D5F1200E0DDB02FA8F
:105890000EFC22FA05F2801841F1000103FA0EF223
:1058A000801843FA05F359410EE0A5F120050EF1E9
:1058B000200E012A03FA0EFC28BF4CF0020C43FA1A
:1058C00005F3C01851EBE37101F0004507D54FF027
:1058D000000EDCF1000C7EEB00006EEB0101B1F577
:1058E000801F1BD3B1F5001F0CD349085FEA3000BD
:1058F0004FEA3C0C04F101044FEA445212F5800FC8
:1059000080F09A80BCF1004F08BF5FEA500C50F164
:10591000000041EB045141EA050130BD5FEA4C0C47
:10592000404141EB010111F4801FA4F10104E9D1D0
:1059300091F0000F04BF01460020B1FA81F308BFC7
:105940002033A3F10B03B3F120020CDA0C3208DD93
:1059500002F1140CC2F10C0201FA0CF021FA02F16E
:105960000CE002F11402D8BFC2F1200C01FA02F1DE
:1059700020FA0CFCDCBF41EA0C019040E41AA2BF03
:1059800001EB0451294330BD6FEA04041F3C1CDACB
:105990000C340EDC04F11404C4F1200220FA04F0EB
:1059A00001FA02F340EA030021FA04F345EA030195
:1059B00030BDC4F10C04C4F1200220FA02F001FA57
:1059C00004F340EA0300294630BD21FA04F02946D9
:1059D00030BD94F0000F83F4801306BF81F4801172
:1059E0000134013D4EE77FEA645C18BF7FEA655CE5
:1059F00029D094EA050F08BF90EA020F05D054EAB7
:105A0000000C04BF1946104630BD91EA030F1EBFBB
:105A10000021002030BD5FEA545C05D140004941BF
:105A200028BF41F0004130BD14F580043CBF01F5B2
:105A3000801130BD01F0004545F0FE4141F4700198
:105A40004FF0000030BD7FEA645C1ABF1946104673
:105A50007FEA655C1CBF0B46024650EA013406BF74
:105A600052EA033591EA030F41F4002130BD00BF33
:105A700090F0000F04BF0021704730B54FF48064F0
:105A800004F132044FF000054FF0000150E700BF71
:105A900090F0000F04BF0021704730B54FF48064D0
:105AA00004F1320410F0004548BF40424FF00001BD
:105AB0003EE700BF42004FEAE2014FEA31014FEA00
:105AC00002701FBF12F07F4393F07F4F81F060514F
