:020000040800F2
:100000000050002021020008270200082B020008EF
:100010009D020008A1020008E9020008000000009B
:100020000000000000000000000000003103000894
:100030003503000800000000390300083D030008F4
:100040004D0300084D0300084D0300084D03000850
:100050004D0300084D0300084D0300084D03000840
:100060004D0300084D0300084D0300084D03000830
:100070004D0300084D0300084D0300084D03000820
:100080004D0300084D0300084D0300084D03000810
:100090004D0300084D0300084D0300084D03000800
:1000A0004D0300084D0300084D0300084D030008F0
:1000B0004D0300084D0300084D0300084D030008E0
:1000C0004D0300084D0300084D0300084D030008D0
:1000D0004D0300084D0300084D0300084D030008C0
:1000E0004D0300084D0300084D0300080000000008
:1000F0000000000000000000000000000000000000
:1001000000000000000000005FF808F100B583B0B7
:1001100000F0F2FD304B314A1360314A1360314B2D
:10012000314A32498B4204D21168196004330432D7
:10013000F7E72A4B1A682E4B9A4200D0FEE7284B6D
:100140001A682C4B9A42F9D1234B2B4A13602B4A45
:1001500013602B4B02E000221A600433294A9342B9
:10016000F9D3254B1B6813B9244B1B6803B1FEE779
:1001700000F0CEFD694601A800F050FD224C234B53
:10018000E41AA4100025AC4214DC214C214BE41AE3
:10019000A4100025AC4213DC0099019801F03CF951
:1001A00005461D4C1D4BE41AA410002C0EDC2846FD
:1001B00000F006FD154B53F8253098470135E2E76E
:1001C000144B53F8253098470135E3E7013C134BB6
:1001D00053F824309847E8E7BABADECA0000002096
:1001E00098000020000000205C2500089C000020F2
:1001F00078563412325476989C0000203801002042
:100200009C0000203C0100207803000878030008CF
:1002100078030008780300087803000878030008D2
:1002200008B5FFF773FF00BEFEE71EF0040F0CBF1A
:10023000EFF30880EFF309807146414A10472DE93A
:10024000F04182B004468846124B5E6B9F6B9D6AFC
:100250001B6B13F0020F03D00E4BDB6A002B0CDB81
:100260000D4800F0EDFCCDF800803B4632462946B3
:10027000204600F051FD00BEFEE74BF6AB6100F0FA
:10028000C5FD0028ECD0034B4FF00042DA6202B00B
:10029000BDE8F08100ED00E06C24000800BEFEE740
:1002A0001EF0040F0CBFEFF30880EFF309807146D6
:1002B000244A10472DE9F04182B004468846084B95
:1002C0005E6B9F6B9D6A074800F0BAFCCDF800801A
:1002D0003B4632462946204600F01EFD00BEFEE7A2
:1002E00000ED00E07C2400081EF0040F0CBFEFF3CB
:1002F0000880EFF309807146134A10472DE9F04159
:1003000082B004468846084B5E6B9F6B9D6A074827
:1003100000F096FCCDF800803B4632462946204648
:1003200000F0FAFC00BEFEE700ED00E088240008C3
:1003300000BEFEE700BEFEE700BEFEE7704700001D
:100340003F020008B5020008FD02000800BEFEE7FB
:100350005C250008000000209C0000205C250008AF
:1003600000000000000000009C0000203C01002074
:08037000000000000000000085
:10037800F8B505460C46494B98421BD003F58063F7
:10038800984217D003F58063984213D003F5806331
:1003980098420FD003F5806398420BD003F5806331
:1003A800984207D003F58063984203D0B2213C48B5
:1003B80000F038FCE3786BB1042B0BD0282B09D064
:1003C800482B07D0142B05D0102B03D01C2B01D0A1
:1003D800182B14D12388BBB1E37803F00F063046FD
:1003E80013F0100F06D0A378013BDBB2022B10D814
:1003F800A078304323785BB32E68002310E0B32144
:10040800274800F00FFCE5E7B421254800F00AFC76
:10041800E2E7BB21224800F005FCE9E76A61013305
:10042800072B14D801229A40218832EA0101F6D11B
:1004380099000F278F4026EA070600FA01F10E43BC
:10044800E1782829EAD04829E9D12A61E7E72E602E
:100458002388FF2B20D96E68002303E06A6116E029
:100468002A610133072B16D803F1080101228A40BB
:10047800218832EA0101F4D199000F278F4026EA3A
:10048800070600FA01F10E43E1782829E6D0E17861
:100498004829E6D1E4E76E60F8BD00BF00080140D6
:1004A8007C22000838B504460D46144B98421CD0EF
:1004B80003F58063984218D003F58063984214D0FE
:1004C80003F58063984210D003F5806398420CD0FE
:1004D80003F58063984208D003F58063984204D0FE
:1004E80040F27911064800F09DFB0DB1656138BDF9
:1004F8004FF4BD71024800F095FBF7E70008014092
:100508007C220008F0B587B004460D46554B98424A
:1005180007D003F58063984203D0C621524800F003
:1005280081FB2B68013B514A934257D8AB881BB1DA
:10053800022B01D00A2B56D1EB88B3F5804F03D09C
:100548004BF6FF72934253D12B89B3F5806F54D287
:100558006B89B3F5806F01D0002B53D1AB89B3F50C
:10056800804F02D0B3F5404F51D1A688B6B226F0DD
:100578003F06B6B201A800F071FA03983C4AA2FB04
:100588000032920C97B23E43A680218889B221F0AE
:10059800010189B221802B6836498B423CD85B0027
:1005A800B0FBF3F39BB2032B00D804230137278455
:1005B800A383238843F00103238023889BB223F479
:1005C800816323F00203AA8869890A4313432380BD
:1005D800AB892A891343238107B0F0BDC72122487C
:1005E80000F020FBA2E7C8211F4800F01BFBA3E78F
:1005F800C9211D4800F016FBA6E7CA211A4800F0D9
:1006080011FBA5E7CB21184800F00CFBA6E7CC218D
:10061800154800F007FBA8E7EE884BF6FF718E42FD
:100628001AD003EB830303EB8303B0FBF3F39BB212
:1006380043F48043C3F30B0109B943F0010343F4C6
:1006480000434FF4967102FB01F20B4981FB021241
:10065800921101322284ABE703EB4303B0FBF3F3BF
:100668009BB2E7E700540040B02200087F1A06005A
:1006780083DE1B43A0860100D34D621041F288330C
:100688000360002383804BF6FF72C280038143819D
:100698004FF480438381704738B504460D46104BAC
:1006A800984208D003F58063984204D04FF4A971AA
:1006B8000C4800F0B7FA012D07D865B923889BB21A
:1006C80023F001039BB2238038BD40F25311054843
:1006D80000F0A8FAF1E7238843F001032380F3E749
:1006E80000540040B022000838B504460D46104BAF
:1006F800984208D003F58063984204D04FF4CD7136
:100708000C4800F08FFA012D07D865B923889BB2F1
:1007180023F480739BB2238038BD40F29B110548B7
:1007280000F080FAF1E7238843F480732380F3E72D
:1007380000540040B022000838B504460D46104B5E
:10074800984208D003F58063984204D04FF4D971D9
:100758000C4800F067FA012D07D865B923889BB2C9
:1007680023F400739BB2238038BD40F2B3110548CF
:1007780000F058FAF1E7238843F400732380F3E785
:1007880000540040B022000838B504460D46104B0E
:10079800984208D003F58063984204D04FF4E5717D
:1007A8000C4800F03FFA012D07D865B923889BB2A1
:1007B80023F480639BB2238038BD40F2CB110548F7
:1007C80000F030FAF1E7238843F480632380F3E7ED
:1007D80000540040B022000838B505460C46074BC7
:1007E800984208D003F58063984204D040F255211E
:1007F800034800F017FAA4B22C8238BD0054004018
:10080800B022000810B50446074B984208D003F5FB
:100818008063984204D040F26221044800F002FA52
:10082800208AC0B210BD00BF00540040B0220008AA
:1008380070B505460C4616460E4B984208D003F58F
:100848008063984204D04FF41D710B4800F0EAF918
:10085800012E05D856B904F0FE04A4B22C8270BD4E
:1008680040F27521044800F0DDF9F3E744F0010493
:10087800F3E700BF00540040B022000838B5054631
:100888000C462E4B984208D003F58063984204D05A
:100898004FF487612A4800F0C5F92A4B9C4240D0A2
:1008A800B4F1021F3DD0284B9C423AD0B4F5020F58
:1008B80037D0B4F5901F34D0244B9C4231D003F587
:1008C80000039C422DD0A3F5E0039C4229D0204B85
:1008D8009C4226D003F500039C4222D0A3F5E003F6
:1008E8009C421ED0102C1CD01A4B9C4219D01A4B7B
:1008F8009C4216D0194B9C4213D03E339C4210D0D8
:10090800174B9C420DD0043B9C420AD0154B9C428D
:1009180007D0B4F5806F04D040F23941084800F0A0
:1009280081F9AB8A2A8B43EA024323F07F4334EAF6
:10093800030301D0002038BD0120FCE7005400402B
:10094800B0220008820006008000860040000200F5
:100958008400060001000300820007000200030073
:10096800840007000800030030B583B005460C4634
:10097800002301930093364B984208D003F5806317
:10098800984204D040F29E41324800F04BF9B4F549
:10099800000F45D0B4F5800F42D0B4F5001F3FD00A
:1009A800B4F5801F3CD0B4F5802F39D0B4F5003FA2
:1009B80036D0B4F5803F33D0274B9C4230D0A3F5D6
:1009C80080439C422CD0B4F1102F29D0A3F560535A
:1009D8009C4225D0A3F580639C4221D0A3F50073E7
:1009E8009C421DD0A3F580739C4219D0803B9C4249
:1009F80016D0403B9C4213D0303B9C4210D0083B61
:100A08009C420DD0043B9C420AD0023B9C4207D03A
:100A1800013B9C4204D040F29F410E4800F002F98D
:100A28000095230F019324F07F44019B4BB1009B59
:100A380014330093009B1B68234207D1002003B0A6
:100A480030BD240C009B18330093F3E70120F6E730
:100A580000540040B02200080080001010B4294B58
:100A68005B6803F00C03042B2BD0082B2CD013B19C
:100A7800254B036001E0244B036022494B68C3F314
:100A88000313224CE35CDAB20368D34043604A683C
:100A9800C2F30222A25CD2B223FA02F282604A684E
:100AA800C2F3C222A25CD2B2D340C3604A68C2F386
:100AB800813217498A5CD2B2B3FBF2F3036110BCEE
:100AC8007047144B0360D8E70E4A53685268C3F363
:100AD8008343023312F4803F09D00A4A526812F461
:100AE800003F09D00C4A02FB03F30360C5E70B4A39
:100AF80002FB03F30360C0E7064A02FB03F303604B
:100B0800BBE700BF0010024000127A000800002076
:100B18000400002000A24A040051250200093D00FB
:100B280038B504460D460E4B034003B920B940F2D0
:100B38004A410C4800F076F8012D06D85DB90A4AFA
:100B4800936923EA0404946138BD40F24B41054897
:100B580000F068F8F2E7044A93691C439461F3E7EC
:100B68000200C0FFE02200080010024038B5044629
:100B78000D460E4B184200D120B940F269410C488D
:100B880000F050F8012D06D85DB90A4AD36923EA66
:100B98000404D46138BD40F26A41054800F042F8C7
:100BA800F2E7044AD3691C43D461F3E700360181B4
:100BB800E022000800100240FEE7000008B50348E4
:100BC80000F052F80120FFF7F7FF00BF10230008DC
:100BD80008B503460C4A12685AB10B4A1068033329
:100BE80023F003030344094A934206D8064A1360D4
:100BF80008BD054A06491160EFE700F0AFFE0C2377
:100C080003604FF0FF30F3E7A0000020004C002005
:100C18003C01002001230360014B0B60704700BFBB
:100C28001800002008B50A460146024800F004F8FA
:100C3800FFF7C4FF242300080FB400B583B004AB4A
:100C480053F8042B01938021064800F015FF002873
:100C580003DD0146034800F047F803B05DF804EBF4
:100C680004B07047A800002010B5044600F0D0FE7C
:100C78000146204600F038F80121024800F034F817
:100C880010BD00BFE82300082DE9F04385B00446F5
:100C98000F4643560BB10E461EE004252846214652
:100CA800ABBE0446384605B0BDE8F08314F9011B15
:100CB80004AA1A4402F8101C0133AB42F6D304AA62
:100CC8001344002203F8102C4FF00408E94640466C
:100CD8004946ABBE8046761B002EE3D03546102E23
:100CE80028BF10250023E8E708B5FFF7CDFF08BDAA
:100CF80008B500F0FDF8024A024B9A6008BD00BF33
:100D08000000000800ED00E008B500F019F908BD82
:100D1800F8B504460D4617461E462748FFF78CFFD0
:100D280021682648FFF788FF61682548FFF784FF98
:100D3800A1682448FFF780FFE1682348FFF77CFF9C
:100D480021692248FFF778FF61692148FFF774FF9E
:100D5800A1692048FFF770FFE1691F48FFF76CFFA2
:100D68001E48FFF769FF29461D48FFF765FF1D4C20
:100D7800E16A1D48FFF760FF216B1C48FFF75CFF25
:100D8800E16B1B48FFF758FF15F0800F0AD115F4E7
:100D9800004F0CD11748FFF74FFF06991648FFF789
:100DA8004BFFF8BD39461548FFF746FFEFE73146D8
:100DB8001348FFF741FFEDE75023000860230008C0
:100DC800702300088023000890230008A02300084F
:100DD800B0230008C0230008D0230008E02300083F
:100DE800EC23000800ED00E0FC2300080C240008B8
:100DF8001C2400084C240008542400082C24000853
:100E08003C24000883691A888A4201D00020704770
:100E18000268033A012A03D802338361012070472C
:100E28000020704782B00023019300932C4A136876
:100E380043F4803313602A4B1B6803F40033009398
:100E4800019B01330193009B1BB9019BB3F5A06F74
:100E5800F1D1234B1B6813F4003F06D00123009304
:100E6800009B012B04D002B0704700230093F7E7E2
:100E78001C4B1A6842F010021A601A6822F003022A
:100E88001A601A6842F002021A60A3F580535A6881
:100E98005A605A685A605A6842F480625A605A68BE
:100EA80022F47C125A605A6842F4E8125A601A68AE
:100EB80042F080721A600A4B1B6813F0007FFAD068
:100EC800074B5A6822F003025A605A6842F002023D
:100ED8005A60034B5B6803F00C03082BF9D1C2E797
:100EE800001002400020024008B5FFF79BFF08BD34
:100EF80008B5104B1A6842F001021A6059680E4A88
:100F08000A405A601A6822F0847222F480321A6009
:100F18001A6822F480221A605A6822F4FE025A6083
:100F28004FF41F029A60FFF7DFFF044B4FF0006297
:100F38009A6008BD001002400000FFF800ED00E0D4
:100F48001F4B5B6803F00C03042B15D0082B17D03C
:100F58001BB11C4B1C4A1A6002E01A4B1A4A1A6051
:100F6800174B5B68C3F30313184AD35CDAB215490D
:100F78000B68D3400B607047124B154A1A60EFE7B5
:100F88000F4A53685268C3F38343023312F4803F15
:100F98000AD00B4A526812F4003F0BD00D4A02FBEC
:100FA80003F3084A1360DBE70B4A02FB03F3054A25
:100FB8001360D5E7064A02FB03F3024A1360CFE742
:100FC800001002403000002000127A0020000020AB
:100FD80000A24A040051250200093D0010B5134C37
:100FE80020606B222121043000F0E0F920686B2298
:100FF8004021043000F0F2F920681B22032104305C
:1010080000F0D4F920681B220021043000F0CEF94A
:1010180020681C220021043000F0C8F920686C22E6
:101028000021043000F0C2F910BD00BF34010020D7
:1010380030B583B0002502A901F8015D0A4C20688B
:101048003B22043000F046F902A901F8025D20684D
:101058003C22043000F03EF99DF807009DF8063068
:1010680043EA002003B030BD3401002030B583B01E
:10107800002502A901F8015D0A4C20683D220430D0
:1010880000F028F902A901F8025D20683E22043028
:1010980000F020F99DF807009DF8063043EA00208B
:1010A80003B030BD3401002030B583B0002502A95B
:1010B80001F8015D0A4C20683F22043000F00AF96B
:1010C80002A901F8025D20684022043000F002F90C
:1010D8009DF807009DF8063043EA002003B030BDB4
:1010E8003401002030B583B0002502A901F8015D64
:1010F8000A4C20684322043000F0ECF802A901F8F9
:10110800025D20684422043000F0E4F89DF80700EE
:101118009DF8063043EA002003B030BD34010020BA
:1011280030B583B0002502A901F8015D0A4C20689A
:101138004522043000F0CEF802A901F8025D2068CB
:101148004622043000F0C6F89DF807009DF80630E6
:1011580043EA002003B030BD3401002030B583B02D
:10116800002502A901F8015D0A4C206847220430D5
:1011780000F0B0F802A901F8025D206848220430A6
:1011880000F0A8F89DF807009DF8063043EA002013
:1011980003B030BD3401002030B583B0002502A96A
:1011A80001F8015D0A4C20684122043000F092F8F1
:1011B80002A901F8025D20684222043000F08AF892
:1011C8009DF807009DF8063043EA002003B030BDC3
:1011D8003401002010B582B002A9002301F8013DB6
:1011E800084C20687522043000F074F823681B79D5
:1011F8009DF80720B3EB420F02D0002002B010BDCB
:101208000120FBE73401002010B586B00121082039
:10121800FFF786FC1C238DF8173002238DF8163053
:1012280006A9C02321F8043D0B48FFF7A1F80121C6
:101238004FF40010FFF79AFC01A8FFF71FFA074BBD
:101248000193074C01A92046FFF75CF901212046CC
:10125800FFF722FA06B010BD000C0140A08601007D
:101268000054004070B504460D46164601214068FA
:10127800FFF73AFA14496068FFF700FB0028F9D035
:10128800002221786068FFF7D3FA10496068FFF7F9
:10129800F5FA0028F9D031466068FFF79DFA0C4945
:1012A8006068FFF7EBFA0028F9D029786068FFF743
:1012B80093FA07496068FFF7E1FA0028F9D001219D
:1012C8006068FFF739FA70BD01000300820007006B
:1012D8008400070070B504460D4616464FF40031E9
:1012E8006068FFF741FB0028F8D101216068FFF72B
:1012F800FBF928496068FFF7C1FA0028F9D00022F5
:1013080021786068FFF794FA23496068FFF7B6FA16
:101318000028F9D001216068FFF7BEF931466068FE
:10132800FFF75AFA1D496068FFF7A8FA0028F9D0B4
:1013380001216068FFF7D8F916496068FFF79EFA3F
:101348000028F9D0012221786068FFF771FA144962
:101358006068FFF793FA0028F9D000216068FFF76A
:1013680013FA01216068FFF7E7F90E496068FFF793
:1013780085FA0028F9D06068FFF744FA28700A490E
:101388006068FFF7F1FA0028F9D101216068FFF7DA
:10139800FBF970BD0100030082000700840007000C
:1013A800020003004000030010000010F0B583B0F5
:1013B80006460D46174602AC002304F8013D2146B7
:1013C800FFF788FF9DF807301D438DF807503A4610
:1013D80021463046FFF746FF03B0F0BDF0B583B0B5
:1013E80005460F46164602AC002304F8013D214687
:1013F800FFF770FF9DF8071021EA07018DF8071025
:10140800324621462846FFF72DFF03B0F0BD000005
:1014180070B590B001210420FFF782FB4E48FFF71A
:1014280023FC10238DF83F3003238DF83E304FF610
:10143800FF7610AC24F8046D4848FFF715FC484DBA
:1014480021462846FEF794FF4648FFF70DFC314633
:101458002846FFF727F84448FFF706FC2046FFF721
:10146800D3FE424B0E93D0238DF834300BAB0DAA2C
:1014780092E8030083E8030018238DF82A3001223C
:101488008DF828208DF829300AA8FFF7A7FD3848DD
:10149800FFF7EAFBFFF79EFEFFF77EFE00B2354B33
:1014A80083FB0023C017C0EBE31000B200F0C4F9BF
:1014B80027A3D3E9002300F073F800F027FA03B25A
:1014C8002D4A0A21684600F04FFA6846FFF7CCFB20
:1014D800FFF7AEFD03B2294A0A21684600F044FA34
:1014E8006846FFF7C1FBFFF7C1FD02B22449684611
:1014F80000F06EFA6846FFF7B7FBFFF7D5FD02B2BA
:101508002049684600F064FA6846FFF7ADFBFFF72C
:10151800E9FD02461C49684600F05AFA6846FFF79A
:10152800A3FBFFF7FDFD02461849684600F050FA94
:101538006846FFF799FBFFF711FE02461449684613
:1015480000F046FA6846FFF78FFBA5E7AFF3008087
:10155800A4703D0AD743424098240008A8240008F4
:1015680000080140B8240008C424000800540040C2
:10157800D024000861606060E4240008EC240008BE
:10158800F4240008FC24000804250008102500089D
:101598001C25000881F0004102E000BF83F00043F1
:1015A80030B54FEA41044FEA430594EA050F08BFF6
:1015B80090EA020F1FBF54EA000C55EA020C7FEABA
:1015C800645C7FEA655C00F0E2804FEA5454D4EB37
:1015D8005555B8BF6D420CDD2C4480EA020281EA01
:1015E800030382EA000083EA010180EA020281EA39
:1015F8000303362D88BF30BD11F0004F4FEA01318B
:101608004FF4801C4CEA113102D0404261EB410199
:1016180013F0004F4FEA03334CEA133302D052421F
:1016280063EB430394EA050F00F0A780A4F10104DB
:10163800D5F1200E0DDB02FA0EFC22FA05F2801815
:1016480041F1000103FA0EF2801843FA05F35941FB
:101658000EE0A5F120050EF1200E012A03FA0EFC7A
:1016680028BF4CF0020C43FA05F3C01851EBE371A4
:1016780001F0004507D54FF0000EDCF1000C7EEBC1
:1016880000006EEB0101B1F5801F1BD3B1F5001FFF
:101698000CD349085FEA30004FEA3C0C04F101041E
:1016A8004FEA445212F5800F80F09A80BCF1004F47
:1016B80008BF5FEA500C50F1000041EB045141EAC9
:1016C800050130BD5FEA4C0C404141EB010111F4CA
:1016D800801FA4F10104E9D191F0000F04BF014675
:1016E8000020B1FA81F308BF2033A3F10B03B3F153
:1016F80020020CDA0C3208DD02F1140CC2F10C02E3
:1017080001FA0CF021FA02F10CE002F11402D8BF40
:10171800C2F1200C01FA02F120FA0CFCDCBF41EA0C
:101728000C019040E41AA2BF01EB0451294330BDDB
:101738006FEA04041F3C1CDA0C340EDC04F11404B8
:10174800C4F1200220FA04F001FA02F340EA03008F
:1017580021FA04F345EA030130BDC4F10C04C4F1D5
:10176800200220FA02F001FA04F340EA03002946B5
:1017780030BD21FA04F0294630BD94F0000F83F4FF
:10178800801306BF81F480110134013D4EE77FEAE2
:10179800645C18BF7FEA655C29D094EA050F08BF2E
:1017A80090EA020F05D054EA000C04BF194610460F
:1017B80030BD91EA030F1EBF0021002030BD5FEA53
:1017C800545C05D14000494128BF41F0004130BD7B
:1017D80014F580043CBF01F5801130BD01F00045CF
:1017E80045F0FE4141F470014FF0000030BD7FEA42
:1017F800645C1ABF194610467FEA655C1CBF0B463D
:10180800024650EA013406BF52EA033591EA030F53
:1018180041F4002130BD00BF90F0000F04BF00214B
:10182800704730B54FF4806404F132044FF000057E
:101838004FF0000150E700BF90F0000F04BF0021F7
:10184800704730B54FF4806404F1320410F000455D
:1018580048BF40424FF000013EE700BF42004FEA58
:10186800E2014FEA31014FEA02701FBF12F07F43D5
:1018780093F07F4F81F06051704732F07F4208BF8C
:10188800704793F07F4F04BF41F40021704730B593
:101898004FF4607401F0004521F000411CE700BFDF
:1018A80050EA010208BF704730B54FF000050AE062
:1018B80050EA010208BF704730B511F0004502D563
:1018C800404261EB41014FF4806404F132045FEA65
:1018D800915C3FF4D8AE4FF003025FEADC0C18BF0E
:1018E80003325FEADC0C18BF033202EBDC02C2F100
:1018F800200300FA03FC20FA02F001FA03FE40EA92
:101908000E0021FA02F11444BDE600BF4FEA41027D
:1019180012F5001215D211D56FF47873B3EB625239
:1019280012D94FEAC12343F0004343EA505311F060
:10193800004F23FA02F018BF404270474FF00000F2
:10194800704750EA013005D111F0004008BF6FF030
:10195800004070474FF00000704700BF014B186807
:10196800704700BF340000200CB430B5174B0C1E74
:101978009DB01D6808DA8B234FF0FF302B601DB037
:10198800BDE8304002B070474FF40273ADF8143030
:101998000CBF234604F1FF33049307934FF6FF73FC
:1019A80002900690ADF81630209A21AB02A928467D
:1019B800019300F0C9F8431CBCBF8B232B60002C9B
:1019C800DDD00022029B1A70D9E700BF3400002046
:1019D8000EB46FF0004100B59CB01DAB02900690AC
:1019E800079104910848094953F8042B05910068A8
:1019F80002A9019300F0A8F80022029B1A701CB0FB
:101A08005DF804EB03B07047340000200802FFFFC4
:101A1800034613F8012B002AFBD1181A0138704726
:101A280030B5141E05469BB0184605DA8B234FF0D7
:101A3800FF302B601BB030BD4FF40273ADF80C3093
:101A48000CBF234604F1FF33029305934FF6FF734F
:101A580000910491ADF80E3002461E9B6946284657
:101A680000F072F8431CBCBF8B232B60002CE1D024
:101A78000022009B1A70DDE707B5009313460A465B
:101A8800014603480068FFF7CBFF03B05DF804FB8D
:101A9800340000202DE9F0478E6882469E420C46AD
:101AA8009046994637D88A8912F4906F31D002232C
:101AB800256809696F1A656905EB450595FBF3F516
:101AC80009F101033B449D4238BF1D46530530D5FB
:101AD800294600F035FB064650B90C234FF0FF307D
:101AE800CAF80030A38943F04003A381BDE8F0871A
:101AF8003A46216900F0B4FAA38923F4906343F0CD
:101B08008003A38126613E4426604E466561ED1B35
:101B1800A5604E4500D94E4632464146206800F041
:101B2800AAFAA36800209B1BA36023681E442660B2
:101B3800DCE72A4600F05EFB06460028E2D1216970
:101B4800504600F0B1FAC8E72DE9F04F9DB0039375
:101B58008B8980461D060C4616460FD50B696BB956
:101B6800402100F0EDFA2060206128B90C23C8F864
:101B780000304FF0FF30C7E0402363610023099332
:101B880020238DF8293030234FF0010B8DF82A30AF
:101B980037463D4615F8013B0BB1252B3ED1B7EB37
:101BA800060A0BD05346324621464046FFF772FFDD
:101BB800013000F0A480099B534409933B78002B23
:101BC80000F09D8000234FF0FF32CDE905230493F8
:101BD80007938DF853301A932F46052217F8011BE7
:101BE8004F4800F02FFA049BD0B9D90644BF2022F1
:101BF8008DF853201A0744BF2B228DF853202A78DA
:101C08002A2A15D02F4600200A25079A394611F8A6
:101C1800013B303B092B4DD9B8B10FE02F46B8E74F
:101C28003F4A3D46801A0BFA00F018430490D3E768
:101C3800039A111D12680391002A01DB079204E040
:101C4800524243F00203079204933B782E2B0CD1A7
:101C58007B782A2B33D1039B02371A1D1B6803920A
:101C6800002BB8BF4FF0FF3305932E4D0322397870
:101C7800284600F0E7F938B14023401B03FA00F08A
:101C8800049B0137034304933978062226487E1CB7
:101C98008DF8281000F0D6F9002838D0234B13BB54
:101CA800039B073323F0070308330393099B4B4433
:101CB80009936DE705FB023201200F46A6E70023D2
:101CC8000A25194601370593384610F8012B303A92
:101CD800092A03D9002BC8D00591C6E705FB0121C5
:101CE80001230746F0E703AB00932246104B04A9F3
:101CF8004046AFF30080B0F1FF3F8146D6D1A389BB
:101D08005B063FF536AF09981DB0BDE8F08F03AB11
:101D180000932246064B04A9404600F081F8EAE702
:101D2800282500082E25000832250008000000009C
:101D38009D1A00082DE9F04791461F468A680B69ED
:101D480006469342B8BF1346C9F8003091F84320BD
:101D58000C46DDF8208012B10133C9F80030236841
:101D6800990642BFD9F800300233C9F80030256817
:101D780015F0060507D104F1190AE368D9F800201F
:101D88009B1AAB4229DC94F843302268003318BF11
:101D9800012392062ED404F1430239463046C04747
:101DA800013021D02368E56803F00603042B18BF2F
:101DB8000025D9F800204FF0000908BFAD1AA36824
:101DC800226908BF25EAE5759342C4BF9B1AED183E
:101DD8001A344D451AD1002008E0012352463946ED
:101DE8003046C047013003D14FF0FF30BDE8F087DF
:101DF8000135C2E73020E11881F843005A1C94F8F5
:101E080045102244023382F84310C4E701232246D6
:101E180039463046C0470130E6D009F10109D8E714
:101E28002DE9F04301F1430C0C46097E85B06E297B
:101E38001746064698460C9A00F0B38022D86329C4
:101E480036D00AD8002900F0B980582900F08380DC
:101E580004F1420584F8421032E0642901D069296E
:101E6800F6D120681368050603F104012AD51B681A
:101E78001160002B03DA2D225B4284F843206F485F
:101E88000A2239E0732900F09D8008D86F2920D0F4
:101E98007029DDD1236843F02003236003E075290E
:101EA80017D07829D4D17823654884F8453055E08F
:101EB800136804F14205191D1B68116084F842304B
:101EC80001238CE01B6810F0400F116018BF1BB293
:101ED800CFE713682568181D1060280601D51B6810
:101EE80002E06806FBD51B886F2914BF0A22082266
:101EF8005248002184F843106568002DA560C0F29F
:101F08009580216821F004012160002B3DD1002D2E
:101F180040F08E806546082A0BD12368DB0708D578
:101F2800236962689A42DEBF302305F8013C05F157
:101F3800FF35ACEB05032361CDF800803B4603AACF
:101F480021463046FFF7F6FE01304DD14FF0FF3005
:101F580005B0BDE8F083394884F845101368216856
:101F68001D1D1B6815600A060BD5CA0744BF41F042
:101F7800200121601BB9226822F020022260102271
:101F8800B7E74D0648BF9BB2EFE76546B3FBF2F1F2
:101F980002FB1133C35C05F8013D0B460029F5D15E
:101FA800B9E713682568181D6169106028061B6861
:101FB80001D5196002E06A06FBD519800023654641
:101FC8002361B9E71368191D11601D686268002153
:101FD800284600F037F808B1401B60606368236149
:101FE800002384F84330A7E723692A463946304658
:101FF800C0470130AAD023689B0713D4E068039B2D
:102008009842B8BF1846A3E701234A4639463046E6
:10201800C04701309AD00135E368039A9B1AAB4256
:10202800F2DCEBE7002504F11909F5E7002BACD148
:10203800037804F1420584F842306CE7392500083A
:102048004A25000810B5C9B202449042034601D19E
:10205800002303E01C7801308C42F6D1184610BDED
:1020680010B5431E0A44914200D110BD11F8014B2E
:1020780003F8014FF7E7884210B501EB020307D8D0
:10208800421E99420AD011F8014B02F8014FF8E7B5
:102098008342F5D98118D21AD34200D110BD13F862
:1020A800014D01F8014DF7E738B50546002943D041
:1020B80051F8043C0C1F002BB8BFE41800F0D0F80E
:1020C8001E4A1368104633B9636014602846BDE899
:1020D800384000F0C6B8A3420BD921686218934271
:1020E80001BF1A685B685218226063600460EDE7FC
:1020F80013465A680AB1A242FAD919685818A04278
:102108000BD120680144581882421960DED110684A
:102118005268014419605A60D8E702D90C232B6031
:10212800D4E7206821188A4201BF1168526809184B
:10213800216062605C60C9E738BD00BF28010020EB
:1021480070B5CD1C25F0030508350C2D38BF0C25BE
:10215800002D064601DBA94203D90C233360002079
:1021680070BD00F07DF8214A1468214691B9204CD1
:1021780023681BB9304600F063F8206029463046D2
:1021880000F05EF8431C24D10C233046336000F085
:1021980068F8E4E70B685B1B18D40B2B0FD90B60AE
:1021A800CC18CD50304600F05CF804F10B00231D2C
:1021B80020F00700C31AD3D05A42E250D0E74B6848
:1021C8008C4216BF636013600C46EBE70C46496807
:1021D800CCE7C41C24F00304A04205D0211A3046E1
:1021E80000F02EF80130CFD02560DBE72801002071
:1021F8002C010020F8B5074614460E4621B9BDE863
:10220800F8401146FFF79CBF22B9FFF74DFF25465E
:102218002846F8BD00F026F8A0420FD221463846DD
:10222800FFF78EFF05460028F2D031462246FFF719
:1022380017FF31463846FFF737FFE9E73546E7E746
:1022480038B50023054C054608462360FEF7C0FC58
:10225800431C02D1236803B12B6038BD3001002034
:102268007047704751F8043C181F002BBCBF0B582F
:10227800C01870472E2E2F73797374656D2F737283
:10228800632F73746D333266312D737464706572A5
:102298006970682F73746D3332663130785F677098
:1022A800696F2E63000000002E2E2F7379737465FA
:1022B8006D2F7372632F73746D333266312D73749F
:1022C800647065726970682F73746D33326631306B
:1022D800785F6932632E63002E2E2F7379737465CD
:1022E8006D2F7372632F73746D333266312D73746F
:1022F800647065726970682F73746D33326631303B
:10230800785F7263632E630061626F727428292C90
:102318002065786974696E672E2E2E006173736567
:1023280072745F706172616D2829206661696C65DD
:10233800643A2066696C6520222573222C206C691A
:102348006E652025640A0000537461636B20667211
:10235800616D653A0A000000205230203D2020259A
:102368003038580A00000000205231203D20202536
:102378003038580A00000000205232203D20202525
:102388003038580A00000000205233203D20202514
:102398003038580A0000000020523132203D2025F4
:1023A8003038580A00000000204C52203D202025DB
:1023B8003038580A00000000205043203D202025D6
:1023C8003038580A0000000020505352203D202584
:1023D8003038580A000000004653522F4641523AFE
:1023E8000A0000002043465352203D202025303863
:1023F800580A00002048465352203D2020253038F6
:10240800580A00002044465352203D2020253038E9
:10241800580A00002041465352203D2020253038DC
:10242800580A0000204D4D464152203D20253038A5
:10243800580A00002042464152203D2020253038CD
:10244800580A00004D6973630A000000204C522F9F
:102458004558435F52455455524E3D202530385813
:102468000A0000005B486172644661756C745D0A1D
:10247800000000005B4275734661756C745D0A006C
:102488005B55736167654661756C745D0A00000091
:102498007374616E64617264206F75747075740012
:1024A800737472756374207265616479000000004A
:1024B800696E69742072656164790000726573657C
:1024C8007420746F203000004D5055363035302060
:1024D800696E697469616C697A656400256920743C
:1024E800656D700025692061636358002569206166
:1024F800636359002569206163635A002569206771
:1025080079726F58000000002569206779726F5949
:10251800000000002569206779726F5A00000000EA
:10252800232D302B2000686C4C00656667454647B4
:102538000030313233343536373839414243444537
:1025480046003031323334353637383961626364A6
:03255800656600B5
:10255C00785634120204060800000000010203043D
:10256C000102030406070809A40000200000000073
:10257C000000000000000000010203040607080927
:10258C0000A24A04380000200000000000000000F7
:10259C00000000000000000000000000000000002F
:1025AC00000000000000000000000000000000001F
:1025BC00000000000000000000000000000000000F
:1025CC0000000000000000000000000000000000FF
:1025DC0000000000000000000000000000000000EF
:0C25EC000000000000000000325476984F
:040000050800010DE1
:00000001FF
