:020000040800F2
:1000000000500020211C0008ED200008EF2000080F
:10001000F1200008F3200008F5200008000000008F
:100020000000000000000000000000001124000893
:10003000F720000800000000B1240008F9200008A3
:10004000651C0008651C0008651C0008651C00088C
:10005000651C0008651C0008651C0008651C00087C
:10006000651C0008651C0008651C0008651C00086C
:10007000651C0008651C0008651C0008651C00085C
:10008000651C0008651C0008651C0008651C00084C
:10009000651C0008651C0008651C0008651C00083C
:1000A000651C000801210008651C0008651C00088B
:1000B000651C0008651C0008651C0008651C00081C
:1000C000651C0008651C0008651C0008651C00080C
:1000D000651C0008651C0008651C0008651C0008FC
:1000E000651C0008651C0008651C00080000000075
:1000F0000000000000000000000000000000000000
:0C01000000000000000000005FF808F1A3
:10010C00F82F00080000002008000020F82F00083D
:10011C00000000000000000008000020600E00201D
:08012C000000000000000000CB
:1001400008B5074A136843F010031360032000F05A
:10015000FDF9002001F08EFF01F0CEFE002008BD69
:1001600000200240024A136801331360704700BF49
:10017000540D0020014B1868704700BF540D00203B
:1001800030B583B005460C460023019303685C4AF2
:10019000934208D002F58062934204D040F2AC61F1
:1001A000584801F0A7FE2368112B3AD86368013B39
:1001B0000F2B3CD8A368072B3FD895F82430012B90
:1001C00000F09B80012385F824306368062B3AD821
:1001D0002868426B03EB8303053B1F21994022EA09
:1001E0000102216801FA03F3134343632368092BD7
:1001F00049D92868C26803EB43031E3B0721994095
:1002000022EA0102A16801FA03F31343C3602368E1
:10021000103B012B45D90020002385F8243003B082
:1002200030BD40F2AD61374801F064FEBEE740F2F8
:10023000AE61344801F05EFEBCE740F2AF61314888
:1002400001F058FEB9E70C2B0ED82868026B03EBBF
:100250008303233B1F21994022EA0102216801FA0E
:1002600003F313430363C1E72868C26A03EB830304
:10027000413B1F21994022EA0102216801FA03F360
:100280001343C362B2E72868026903EB4303072103
:10029000994022EA0102A16801FA03F313430361C2
:1002A000B5E72B68164A934205D0AB6A43F02003AA
:1002B000AB620120B0E79A6812F4000F1BD19A6874
:1002C00042F400029A602368102B01D00020A3E7BB
:1002D0000D4B1B680D4AA2FB03239B0C03EB83030E
:1002E0005A00019202E0019B013B0193019B002B0C
:1002F000F9D1002090E700208EE702208FE700BFB1
:1003000000240140CC2D00080000002083DE1B43A8
:1003100038B503689A6812F0010F01D1002038BD8A
:1003200004469A6822F001029A60FFF723FF05460F
:1003300023689B6813F0010F0ED0FFF71BFF401BD3
:100340000228F5D9A36A43F01003A362E36A43F0DD
:100350000103E3620120E2E70020E0E7002800F06B
:10036000EA8038B504460368744A934208D002F51F
:100370008062934204D04FF4C271714801F0BAFD1B
:10038000636813B1B3F5006F63D1A36813B1B3F51C
:10039000807F64D1E368012B67D8E3698BB1B3F543
:1003A000003F0ED0B3F5C02F0BD0B3F5002F08D00F
:1003B000B3F5202F05D0B3F5402F02D0B3F5602F51
:1003C00059D1A36863B12369013B0F2B59D86369E5
:1003D000012B5CD863691BB1A369013B072B5CD877
:1003E000A36A002B5FD02046FFF792FFA36A13F0A9
:1003F000100340F09A80002840F09780A26A22F40F
:10040000885222F0020242F00202A2626268E169AE
:100410000A43E56842EA4502A168B1F5807F4CD005
:10042000012947D0616901294AD02568696821F40A
:1004300069410B436B6021688D68424B2B4013432D
:100440008B60A368B3F5807F4BD0012B49D000218E
:100450004AE040F285113A4801F04CFD95E74FF42F
:10046000C371374801F046FD94E740F287113448E4
:1004700001F040FD91E74FF4C471314801F03AFDBD
:100480009FE74FF4C6712E4801F034FD9FE740F21C
:100490008D112B4801F02EFD9CE74FF4C8712848C0
:1004A00001F028FD9CE7E36284F82430204601F047
:1004B0006DFD98E74FF48073B4E74FF48073B1E7B4
:1004C00035B9A169013943EA413343F40063ACE72C
:1004D000A16A41F02001A162E16A41F00101E162FB
:1004E000A3E72369013B19052568EB6A23F4700330
:1004F0000B43EB6223689968134B0B409A420BD075
:10050000A36A23F0120343F01003A362E36A43F0EB
:100510000103E36201200DE00023E362A36A23F0FC
:10052000030343F00103A36204E0A36A43F0100352
:10053000A362012038BD0120704700BF00240140A4
:10054000CC2D0008FDF7E1FFFE0E1FFF10B504469D
:10055000C31E042B0FD80A4AD36823F4E0631B049C
:100560001B0C240204F4E064234343F0BF6343F410
:100570000033D36010BDA421024801F0BBFCEAE7C0
:1005800000ED00E0042E000870B505460C46164646
:100590000F2A25D80F2C28D81B4BDB68C3F3022366
:1005A000C3F10702042A28BF0422191D062921D9F4
:1005B000033B4FF0FF3101FA02F224EA02049C40AF
:1005C00001FA03F326EA03063443002D14DB240169
:1005D000E4B205F1604505F5614585F8004370BD5D
:1005E000BC210A4801F086FCD4E7BD21074801F090
:1005F00081FCD1E70023DCE705F00F052401E4B21C
:10060000034B5C55EBE700BF00ED00E0042E000853
:1006100014ED00E010B5041E08DB04F01F026409AD
:1006200001239340044A42F8243010BDD0210348EE
:1006300001F060FCF1E700BF00E100E0042E0008DB
:100640000138B0F1807F0AD2064B5860064AF0218B
:1006500082F823100020986007221A60704701205A
:10066000704700BF10E000E000ED00E010B5044668
:10067000042800D038B9042C0BD0094A136823F0A1
:100680000403136010BD40F2DB11064801F032FC98
:10069000F1E7034A136843F004031360F2E700BF75
:1006A00010E000E0042E00082DE9F04383B08046FE
:1006B0000F46B64B984213D003F5806398420FD093
:1006C00003F5806398420BD003F58063984207D00E
:1006D00003F58063984203D0CF21AD4801F00AFCB6
:1006E0003B689AB212B11B0C1B041BB1D021A84865
:1006F00001F000FC7B68012B1ED9112B1CD0022BB2
:100700001AD0122B18D0A34A934215D002F58012AA
:10071000934211D002F5801293420DD0A2F5F81247
:10072000934209D002F58012934205D002F580125F
:10073000934201D0032B03D14FF000094E46D8E07D
:10074000D121934801F0D6FBF6E7002B5ED0012BB8
:1007500005D1FB68013B022B65D8D7F80C90FF2C24
:1007600000F296804046FF2C00F29580B2000368AC
:100770000F21914023EA010309FA02F213430360B7
:100780007B6813F0805F00F0B380834B9A6942F07E
:1007900001029A619B6903F001030193019BB20876
:1007A000911C7E4B53F8210006F0030399000F23A0
:1007B0008B4020EA0300754B984572D003F58063A7
:1007C000984500F0CD8003F58063984500F0CA801D
:1007D00003F58063984562D0042363E0704A934236
:1007E00014D00BD96F4A934210D002F58032934255
:1007F0000CD0A2F580129342B1D107E0A2F580128D
:10080000934203D002F580329342A8D1BB68022BF9
:100810002DD8BB68002B38D0012B2ED0C8F814502F
:100820004FF008099BE7E721594801F063FB94E783
:10083000EE21574801F05EFB8EE0FB68013B022B86
:1008400003D8FB6803F1080989E7F521504801F056
:1008500051FBF6E7FB68013B022B03D8FB6803F171
:100860000C097CE7FC214A4801F044FBF6E740F222
:100870000911474801F03EFBCBE7C8F810504FF094
:1008800008096CE74FF0000969E74FF0040966E7D3
:1008900008F1040067E7A6F10802920067E7032366
:1008A00000E000238B40034302323C4941F82230F0
:1008B0007B6813F4803F57D03B4A1368234313608F
:1008C0007B6813F4003F55D0374A53682343536085
:1008D0007B6813F4801F53D0334A9368234393609B
:1008E0007B6813F4001F61D02F4AD3681C43D46087
:1008F00001360F2E60D80125B5403C682C40A5423A
:10090000F6D1224B984513D003F5806398450FD05C
:1009100003F5806398450BD003F58063984507D0B5
:1009200003F58063984503D0DF21194801F0E2FA0E
:100930007B68122B8ED03FF651AF022B3FF47DAF78
:100940007FF603AF032B9DD0112B7FF408AFFB681C
:10095000013B022B3FF66CAFFB6803F10409FEE696
:1009600001239FE702239DE70F4A136823EA04034C
:100970001360A5E70C4A536823EA04035360A7E712
:10098000094A936823EA04039360A9E70008014039
:10099000402E00080000111000100240000001402D
:1009A000000021100000311000040140044AD36807
:1009B00023EA0404D4609BE703B0BDE8F08300BFE2
:1009C0000004014070B5064615460C4629B1012DBC
:1009D00009D875B92404346170BD40F2E5110648A8
:1009E00001F088FAF3E74FF4F371034801F082FA5B
:1009F000EFE73461F0E700BF402E0008002800F068
:100A0000E78010B504460368724A934208D002F5A5
:100A10008062934204D040F27F116F4801F06AFA7D
:100A20006368013B6D4A934267D8A36813B1B3F57D
:100A3000804F68D1E36823F47F7323F00303002B16
:100A400067D12369B3F5804F02D0B3F5404F66D12B
:100A50006369012B69D8A36933F0FE036BD1E369A5
:100A60000BB1402B6DD1236A0BB1802B6FD194F861
:100A70003D30002B71D0242384F83D302268136868
:100A800023F00103136000F0BBFC554BA3FB0023D4
:100A90009B0C226853606168524A914263D80133CB
:100AA0002268136263684F4A934266D85B00B0FBCA
:100AB000F3F0C0F30B03032B00D804202368D861A4
:100AC000E369216A22680B4313602369E1682268A5
:100AD0000B4393606369A16922680B43D36022686A
:100AE000136843F00103136000202064202384F87E
:100AF0003D30206384F83E0010BD4FF4C07136488D
:100B000001F0F8F991E740F28111334801F0F2F970
:100B100090E74FF4C171304801F0ECF991E740F2F1
:100B200083112D4801F0E6F992E74FF4C2712A488B
:100B300001F0E0F98FE740F28511274801F0DAF97A
:100B40008DE74FF4C371244801F0D4F98BE740F2EC
:100B50008711214801F0CEF989E784F83C3020461E
:100B600001F036FA87E74FF4967202FB03F31E4A50
:100B7000A2FB03239B09013392E7A16889B903EB28
:100B80004302B0FBF2F2C2F30B02B2FA82F2520954
:100B9000E2B991B903EB4303B0FBF3F040F400403A
:100BA0008CE703EB830202EB8202B0FBF2F2C2F3AA
:100BB0000B02B2FA82F25209EAE703EB830303EB7A
:100BC0008303B0FBF3F040F4404077E7012075E782
:100BD0000120704700540040782E00087F1A06005C
:100BE00083DE1B43A0860100D34D621082B0084B08
:100BF0001B68084AA2FB03235B0A00FB03F0019079
:100C000000BF019B5A1E0192002BF9D102B0704720
:100C100000000020D34D621070B582B0044678B356
:100C2000236813B113F00F0F30D0236813F0010FB6
:100C300046D063682BB1B3F5803F02D0B3F5A02F47
:100C40002AD1AC4B5B6803F00C03042B2FD0A94BCB
:100C50005B6803F00C03082B24D06368B3F5803F76
:100C60005BD0002B6FD103F1804303F504331A6886
:100C700022F480321A601A6822F480221A6051E04D
:100C80004FF486719C4801F035F9C9E740F20D1127
:100C9000994801F02FF9C8E740F21311964801F086
:100CA00029F9CEE7934B5B6813F4803FD5D0914B85
:100CB0001B6813F4003F03D06368002B00F02D8203
:100CC000236813F0020F00F08A802369012B63D898
:100CD00063691F2B66D8874B5B6813F00C0F6CD0D1
:100CE000844B5B6803F00C03082B61D02369002B55
:100CF00000F09A80814B01221A60FFF73BFA05460B
:100D00007C4B1B6813F0020F40F08580FFF732FA2E
:100D1000401B0228F4D9032002E2764A136843F408
:100D200080331360636843B3FFF724FA0546714BC1
:100D30001B6813F4003FC3D1FFF71CFA401B642863
:100D4000F5D90320ECE1B3F5A02F09D0694B1A685F
:100D500022F480321A601A6822F480221A60E1E7D5
:100D600003F18043A3F53C331A6842F480221A60F1
:100D70001A6842F480321A60D4E7FFF7FBF905469F
:100D80005C4B1B6813F4003F9AD0FFF7F3F9401B4C
:100D90006428F5D90320C3E140F24711564801F019
:100DA000A9F895E74FF4A471534801F0A3F892E72E
:100DB000504B5B6813F4803F98D14E4B1B6813F087
:100DC000020F04D02369012B01D00120A8E1494A78
:100DD000136823F0F803616943EAC10313602368D1
:100DE00013F0080F3BD0A369012B2FD8A369002B68
:100DF00066D0434B01221A60FFF7BCF905463D4B14
:100E00005B6A13F0020F27D1FFF7B4F9401B0228E9
:100E1000F5D9032084E1374A136823F0F8036169A8
:100E200043EAC1031360DAE7344B00221A60FFF78C
:100E3000A1F905462F4B1B6813F0020FCFD0FFF727
:100E400099F9401B0228F5D9032069E14FF4C471D8
:100E5000294801F04FF8C9E70120FFF7C7FE2368D2
:100E600013F0040F00F0A580E368012B01D9052BD6
:100E700038D1204BDB6913F0805F39D11D4BDA6923
:100E800042F08052DA61DB6903F080530193019BE9
:100E900001251C4B1B6813F4807F35D0E368012BC0
:100EA00046D0002B5CD103F1804303F504331A6A6A
:100EB00022F001021A621A6A22F004021A623CE06D
:100EC0000F4B00221A60FFF755F90546094B5B6A84
:100ED00013F0020FC3D0FFF74DF9401B0228F5D9DC
:100EE00003201DE140F2B711034801F003F8C0E709
:100EF0000025CEE700100240C42E00080000424248
:100F00008004424200700040874A136843F48073B3
:100F10001360FFF72FF90646834B1B6813F4807F9D
:100F2000BCD1FFF727F9801B6428F5D90320F7E02F
:100F30007E4A136A43F001031362E36833B3FFF799
:100F400019F90646794B1B6A13F0020F2FD1FFF7F0
:100F500011F9801B41F288339842F3D90320DFE076
:100F6000052B09D0714B1A6A22F001021A621A6A23
:100F700022F004021A62E0E76C4B1A6A42F00402A3
:100F80001A621A6A42F001021A62D6E7FFF7F2F813
:100F90000646664B1B6A13F0020F08D0FFF7EAF80B
:100FA000801B41F288339842F3D90320B8E0002D2A
:100FB00053D1E369022B56D8E369002B00F0AF80D0
:100FC0005A4A526802F00C02082A00F0AB80022B49
:100FD00040F08F80236A13B1B3F5803F49D1636A33
:100FE0004BB3B3F5802F26D0B3F5002F23D0B3F544
:100FF000402F20D0B3F5801F1DD0B3F5A01F1AD00D
:10100000B3F5C01F17D0B3F5E01F14D0B3F5001F20
:1010100011D0B3F5101F0ED0B3F5201F0BD0B3F5D0
:10102000301F08D0B3F5401F05D0B3F5501F02D0D4
:10103000B3F5601F23D13E4B00221A60FFF79AF8E8
:1010400005463A4B1B6813F0007F1ED0FFF792F85D
:10105000401B0228F5D9032062E0344AD36923F00B
:101060008053D361A5E740F25521324800F042FF9A
:10107000A2E740F25E212F4800F03CFFAFE740F2CC
:101080005F212C4800F036FFD5E7236AB3F5803F97
:101090001AD026494B6823F47413226A606A02430B
:1010A00013434B60224B01221A60FFF763F804469A
:1010B0001E4B1B6813F0007F19D1FFF75BF8001B74
:1010C0000228F5D903202BE0A36813B1B3F5003F44
:1010D00007D1164A536823F40033A1680B435360C9
:1010E000D7E740F27521134800F004FFF1E7002034
:1010F00016E00F4B00221A60FFF73CF804460B4B3A
:101100001B6813F0007F06D0FFF734F8001B02289D
:10111000F5D9032004E0002002E0012000E00020D7
:1011200002B070BD0120FBE70070004000100240DB
:1011300060004242C42E000810B487B0184C94E8F6
:101140000F000DF1180C0CE90F00238AADF80430E4
:10115000144B5B6803F00C02042A03D0082A05D064
:10116000114800E0114807B010BC7047C3F3834238
:1011700006A90A4412F8100C13F4803F0CD0094B56
:101180005B68C3F340430B4413F8142C074BB3FBC9
:10119000F2F300FB03F0E6E7054B03FB00F0E2E7A8
:1011A000B02E00080010024000127A0000A24A048B
:1011B00000093D0070B50D460446C0B1236813F028
:1011C0000F0F1AD0022D1ED8854B1B6803F00703A2
:1011D000AB421ED2824A136823F007032B431360ED
:1011E000136803F00703AB4213D0012070BD40F237
:1011F000CA217C4800F07EFEE0E740F2CB2179482E
:1012000000F078FEDEE74FF43371764800F072FEAE
:10121000DAE7236813F0020F18D0A3687BB1802BA4
:101220000DD0902B0BD0A02B09D0B02B07D0C02B0A
:1012300005D0D02B03D0E02B01D0F02B34D16A4A5B
:10124000536823F0F003A1680B435360236813F045
:10125000010F61D06368022B2CD86368012B2FD05B
:10126000022B34D0604A126812F0020F00F0B680F0
:101270005D494A6822F0030213434B60FEF77AFF90
:1012800006466368012B29D0022B36D0564B5B688B
:1012900013F00C0F40D0FEF76DFF801B41F2883336
:1012A0009842F3D90320A1E740F2E5214D4800F030
:1012B00021FEC4E74FF43B714A4800F01BFECCE727
:1012C000494A126812F4003FD2D101208EE7464A03
:1012D000126812F0007FCBD1012087E7424B5B6898
:1012E00003F00C03042B17D0FEF744FF801B41F2E0
:1012F00088339842F2D9032078E73B4B5B6803F0D0
:101300000C03082B08D0FEF735FF801B41F2883311
:101310009842F2D9032069E7314B1B6803F00703B9
:10132000AB420CD92E4A136823F007032B431360FA
:10133000136803F00703AB4201D0012056E723688E
:1013400013F0040F14D0E3685BB1B3F5806F08D0DD
:10135000B3F5A06F05D0B3F5C06F02D0B3F5E06F61
:1013600030D1214A536823F4E063E1680B435360B2
:10137000236813F0080F15D023695BB1B3F5806FB4
:1013800008D0B3F5A06F05D0B3F5C06F02D0B3F5A8
:10139000E06F1DD1144A536823F46053216943EA76
:1013A000C1035360FFF7C8FE0F4B5B68C3F3031321
:1013B0000E4AD35CD8400E4B1860002000F05AFE55
:1013C000002013E74FF45071064800F093FDC8E782
:1013D00040F24731034800F08DFDDBE7012005E7CF
:1013E00000200240C42E000800100240D82F000840
:1013F00000000020014B1868704700BF000000206B
:1014000008B5FFF7F7FF044B5B68C3F30223034AF9
:10141000D35CD84008BD00BF00100240E82F000890
:1014200008B5FFF7E7FF044B5B68C3F3C223034A29
:10143000D35CD84008BD00BF00100240E82F000870
:1014400038B50D460446D0B1FDB10F232360124BD1
:101450005A6802F0030262605A6802F0F002A26069
:101460005A6802F4E062E2605B68DB0803F4E06360
:1014700023610A4B1B6803F007032B6038BD40F261
:10148000BF41074800F036FDDEE74FF4986104489D
:1014900000F030FDD9E700BF0010024000200240FC
:1014A000C42E000870B582B00446036813F0130F11
:1014B0006DD0236813F0010F3FD0636843B1B3F5DB
:1014C000807F05D0B3F5007F02D0B3F5407F63D1B4
:1014D000504BDB6913F0805F63D14E4BDA6942F009
:1014E0008052DA61DB6903F080530193019B01258F
:1014F000494B1B6813F4807F55D0464B1B6A13F48D
:10150000407311D0626802F440729A420CD0414A92
:10151000136A23F44070414901260E6000260E60D4
:10152000106213F0010F52D13A4A136A23F4407348
:1015300061680B431362002D5AD1236813F0020F28
:1015400011D0A36843B1B3F5804F05D0B3F5004F78
:1015500002D0B3F5404F50D12E4A536823F4404394
:10156000A1680B435360236813F0100F50D0E36859
:10157000B3F5800F01D0002B44D1264A536823F4E1
:101580008003E1680B435360002002B070BD7E21F0
:10159000234800F0AFFC8CE78421214800F0AAFC2E
:1015A00096E70025A4E71C4A136843F48073136090
:1015B000FEF7E0FD0646184B1B6813F4807F9CD1B4
:1015C000FEF7D8FD801B6428F5D90320DDE7FEF780
:1015D000D1FD06460F4B1B6A13F0020FA4D1FEF794
:1015E000C9FD801B41F288339842F3D90320CCE730
:1015F000D36923F08053D3619FE7CB21084800F0E3
:1016000079FCA9E740F22711054800F073FCB4E724
:101610000020BAE70010024000700040400442423F
:10162000FC2E00087047000010B5044603680F4AFE
:1016300093420FD0B3F1804F0CD0A2F59432934275
:1016400008D002F58062934204D040F25F1108484E
:1016500000F050FC2268D36843F00103D360226895
:10166000136843F001031360002010BD002C0140FB
:10167000382F0008704770477047704710B5044610
:1016800003681A6912F0020F11D0DA6812F0020F23
:101690000DD06FF002021A610123037703689B6982
:1016A00013F0030F70D0FFF7E6FF002323772368C2
:1016B0001A6912F0040F12D0DA6812F0040F0ED07B
:1016C0006FF004021A610223237723689B6913F4E5
:1016D000407F5FD02046FFF7CEFF002323772368AB
:1016E0001A6912F0080F12D0DA6812F0080F0ED043
:1016F0006FF008021A61042323772368DB6913F073
:10170000030F4ED02046FFF7B6FF00232377236850
:101710001A6912F0100F12D0DA6812F0100F0ED002
:101720006FF010021A61082323772368DB6913F432
:10173000407F3DD02046FFF79EFF0023237723689C
:101740001A6912F0010F03D0DA6812F0010F36D1D6
:1017500023681A6912F0800F03D0DA6812F0800F44
:1017600034D123681A6912F0400F03D0DA6812F0FE
:10177000400F32D123681A6912F0200F03D0DA68C3
:1017800012F0200F30D110BDFFF774FF2046FFF795
:1017900073FF8AE72046FFF76DFF2046FFF76CFFD7
:1017A0009BE72046FFF766FF2046FFF765FFACE7A3
:1017B0002046FFF75FFF2046FFF75EFFBDE76FF0B3
:1017C00001021A61204600F099FAC1E76FF0800229
:1017D0001A61204600F0A3F8C3E76FF040021A61D7
:1017E0002046FFF74AFFC5E76FF020021A61204646
:1017F00000F094F8C7E7000003681B4A90420AD043
:10180000B0F1804F07D0A2F59432904203D002F598
:101810008062904203D123F070034A681343124A56
:1018200090420AD0B0F1804F07D0A2F59432904296
:1018300003D002F58062904203D123F44073CA685A
:10184000134323F080034A69134303608B68C36228
:101850000B688362044B984202D0012343617047B6
:101860000B690363F9E700BF002C014000284ED04C
:1018700010B504460368274A93420ED0B3F1804F57
:101880000BD0A2F59432934207D002F580629342C6
:1018900003D0D721204800F02DFBA3683BB1102BCB
:1018A00005D0202B03D0402B01D0602B1AD1236907
:1018B0002BB1B3F5807F02D0B3F5007F17D1A369B8
:1018C0000BB1802B18D194F83D30D3B1022384F8AA
:1018D0003D30211D2068FFF78FFF012384F83D3044
:1018E000002010BDD8210C4800F004FBDFE7D9210F
:1018F000094800F0FFFAE2E7DA21074800F0FAFAB7
:10190000E1E784F83C302046FFF78CFEDEE701205B
:10191000704700BF002C0140382F00087047704707
:101920002DE9F843044642687E4B9A4200F29180CA
:10193000E3681BB1B3F5005F40F09180236933B1D8
:10194000B3F5806F03D0B3F5C06F40F08E8063694C
:101950004FF6F372134200D123B940F6AC1172482E
:1019600000F0C8FA2268136923F44053E1680B437E
:101970001361A36822691343626913432168CA682B
:1019800022F4B05222F00C021343CB602268536958
:1019900023F44073A1690B4353612268634B9A425D
:1019A00069D0FFF72DFD00EB800000EB800065683B
:1019B000AD00B0FBF5F55E4FA7FB05356D092E01B7
:1019C000FFF71EFD00EB800000EB80006568AD00B6
:1019D000B0FBF5F9FFF714FD00EB800000EB800091
:1019E0006568AD00B0FBF5F5A7FB05356D094FF057
:1019F000640808FB15952D013235A7FB05356D09E7
:101A000005F0F0053544FFF7FBFC00EB800000EB30
:101A100080006668B600B0FBF6F6FFF7F1FC00EB5D
:101A2000800000EB800063689B00B0FBF3F0A7FB35
:101A30000030400908FB10684FEA081808F1320826
:101A4000A7FB0837C7F3431723682F449F60BDE8FF
:101A5000F88340F6A911344800F04CFA68E740F6E4
:101A6000AA11314800F046FA68E740F6AB112E485B
:101A700000F040FA6BE7FFF7D3FC00EB800000EBCF
:101A800080006568AD00B0FBF5F5294FA7FB053573
:101A90006D092E01FFF7C4FC00EB800000EB800015
:101AA0006568AD00B0FBF5F9FFF7BAFC00EB80000C
:101AB00000EB80006568AD00B0FBF5F5A7FB0535D0
:101AC0006D094FF0640808FB15952D013235A7FB11
:101AD00005356D0905F0F0053544FFF7A1FC00EB75
:101AE000800000EB80006668B600B0FBF6F6FFF7FA
:101AF00097FC00EB800000EB800063689B00B0FB6C
:101B0000F3F0A7FB0030400908FB10684FEA081803
:101B100008F13208A7FB0837C7F3431723682F449F
:101B20009F6094E720AA4400702F0008003801400D
:101B30001F85EB5100286CD010B5044683690BB3A8
:101B40000368354A93420CD0A2F57442934208D000
:101B500002F58062934204D040F211112F4800F048
:101B6000C9F9A369FBB1B3F5807F1CD0B3F5007F41
:101B700019D0B3F5407F16D04FF48971274800F093
:101B8000B9F910E00368244A93420CD0A2F57442DC
:101B9000934208D002F58062934204D04FF48B71D7
:101BA0001E4800F0A7F9A36813B1B3F5805F24D1F4
:101BB00094F839303BB3242384F839302268D36851
:101BC00023F40053D3602046FFF7AAFE226813696E
:101BD00023F4904313612268536923F02A0353616D
:101BE0002268D36843F40053D3600020E0632023CD
:101BF00084F8393084F83A3010BD4FF48C710748BE
:101C000000F078F9D4E784F83830204600F004FA80
:101C1000D1E70120704700BF00380140702F000855
:101C2000002103E00A4B5B584350043109480A4B3A
:101C300042189A42F6D3094A02E0002342F8043BD4
:101C4000074B9A42F9D300F063FA00F019F9704794
:101C5000F82F0008000000200800002008000020E5
:101C6000600E0020FEE7000084B00F4B9A6942F03E
:101C700004029A619A6902F004020192019A9A6937
:101C800042F008029A619A6902F008020292029AEE
:101C90009A6942F010029A619B6903F01003039362
:101CA000039B04B0704700BF0010024000B585B030
:101CB0004FF4005300930323029301230193022363
:101CC000039369460C48FEF7EFFC0B4C01224FF4DE
:101CD00000512046FEF776FE4FF47A7000F0A7FC24
:101CE00000224FF400512046FEF76CFE4FF47A704C
:101CF00000F09DFCE9E700BF0010014008B5026854
:101D0000034B9A4200D008BDFEF72CFAFBE700BF58
:101D1000002C0140FEE7000008B50C480C4B0360A6
:101D20000C4B436000238360C3604FF48042026128
:101D300043618361C3610362FEF760FE00B908BDC1
:101D40004FF488710448FFF7E5FF00BF5C0D0020E9
:101D500000540040A0860100BC2F000800B585B0EB
:101D60001248134B036000238360C36043614FF448
:101D70006022C261436001230361FEF7EFFA60B99C
:101D80000023019301220292039301A90748FEF761
:101D9000F7F930B905B05DF804FBF2210548FFF70B
:101DA000B9FFFC210348FFF7B5FF00BFB00D0020CD
:101DB00000240140BC2F000808B50B480B4B036002
:101DC0004FF4E133436000238360C36003610C225E
:101DD00042618361C361FFF7ADFE00B908BD40F207
:101DE00023110348FFF796FFE00D00200038014063
:101DF000BC2F000800B595B002230A9301230E936F
:101E000010230F93002311930AA8FEF705FF30BBA0
:101E10000F2305930021069107910891099105A8C8
:101E2000FFF7C8F9F8B9022301930023039301A82F
:101E3000FFF738FBD8B9FFF7DDFA0F4BA3FB0030F3
:101E40008009FEF7FDFB0420FEF710FC00220F21A5
:101E50004FF0FF30FEF798FB15B05DF804FBBD2195
:101E60000648FFF757FFCB210448FFF753FFD22165
:101E70000248FFF74FFF00BFD34D6210BC2F000890
:101E800000B587B0FEF75CF9FFF7B4FFFFF7ECFE93
:101E9000FFF742FFFFF762FFFFF78EFF01AC134D24
:101EA0000FCD0FC42B682360002101A800F0A5FB13
:101EB0000F4B18604FF06043D3F8803E13F0010FD2
:101EC00006D04FF06043D3F8003E13F0010F02D16B
:101ED00000F08EFBFEE74FF060431B680BB900BFBC
:101EE000F9E74FF0604361221A70F1E7A82F00086C
:101EF000580D00207047000000B583B0214B9A694F
:101F000042F001029A619B6903F001030193019B76
:101F10000320FEF71BFB002211466FF00B00FEF7BB
:101F200033FB002211466FF00A00FEF72DFB002262
:101F300011466FF00900FEF727FB002211466FF0F3
:101F40000400FEF721FB002211466FF00300FEF7AC
:101F50001BFB00220F216FF00100FEF715FB002292
:101F60000F214FF0FF30FEF70FFB074B5A6822F0AE
:101F7000E0625A605A6842F000725A6003B05DF83D
:101F800004FB00BF001002400000014002680E4B3D
:101F90009A4200D0704700B587B003F56C439A6948
:101FA00042F400729A619B6903F400730193019BF0
:101FB000012302930323039302A90448FEF774FB51
:101FC00007B05DF804FB00BF002401400008014099
:101FD00002680E4B9A4200D0704700B587B0C0230C
:101FE0000293122303930323059302A90848FEF7E3
:101FF0005BFB084BDA6942F40012DA61DB6903F437
:1020000000130193019B07B05DF804FB00540040EE
:10201000000C0140001002400268144B9A4200D0AC
:10202000704710B586B003F558439A6942F4804270
:102030009A619B6903F480430193019B4FF4007301
:1020400002930223039303230593094C02A920461C
:10205000FEF72AFB4FF4806302930023039304935B
:1020600002A92046FEF720FB06B010BD0038014053
:102070000008014000B589B0002201461920FEF792
:1020800083FA1920FEF7C6FA144B9A6942F40062EB
:102090009A619B6903F400630193019B02A903A861
:1020A000FFF7CEF9FFF7BCF90D4BA3FB00239B0C08
:1020B000013B0C480C4A026040F2E732C2604360C8
:1020C000002303618360FFF7D1FB18B1012009B041
:1020D0005DF804FB0348FFF7A7FAF8E70010024099
:1020E00083DE1B43200E0020002C01407047FEE7DA
:1020F000FEE7FEE7FEE7704708B500F0A1FA08BD6D
:1021000008B50248FFF7BAFA08BD00BF200E00204C
:102110000F4B1A6842F001021A6059680D4A0A40D2
:102120005A601A6822F0847222F480321A601A68A7
:1021300022F480221A605A6822F4FE025A604FF498
:102140001F029A60044B4FF000629A60704700BF14
:10215000001002400000FFF800ED00E0124A12F00B
:10216000070F1ED0D11D21F00701C1F540631344B4
:102170000A460E480260002141601344083B23F0E8
:1021800007030B48036059601960991A5160136086
:10219000084B1960084B1960084B4FF000421A6059
:1021A00070474FF44063E4E70C000020180C002057
:1021B00008000020140C0020100C00200C0C002043
:1021C00010B4124B1A6882421AD359685C188442C0
:1021D00003D1406801445960184641684418A2423E
:1021E00012D10B4C2468A2420CD0526811444160B9
:1021F0001A6812680260984200D0186010BC7047DC
:102200001346DFE70460F6E70260F4E7180C0020ED
:102210000800002070B5044600F006FC3A4B1B682D
:10222000BBB13A4B1B681C4263D1ACB1083414F00B
:10223000070F11D024F00704083404F007035BB142
:102240004FF0500383F31188BFF36F8FBFF34F8FAD
:10225000FEE7FFF783FFE4E7002C4CD02C4B1B6814
:10226000A3424AD32B4B1D6801E02B4615466A68F2
:10227000A24202D22A68002AF7D1234A1268AA424F
:102280003DD01E6808362A681A606B681B1B102B2D
:1022900010D9281910F0070F08D04FF0500383F31E
:1022A0001188BFF36F8FBFF34F8FFEE743606C6001
:1022B000FFF786FF6A6816490B689B1A0B60164980
:1022C00009688B4201D214490B60104B1B68134301
:1022D0006B6000232B6000F03BFC16F0070F10D062
:1022E0004FF0500383F31188BFF36F8FBFF34F8F0D
:1022F000FEE70026EFE70026EDE70026EBE70026E5
:10230000E9E7304670BD00BF080000200C0C00203B
:10231000100C0020180C0020140C002080B338B5DD
:102320000446A0F1080550F8042C164909680A4231
:1023300008D14FF0500383F31188BFF36F8FBFF3C1
:102340004F8FFEE750F8080C40B14FF0500383F375
:102350001188BFF36F8FBFF34F8FFEE722EA0102B0
:1023600044F8042C00F060FB54F8041C064A13687F
:102370000B4413602846FFF723FF00F0E9FB38BD4C
:10238000704700BF0C0C0020100C00200B4B1B688A
:10239000B3F1FF3F08D04FF0500383F31188BFF330
:1023A0006F8FBFF34F8FFEE74FF0500383F3118819
:1023B000BFF36F8FBFF34F8FFEE700BF0400002015
:1023C00006480068006880F3088862B661B6BFF30B
:1023D0004F8FBFF36F8F00DF00BF000008ED00E0FC
:1023E0004FF0807340F8043C21F0010140F8081CD4
:1023F000034B40F80C3C40F8202C4038704700BF9D
:102400008D23000800000000000000000000000014
:10241000074B19680868B0E8F00F80F30988BFF32C
:102420006F8F4FF0000080F311884EF00D0E704753
:10243000280C00204FF0500383F31188BFF36F8FF7
:10244000BFF34F8F0A4A136801331360012B00D08A
:102450007047084B1B6813F0FF0FF9D04FF0500383
:1024600083F31188BFF36F8FBFF34F8FFEE700BF79
:102470000400002004ED00E0094B1B6843B94FF055
:10248000500383F31188BFF36F8FBFF34F8FFEE7C5
:10249000013B034A13600BB983F31188704700BFF7
:1024A0000400002000000000000000000000000008
:1024B000EFF30980BFF36F8F0D4B1A6820E9F00F1F
:1024C00010602DE908404FF0500080F3118800F0B3
:1024D00021FC4FF0000080F31188BDE80840196826
:1024E0000868B0E8F00F80F30988BFF36F8F70477A
:1024F000280C002008B54FF0500383F31188BFF378
:102500006F8FBFF34F8F00F097FA18B1034B4FF066
:1025100080521A60002383F3118808BD04ED00E0A7
:10252000064B1B68064AA2FB03239B09013B054A95
:102530001360054B07221A60704700BF000000209F
:10254000D34D621014E000E010E000E000B583B06D
:102550001F4B1A78D2B20192FF221A701B78DBB29D
:102560008DF803309DF8033003F05003194A1370BF
:10257000194B07221A6009E0174A1368013B1360E0
:102580009DF803305B00DBB28DF803309DF803301B
:1025900013F0800FF0D1104A13681B0203F4E063BC
:1025A0001360019BDBB20A4A13700C4B1A6842F4A9
:1025B00070021A601A6842F070421A60FFF7B0FFAA
:1025C000074B00221A60FFF7FBFEFFF7DFFE00BF9C
:1025D00000E400E0200C0020240C002020ED00E0AE
:1025E00004000020842801D0033070470020704789
:1025F00008B500F0DBF9002008BDF0B585B00F4646
:10260000446805680669B0F90800FFF7EBFF03AB03
:10261000019300903B46B2B22946204600F094F95F
:10262000012802D1039805B0F0BD0020FBE708B5F2
:10263000034600B90123184600F004FB002008BD42
:1026400008B500F0B3FB012801D0FFF753FF08BD28
:1026500000F1080343604FF0FF328260C360036102
:1026600000230360704700230361704743684B6099
:102670009A688A609A6851609960086103680133BA
:102680000360704730B40D68B5F1FF3F02D000F130
:10269000080202E0026904E01A4653681C68AC4272
:1026A000FAD953684B6099608A6051600861036889
:1026B0000133036030BC70470369426881689160F0
:1026C0008268416851605A68824205D000220261E6
:1026D000186801381860704782685A60F6E7000091
:1026E000084B1B681B683BB1064B1B68DB68DB684B
:1026F0005A68054B1A607047034B4FF0FF321A605F
:10270000704700BF2C0C0020040D002010B50446BB
:10271000006BFFF703FE2046FFF700FE10BD2DE91A
:10272000F04780469946089D099F0A9C266B02F156
:102730008042013A06EB820626F0070600230F2BA3
:1027400007D8C856E21882F83400CA560AB10133D5
:10275000F5E7002384F84330062D00D90625E5620D
:1027600065644FF0000AC4F848A0201DFFF77BFF06
:1027700004F11800FFF777FF2461C5F10705A56193
:102780006462C4F84CA084F850A04A4641463046E2
:10279000FFF726FE206007B13C60BDE8F08700002F
:1027A00038B5002407E004EB840293000E48184477
:1027B000FFF74EFF0134062CF5D90C4D2846FFF7E4
:1027C00047FF0B4C2046FFF743FF0A48FFF740FF47
:1027D0000948FFF73DFF0948FFF73AFF084B1D6026
:1027E000084B1C6038BD00BF340C0020D80C002002
:1027F000EC0C00200C0D0020380D0020240D0020D2
:102800002C0C0020300C002010B50446FFF712FEFF
:10281000204A1368013313601F4B1B685BB11F4BC9
:102820001B686BB91C4B1B68DA6AE36A9A4207D8CB
:10283000194B1C6004E0184B1C601368012B26D058
:10284000174A136801331360E36A01229A4015495D
:10285000086802430A6003EB83039A00211D1248B3
:102860001044FFF703FFFFF707FE0C4B1B686BB12B
:10287000094B1B68DA6AE36A9A4207D20B4B4FF0A6
:1028800080521A60BFF34F8FBFF36F8F10BDFFF7F9
:1028900087FFD5E7C00C0020280C0020200D002069
:1028A000D00C0020D40C0020340C002004ED00E0FB
:1028B00070B504460E461D4B1D681D4B186804304C
:1028C000FFF7FAFE50B91A4B1B68DA6A012303FAC4
:1028D00002F218490B6823EA02030B60B4F1FF3FD0
:1028E00013D02C44124B1B685C60A54216D8124BC7
:1028F00018680F4B19680431FFF7C4FE0F4B1B68B3
:10290000A34212D90D4B1C600FE0002EE9D0084BFA
:10291000196804310A48FFF7A9FE06E0094B186858
:10292000034B19680431FFF7ADFE70BD4C0D00205C
:10293000280C0020D40C00202C0C0020040D0020BA
:10294000240D0020300C00202DE9F04385B007460F
:102950008846154699469000FFF75CFCF8B106469C
:102960005420FFF757FC0446A8B10663D4B10023F6
:10297000039302940D9B01930C9B00934B462A46B4
:1029800041463846FFF7CBFE2046FFF73DFF0120CA
:1029900005B0BDE8F0833046FFF7C0FCE6E74FF036
:1029A000FF30F5E74FF0FF30F2E7000000B583B0ED
:1029B000174B019300230093802216491648FFF716
:1029C000C3FF012805D0B0F1FF3F17D003B05DF879
:1029D00004FB4FF0500383F31188BFF36F8FBFF3F5
:1029E0004F8F0E4B4FF0FF321A600D4B01221A60D1
:1029F0000C4B00221A60FFF7A9FDE7E74FF05003E8
:102A000083F31188BFF36F8FBFF34F8FFEE700BFD3
:102A1000000D0020F02F0008ED2C0008040D002010
:102A2000200D00204C0D0020024A13680133136072
:102A3000704700BFCC0C0020F8B53A4B1B68002B48
:102A400064D1394B1D6801351D60C5B9374B1B6812
:102A50001B6843B14FF0500383F31188BFF36F8FAE
:102A6000BFF34F8FFEE7314A1168314B1868106091
:102A70001960304A136801331360FFF731FE2E4BA3
:102A80001B68AB4238D900242C4B1B68DB6A03EB74
:102A900083039A002A4B9B58012B3CD901243AE02E
:102AA0000124224B1B681B6843B3204B1B68DB6867
:102AB000DE6873689D4226D3371D3846FFF7FCFD5C
:102AC000B36A1BB106F11800FFF7F6FDF36A0122A5
:102AD0009A401C49086802430A6003EB83039A008A
:102AE000394617481044FFF7C1FDF26A134B1B68C3
:102AF000DB6A9A42D4D2D4E70024D2E70E4B4FF0DF
:102B0000FF321A60C0E70C4A1360BDE70E4A136833
:102B10000133136000240D4B1B6803B101242046D0
:102B2000F8BD00BFCC0C00204C0D00202C0C002068
:102B3000300C0020080D0020040D0020280C00207F
:102B4000340C0020D40C0020C80C0020500D0020B4
:102B500038B5334B1B6843B94FF0500383F31188EA
:102B6000BFF36F8FBFF34F8FFEE7FFF763FC2C4B74
:102B70001A68013A1A601B68002B4DD1294B1B685B
:102B800023B90024FFF778FC204638BD0024264BEB
:102B90001B681BB3244BDB68DC6804F11800FFF7EB
:102BA0008BFD251D2846FFF787FDE36A01229A4029
:102BB0001E49086802430A6003EB83039A00294612
:102BC0001B481044FFF752FDE26A1A4B1B68DB6A90
:102BD0009A42DCD3184B01221A60D8E70CB1FFF7F8
:102BE0007FFD164B1C6854B1FFF726FF10B1124B46
:102BF00001221A60013CF7D1104B00221A600E4BE3
:102C00001B685BB10E4B4FF080521A60BFF34F8FC1
:102C1000BFF36F8F0124B5E70024B3E70024B1E7C9
:102C2000CC0C0020C00C00200C0D0020D40C002087
:102C3000340C0020280C0020500D0020C80C00206F
:102C400004ED00E010B5A8B104460F4B1B6843B17A
:102C50004FF0500383F31188BFF36F8FBFF34F8F93
:102C6000FEE7FFF7E1FE00212046FFF721FEFFF718
:102C70006FFF38B9054B4FF080521A60BFF34F8F8A
:102C8000BFF36F8F10BD00BFCC0C002004ED00E03F
:102C9000134B1B6813B310B5FFF7C6FE114B1C682E
:102CA000FFF756FF24B90E4B1B68002BF4D110BD63
:102CB000FFF7C0FB0B4BDB68DC68201DFFF7FCFC5B
:102CC000094A1368013B1360054A1368013B13600E
:102CD000FFF7D2FB2046FFF719FDE4E7704700BF7E
:102CE000C40C0020380D0020C00C002008B5FFF7F0
:102CF000CFFF064B1B68012BF9D9054B4FF08052D3
:102D00001A60BFF34F8FBFF36F8FF0E7340C0020D2
:102D100004ED00E0204B1B681BB1204B01221A6020
:102D200070471E4B00221A601D4B1B68B3FA83F3D9
:102D3000DBB2C3F11F0303EB83018A0019498A58F0
:102D400042B94FF0500383F31188BFF36F8FBFF385
:102D50004F8FFEE710B413489A00D418A100014425
:102D60004C6864684C601A449100083108448442FD
:102D70000AD003EB83039A000A4B13445B68DA68BA
:102D8000094B1A6010BC704761680648142202FBA8
:102D900003025160EDE700BFCC0C0020500D002075
:102DA000D40C0020340C0020280C0020054B1B689C
:102DB00033B1054B1B680BB10020704702207047F0
:102DC00001207047200D0020CC0C00202E2E2F73E8
:102DD000797374656D2F53544D3332463178785F73
:102DE00048414C5F4472697665722F5372632F734A
:102DF000746D3332663178785F68616C5F616463EB
:102E00002E6300002E2E2F73797374656D2F53542B
:102E10004D3332463178785F48414C5F4472697671
:102E200065722F5372632F73746D33326631787805
:102E30005F68616C5F636F727465782E6300000079
:102E40002E2E2F73797374656D2F53544D33324684
:102E50003178785F48414C5F4472697665722F53D0
:102E600072632F73746D3332663178785F68616C8A
:102E70005F6770696F2E63002E2E2F7379737465F0
:102E80006D2F53544D3332463178785F48414C5F53
:102E90004472697665722F5372632F73746D333287
:102EA000663178785F68616C5F6932632E63000019
:102EB00002030405060708090A0B0C0D0E0F10107B
:102EC000010200002E2E2F73797374656D2F5354F9
:102ED0004D3332463178785F48414C5F44726976B1
:102EE00065722F5372632F73746D33326631787845
:102EF0005F68616C5F7263632E6300002E2E2F7318
:102F0000797374656D2F53544D3332463178785F41
:102F100048414C5F4472697665722F5372632F7318
:102F2000746D3332663178785F68616C5F726363A9
:102F30005F65782E630000002E2E2F737973746501
:102F40006D2F53544D3332463178785F48414C5F92
:102F50004472697665722F5372632F73746D3332C6
:102F6000663178785F68616C5F74696D2E6300000C
:102F70002E2E2F73797374656D2F53544D33324653
:102F80003178785F48414C5F4472697665722F539F
:102F900072632F73746D3332663178785F68616C59
:102FA0005F756172742E6300CC2F0008AD1C0008A1
:102FB0000000000000000000800000002E2E2F7393
:102FC00072632F6D61696E2E630000006465666137
:102FD000756C745461736B00000000000000000009
:102FE00001020304060708090000000001020304AF
:082FF00049444C4500000000BB
:082FF80000A24A04AAAAAAAA39
:0400000508000140AE
:00000001FF
