:020000040800F2
:1000000000500020912400082D2C00082F2C0008FF
:10001000312C0008332C0008352C000800000000AB
:10002000000000000000000000000000512F000848
:10003000372C000800000000F12F0008392C0008C0
:10004000D5240008D5240008D5240008D5240008AC
:10005000D5240008D5240008D5240008D52400089C
:10006000D5240008D5240008D5240008D52400088C
:10007000D5240008D5240008D5240008D52400087C
:10008000D5240008D5240008D5240008D52400086C
:10009000D5240008D5240008D5240008D52400085C
:1000A000D5240008412C0008D5240008D5240008D8
:1000B000D5240008D5240008D5240008D52400083C
:1000C000D5240008D5240008D5240008D52400082C
:1000D000D5240008D5240008D5240008D52400081C
:1000E000D5240008D5240008D5240008000000000D
:1000F0000000000000000000000000000000000000
:0C01000000000000000000005FF808F1A3
:10010C0024440008000000206C0000202444000857
:10011C0000000000000000006C000020E80E002031
:08012C000000000000000000CB
:1001400008B5074A136843F010031360032000F05A
:10015000FDF9002002F02EFD02F06EFC002008BD2B
:1001600000200240024A136801331360704700BF49
:10017000C40D0020014B1868704700BFC40D00205B
:1001800030B583B005460C460023019303685C4AF2
:10019000934208D002F58062934204D040F2AC61F1
:1001A000584802F047FC2368112B3AD86368013B9A
:1001B0000F2B3CD8A368072B3FD895F82430012B90
:1001C00000F09B80012385F824306368062B3AD821
:1001D0002868426B03EB8303053B1F21994022EA09
:1001E0000102216801FA03F3134343632368092BD7
:1001F00049D92868C26803EB43031E3B0721994095
:1002000022EA0102A16801FA03F31343C3602368E1
:10021000103B012B45D90020002385F8243003B082
:1002200030BD40F2AD61374802F004FCBEE740F259
:10023000AE61344802F0FEFBBCE740F2AF613148EA
:1002400002F0F8FBB9E70C2B0ED82868026B03EB21
:100250008303233B1F21994022EA0102216801FA0E
:1002600003F313430363C1E72868C26A03EB830304
:10027000413B1F21994022EA0102216801FA03F360
:100280001343C362B2E72868026903EB4303072103
:10029000994022EA0102A16801FA03F313430361C2
:1002A000B5E72B68164A934205D0AB6A43F02003AA
:1002B000AB620120B0E79A6812F4000F1BD19A6874
:1002C00042F400029A602368102B01D00020A3E7BB
:1002D0000D4B1B680D4AA2FB03239B0C03EB83030E
:1002E0005A00019202E0019B013B0193019B002B0C
:1002F000F9D1002090E700208EE702208FE700BFB1
:1003000000240140844100080000002083DE1B43DC
:1003100038B503689A6812F0010F01D1002038BD8A
:1003200004469A6822F001029A60FFF723FF05460F
:1003300023689B6813F0010F0ED0FFF71BFF401BD3
:100340000228F5D9A36A43F01003A362E36A43F0DD
:100350000103E3620120E2E70020E0E7002800F06B
:10036000EA8038B504460368744A934208D002F51F
:100370008062934204D04FF4C271714802F05AFB7C
:10038000636813B1B3F5006F63D1A36813B1B3F51C
:10039000807F64D1E368012B67D8E3698BB1B3F543
:1003A000003F0ED0B3F5C02F0BD0B3F5002F08D00F
:1003B000B3F5202F05D0B3F5402F02D0B3F5602F51
:1003C00059D1A36863B12369013B0F2B59D86369E5
:1003D000012B5CD863691BB1A369013B072B5CD877
:1003E000A36A002B5FD02046FFF792FFA36A13F0A9
:1003F000100340F09A80002840F09780A26A22F40F
:10040000885222F0020242F00202A2626268E169AE
:100410000A43E56842EA4502A168B1F5807F4CD005
:10042000012947D0616901294AD02568696821F40A
:1004300069410B436B6021688D68424B2B4013432D
:100440008B60A368B3F5807F4BD0012B49D000218E
:100450004AE040F285113A4802F0ECFA95E74FF491
:10046000C371374802F0E6FA94E740F28711344846
:1004700002F0E0FA91E74FF4C471314802F0DAFA81
:100480009FE74FF4C6712E4802F0D4FA9FE740F27E
:100490008D112B4802F0CEFA9CE74FF4C871284822
:1004A00002F0C8FA9CE7E36284F82430204602F0A8
:1004B0000DFB98E74FF48073B4E74FF48073B1E716
:1004C00035B9A169013943EA413343F40063ACE72C
:1004D000A16A41F02001A162E16A41F00101E162FB
:1004E000A3E72369013B19052568EB6A23F4700330
:1004F0000B43EB6223689968134B0B409A420BD075
:10050000A36A23F0120343F01003A362E36A43F0EB
:100510000103E36201200DE00023E362A36A23F0FC
:10052000030343F00103A36204E0A36A43F0100352
:10053000A362012038BD0120704700BF00240140A4
:1005400084410008FDF7E1FFFE0E1FFF10B50446D1
:10055000C31E042B0FD80A4AD36823F4E0631B049C
:100560001B0C240204F4E064234343F0BF6343F410
:100570000033D36010BDA421024802F05BFAEAE721
:1005800000ED00E0BC41000870B505460C4616467B
:100590000F2A25D80F2C28D81B4BDB68C3F3022366
:1005A000C3F10702042A28BF0422191D062921D9F4
:1005B000033B4FF0FF3101FA02F224EA02049C40AF
:1005C00001FA03F326EA03063443002D14DB240169
:1005D000E4B205F1604505F5614585F8004370BD5D
:1005E000BC210A4802F026FAD4E7BD21074802F0F0
:1005F00021FAD1E70023DCE705F00F052401E4B27E
:10060000034B5C55EBE700BF00ED00E0BC41000888
:1006100014ED00E010B5041E08DB04F01F026409AD
:1006200001239340044A42F8243010BDD0210348EE
:1006300002F000FAF1E700BF00E100E0BC41000871
:100640000138B0F1807F0AD2064B5860064AF0218B
:1006500082F823100020986007221A60704701205A
:10066000704700BF10E000E000ED00E010B5044668
:10067000042800D038B9042C0BD0094A136823F0A1
:100680000403136010BD40F2DB11064802F0D2F9FA
:10069000F1E7034A136843F004031360F2E700BF75
:1006A00010E000E0BC4100082DE9F04383B0804633
:1006B0000F46B64B984213D003F5806398420FD093
:1006C00003F5806398420BD003F58063984207D00E
:1006D00003F58063984203D0CF21AD4802F0AAF918
:1006E0003B689AB212B11B0C1B041BB1D021A84865
:1006F00002F0A0F97B68012B1ED9112B1CD0022B14
:100700001AD0122B18D0A34A934215D002F58012AA
:10071000934211D002F5801293420DD0A2F5F81247
:10072000934209D002F58012934205D002F580125F
:10073000934201D0032B03D14FF000094E46D8E07D
:10074000D121934802F076F9F6E7002B5ED0012B19
:1007500005D1FB68013B022B65D8D7F80C90FF2C24
:1007600000F296804046FF2C00F29580B2000368AC
:100770000F21914023EA010309FA02F213430360B7
:100780007B6813F0805F00F0B380834B9A6942F07E
:1007900001029A619B6903F001030193019BB20876
:1007A000911C7E4B53F8210006F0030399000F23A0
:1007B0008B4020EA0300754B984572D003F58063A7
:1007C000984500F0CD8003F58063984500F0CA801D
:1007D00003F58063984562D0042363E0704A934236
:1007E00014D00BD96F4A934210D002F58032934255
:1007F0000CD0A2F580129342B1D107E0A2F580128D
:10080000934203D002F580329342A8D1BB68022BF9
:100810002DD8BB68002B38D0012B2ED0C8F814502F
:100820004FF008099BE7E721594802F003F994E7E4
:10083000EE21574802F0FEF88EE0FB68013B022BE8
:1008400003D8FB6803F1080989E7F521504802F055
:10085000F1F8F6E7FB68013B022B03D8FB6803F1D4
:100860000C097CE7FC214A4802F0E4F8F6E740F284
:100870000911474802F0DEF8CBE7C8F810504FF0F6
:1008800008096CE74FF0000969E74FF0040966E7D3
:1008900008F1040067E7A6F10802920067E7032366
:1008A00000E000238B40034302323C4941F82230F0
:1008B0007B6813F4803F57D03B4A1368234313608F
:1008C0007B6813F4003F55D0374A53682343536085
:1008D0007B6813F4801F53D0334A9368234393609B
:1008E0007B6813F4001F61D02F4AD3681C43D46087
:1008F00001360F2E60D80125B5403C682C40A5423A
:10090000F6D1224B984513D003F5806398450FD05C
:1009100003F5806398450BD003F58063984507D0B5
:1009200003F58063984503D0DF21194802F082F86F
:100930007B68122B8ED03FF651AF022B3FF47DAF78
:100940007FF603AF032B9DD0112B7FF408AFFB681C
:10095000013B022B3FF66CAFFB6803F10409FEE696
:1009600001239FE702239DE70F4A136823EA04034C
:100970001360A5E70C4A536823EA04035360A7E712
:10098000094A936823EA04039360A9E70008014039
:10099000F841000800001110001002400000014062
:1009A000000021100000311000040140044AD36807
:1009B00023EA0404D4609BE703B0BDE8F08300BFE2
:1009C0000004014070B5064615460C4629B1012DBC
:1009D00009D875B92404346170BD40F2E5110648A8
:1009E00002F028F8F3E74FF4F371034802F022F81D
:1009F000EFE73461F0E700BFF841000803685A6987
:100A000012F4806F0DD06FF480625A610423036486
:100A100000230363202280F83D2080F83C30012031
:100A2000704700207047F8B506460C4617461D462D
:100A30001EE02DB1FFF79EFB069BC01AA84217D9F6
:100A400000233363202286F83D2086F83E3086F866
:100A50003C3003201AE033685B6924EA03039BB24D
:100A6000B3FA83F35B099F420FD1B5F1FF3FE0D1A9
:100A7000C4F30743012BEED033689B6924EA0303D8
:100A80009BB2B3FA83F35B09EDE70020F8BDF8B53C
:100A900004460D4616461F4632E01A6842F40072BC
:100AA0001A6023686FF480625A6104232364002370
:100AB0002363202284F83D2084F83C3001202DE07F
:100AC00026B1FFF757FBC01BB04219D9002323639F
:100AD000202284F83D2084F83C3003201EE0236867
:100AE0005B6925EA03039BB2003318BF0123A3B15E
:100AF00023685A6912F4806FCFD1B6F1FF3FDFD17E
:100B0000C5F30743012BEAD023689B6925EA030359
:100B10009BB2003318BF0123E9E70020F8BD0000B5
:100B2000F0B583B004460D4616461F46C36A042B33
:100B30000DD0012B0BD013F5803F08D0036B122B87
:100B40000AD10268136843F48073136004E02268DA
:100B5000136843F4807313600097334600224FF00C
:100B600001112046FFF75FFF58BB2369B3F5804FA3
:100B700010D1236805F0FE051D613B46324615493C
:100B80002046FFF784FF0346E0B1236C042B1ED1FF
:100B9000012317E0EB11226803F0060343F0F00392
:100BA00013613B4632460C492046FFF770FF20B1E7
:100BB000236C042B09D1012304E02368EDB21D61ED
:100BC000DBE70323184603B0F0BD0323FAE7032352
:100BD000F8E700BF02000100080001002DE9F04124
:100BE00084B004460D4616461F46C26A01680B686B
:100BF00043F480630B60042A0DD0012A0BD012F558
:100C0000803F08D0036B112B0AD10268136843F4AC
:100C10008073136004E02268136843F480731360E8
:100C20000097334600224FF001112046FFF7FBFEEC
:100C3000002852D12369B3F5804F12D1236845F0C3
:100C40000105EDB21D613B4632462A492046FFF7B9
:100C50001EFF0346002841D0236C042B48D10123FA
:100C60003CE04FEAE51808F00608236848F0F00277
:100C70001A613B46324620492046FFF708FF20B163
:100C8000236C042B2ED1012328E02368EDB21D61D3
:100C90003B46324617492046FFF7F9FE20B1236C48
:100CA000042B21D1012319E0002203922368596902
:100CB0000391996903910399196841F4807119604E
:100CC000009733464FF001112046FFF7ACFE68B99C
:100CD000226848F0F1031361B5E70323184604B016
:100CE000BDE8F0810323F9E70323F7E70323F5E7E2
:100CF0000323F3E7020001000800010070B5044679
:100D00000D46164623685B6913F0800F19D1204603
:100D1000FFF774FEB8B9B5F1FF3FF3D025B1FFF787
:100D200029FA801BA842EDD9236C43F020032364E9
:100D300000232363202284F83D2084F83C300320E4
:100D400000E0002070BD0120FCE770B504460D46B0
:100D5000164623685B6913F0040F19D12046FFF78C
:100D60004DFEB8B9B5F1FF3FF3D025B1FFF702FA58
:100D7000801BA842EDD9236C43F020032364002399
:100D80002363202284F83D2084F83C30032000E0D7
:100D9000002070BD0120FCE770B505460C461646E4
:100DA0002B685A6912F0400F22D15A6912F0100FC5
:100DB00011D124B1FFF7DEF9801BA042F0D92B6CD2
:100DC00043F020032B64202385F83D30002385F871
:100DD0003C30032070BD6FF010025A6100232B6479
:100DE0002B63202285F83D2085F83C300120F1E777
:100DF0000020EFE7002800F0E78010B50446036804
:100E0000724A934208D002F58062934204D040F2C5
:100E10007F116F4801F00EFE6368013B6D4A9342FB
:100E200067D8A36813B1B3F5804F68D1E36823F4A2
:100E30007F7323F00303002B67D12369B3F5804F41
:100E400002D0B3F5404F66D16369012B69D8A3691D
:100E500033F0FE036BD1E3690BB1402B6DD1236AF4
:100E60000BB1802B6FD194F83D30002B71D024232F
:100E700084F83D302268136823F00103136000F00A
:100E8000F7FE554BA3FB00239B0C2268536061685F
:100E9000524A914263D801332268136263684F4A11
:100EA000934266D85B00B0FBF3F0C0F30B03032B57
:100EB00000D804202368D861E369216A22680B43C3
:100EC00013602369E16822680B4393606369A16939
:100ED00022680B43D3602268136843F00103136058
:100EE00000202064202384F83D30206384F83E00F5
:100EF00010BD4FF4C071364801F09CFD91E740F2FF
:100F00008111334801F096FD90E74FF4C1713048EC
:100F100001F090FD91E740F283112D4801F08AFD28
:100F200092E74FF4C2712A4801F084FD8FE740F246
:100F30008511274801F07EFD8DE74FF4C3712448E9
:100F400001F078FD8BE740F28711214801F072FD36
:100F500089E784F83C30204601F0DAFD87E74FF45A
:100F6000967202FB03F31E4AA2FB03239B09013383
:100F700092E7A16889B903EB4302B0FBF2F2C2F336
:100F80000B02B2FA82F25209E2B991B903EB4303C0
:100F9000B0FBF3F040F400408CE703EB830202EB7C
:100FA0008202B0FBF2F2C2F30B02B2FA82F25209F1
:100FB000EAE703EB830303EB8303B0FBF3F040F4B6
:100FC000404077E7012075E701207047005400405A
:100FD000304200087F1A060083DE1B43A086010012
:100FE000D34D62102DE9F04184B004460E46904680
:100FF0001F46FFF7BFF894F83D30DBB2202B04D03A
:101000000226304604B0BDE8F08105460090192361
:10101000012254492046FFF706FD002840F0998040
:1010200094F83C30012B00F09680012384F83C308A
:1010300023681A6812F0010F03D11A6842F0010206
:101040001A602268136823F400631360212384F874
:101050003D30102384F83E3000232364C4F82480FC
:101060006785A3F58033E362638D23852B460A9A57
:1010700031462046FFF754FD064660B1236C042B31
:1010800004D1002384F83C300126BAE7002384F819
:101090003C300326B5E70023039323685A69039283
:1010A0009B690393039B10E0236C042B55D12268AA
:1010B000136843F4007313600126A2E72A460A99D5
:1010C0002046FFF742FE00282BD1238D002B32D083
:1010D0002A460A992046FFF711FE0028E4D1636AE8
:1010E0005A1C626222681B781361638D013B9BB2BC
:1010F0006385238D013B9BB223852268516911F0E2
:10110000040FDBD0002BD9D0636A591C61621B78B5
:101110001361638D013B9BB26385238D013B238566
:10112000CCE7236C042B1AD12268136843F40073B4
:101130001360012665E72268136843F400731360A7
:10114000202384F83D30002384F83E3084F83C307E
:1011500057E7022655E7022653E7032651E7032601
:101160004FE700BF020010002DE9F04186B00446B1
:101170000E4690461F46FEF7FDFF94F83D30DBB269
:10118000202B04D00226304606B0BDE8F08105468B
:101190000090192301228F492046FFF744FC0028C4
:1011A00040F0518194F83C30012B00F04E81012336
:1011B00084F83C3023681A6812F0010F03D11A68D2
:1011C00042F001021A602268136823F4006313607E
:1011D000222384F83D30102384F83E30002323641A
:1011E000C4F824806785A3F58033E362638D23858B
:1011F0002B460C9A31462046FFF7F0FC064660B1BC
:10120000236C042B04D1002384F83C300126BAE778
:10121000002384F83C300326B5E7238D5BB90293A5
:1012200023685A6902929A690292029A1A6842F4F1
:1012300000721A607FE0012B0FD0022B21D02268B0
:10124000136843F4806313600023059323685A698D
:1012500005929B690593059B6DE02268136823F452
:101260008063136072B60023039323685A69039264
:101270009A690392039A1A6842F400721A6062B67D
:1012800059E02268136843F40063136072B60023C8
:10129000049323685A6904929A690492049A1A681A
:1012A00022F480621A6062B645E02A460C99204614
:1012B000FFF772FD68B923681A69636A591C616295
:1012C0001A70238D013B2385638D013B9BB263859F
:1012D00031E0236C202B01D0012654E7032652E78E
:1012E00000950C9B00223C492046FFF79CFB002800
:1012F00040F0AD8072B62268136843F40073136047
:1013000023681A69636A591C61621A70238D013B54
:101310002385638D013B9BB2638562B623681A699E
:10132000636A591C61621A70238D013B2385638DAA
:10133000013B9BB26385238D002B7BD0032B4DD8C3
:10134000012BB2D0022BCBD000950C9B002222495E
:101350002046FFF768FB00287BD12268136823F43E
:101360008063136072B623681A69636A591C6162EC
:101370001A70238D013B2385638D013B9BB26385EE
:1013800000950C9B002214492046FFF74CFB0028D7
:1013900061D12268136843F40073136023681A69EB
:1013A000636A591C61621A70238D013B2385638D2A
:1013B000013B9BB2638562B623681A69636A591C54
:1013C00061621A70238D013B2385638D013B9BB2C3
:1013D0006385B0E702001000040001002A460C9962
:1013E0002046FFF7D9FCF0B923681A69636A591CD3
:1013F00061621A70238D013B2385638D013B9BB293
:10140000638523685A6912F0040F94D01A69636ADD
:10141000591C61621A70238D013B2385638D013B4A
:101420009BB2638587E7236C202B01D00126AAE6B7
:101430000326A8E6202384F83D30002384F83E30BC
:1014400084F83C309FE602269DE602269BE60326B2
:1014500099E6032697E6032695E600BF82B0084B7F
:101460001B68084AA2FB03235B0A00FB03F0019000
:1014700000BF019B5A1E0192002BF9D102B07047A8
:1014800000000020D34D621070B582B0044678B3DE
:10149000236813B113F00F0F30D0236813F0010F3E
:1014A00046D063682BB1B3F5803F02D0B3F5A02FCF
:1014B0002AD1AC4B5B6803F00C03042B2FD0A94B53
:1014C0005B6803F00C03082B24D06368B3F5803FFE
:1014D0005BD0002B6FD103F1804303F504331A680E
:1014E00022F480321A601A6822F480221A6051E0D5
:1014F0004FF486719C4801F09DFAC9E740F20D1146
:10150000994801F097FAC8E740F21311964801F0A4
:1015100091FACEE7934B5B6813F4803FD5D0914BA3
:101520001B6813F4003F03D06368002B00F02D828A
:10153000236813F0020F00F08A802369012B63D81F
:1015400063691F2B66D8874B5B6813F00C0F6CD058
:10155000844B5B6803F00C03082B61D02369002BDC
:1015600000F09A80814B01221A60FEF703FE0546C7
:101570007C4B1B6813F0020F40F08580FEF7FAFDEC
:10158000401B0228F4D9032002E2764A136843F490
:1015900080331360636843B3FEF7ECFD0546714B7F
:1015A0001B6813F4003FC3D1FEF7E4FD401B642821
:1015B000F5D90320ECE1B3F5A02F09D0694B1A68E7
:1015C00022F480321A601A6822F480221A60E1E75D
:1015D00003F18043A3F53C331A6842F480221A6079
:1015E0001A6842F480321A60D4E7FEF7C3FD05465C
:1015F0005C4B1B6813F4003F9AD0FEF7BBFD401B09
:101600006428F5D90320C3E140F24711564801F0A0
:1016100011FA95E74FF4A471534801F00BFA92E7E1
:10162000504B5B6813F4803F98D14E4B1B6813F00E
:10163000020F04D02369012B01D00120A8E1494AFF
:10164000136823F0F803616943EAC1031360236858
:1016500013F0080F3BD0A369012B2FD8A369002BEF
:1016600066D0434B01221A60FEF784FD05463D4BD0
:101670005B6A13F0020F27D1FEF77CFD401B0228A6
:10168000F5D9032084E1374A136823F0F803616930
:1016900043EAC1031360DAE7344B00221A60FEF715
:1016A00069FD05462F4B1B6813F0020FCFD0FEF7E4
:1016B00061FD401B0228F5D9032069E14FF4C47194
:1016C000294801F0B7F9C9E70120FFF7C7FE2368F1
:1016D00013F0040F00F0A580E368012B01D9052B5E
:1016E00038D1204BDB6913F0805F39D11D4BDA69AB
:1016F00042F08052DA61DB6903F080530193019B71
:1017000001251C4B1B6813F4807F35D0E368012B47
:1017100046D0002B5CD103F1804303F504331A6AF1
:1017200022F001021A621A6A22F004021A623CE0F4
:101730000F4B00221A60FEF71DFD0546094B5B6A40
:1017400013F0020FC3D0FEF715FD401B0228F5D998
:1017500003201DE140F2B711034801F06BF9C0E727
:101760000025CEE7001002407C4200080000424203
:101770008004424200700040874A136843F480733B
:101780001360FEF7F7FC0646834B1B6813F4807F5B
:10179000BCD1FEF7EFFC801B6428F5D90320F7E0ED
:1017A0007E4A136A43F001031362E36833B3FEF722
:1017B000E1FC0646794B1B6A13F0020F2FD1FEF7AE
:1017C000D9FC801B41F288339842F3D90320DFE033
:1017D000052B09D0714B1A6A22F001021A621A6AAB
:1017E00022F004021A62E0E76C4B1A6A42F004022B
:1017F0001A621A6A42F001021A62D6E7FEF7BAFCD0
:101800000646664B1B6A13F0020F08D0FEF7B2FCC7
:10181000801B41F288339842F3D90320B8E0002DB1
:1018200053D1E369022B56D8E369002B00F0AF8057
:101830005A4A526802F00C02082A00F0AB80022BD0
:1018400040F08F80236A13B1B3F5803F49D1636ABA
:101850004BB3B3F5802F26D0B3F5002F23D0B3F5CB
:10186000402F20D0B3F5801F1DD0B3F5A01F1AD094
:10187000B3F5C01F17D0B3F5E01F14D0B3F5001FA8
:1018800011D0B3F5101F0ED0B3F5201F0BD0B3F558
:10189000301F08D0B3F5401F05D0B3F5501F02D05C
:1018A000B3F5601F23D13E4B00221A60FEF762FCA5
:1018B00005463A4B1B6813F0007F1ED0FEF75AFC1A
:1018C000401B0228F5D9032062E0344AD36923F093
:1018D0008053D361A5E740F25521324801F0AAF8C0
:1018E000A2E740F25E212F4801F0A4F8AFE740F2F2
:1018F0005F212C4801F09EF8D5E7236AB3F5803FBD
:101900001AD026494B6823F47413226A606A024392
:1019100013434B60224B01221A60FEF72BFC044656
:101920001E4B1B6813F0007F19D1FEF723FC001B30
:101930000228F5D903202BE0A36813B1B3F5003FCB
:1019400007D1164A536823F40033A1680B43536050
:10195000D7E740F27521134801F06CF8F1E7002059
:1019600016E00F4B00221A60FEF704FC04460B4BF6
:101970001B6813F0007F06D0FEF7FCFB001B02285B
:10198000F5D9032004E0002002E0012000E000205F
:1019900002B070BD0120FBE7007000400010024063
:1019A000600042427C42000810B487B0184C94E8B2
:1019B0000F000DF1180C0CE90F00238AADF804306C
:1019C000144B5B6803F00C02042A03D0082A05D0EC
:1019D000114800E0114807B010BC7047C3F38342C0
:1019E00006A90A4412F8100C13F4803F0CD0094BDE
:1019F0005B68C3F340430B4413F8142C074BB3FB51
:101A0000F2F300FB03F0E6E7054B03FB00F0E2E72F
:101A1000684200080010024000127A0000A24A0446
:101A200000093D0070B50D460446C0B1236813F0AF
:101A30000F0F1AD0022D1ED8854B1B6803F0070329
:101A4000AB421ED2824A136823F007032B43136074
:101A5000136803F00703AB4213D0012070BD40F2BE
:101A6000CA217C4800F0E6FFE0E740F2CB2179484C
:101A700000F0E0FFDEE74FF43371764800F0DAFF64
:101A8000DAE7236813F0020F18D0A3687BB1802B2C
:101A90000DD0902B0BD0A02B09D0B02B07D0C02B92
:101AA00005D0D02B03D0E02B01D0F02B34D16A4AE3
:101AB000536823F0F003A1680B435360236813F0CD
:101AC000010F61D06368022B2CD86368012B2FD0E3
:101AD000022B34D0604A126812F0020F00F0B68078
:101AE0005D494A6822F0030213434B60FEF742FB54
:101AF00006466368012B29D0022B36D0564B5B6813
:101B000013F00C0F40D0FEF735FB801B41F28833F9
:101B10009842F3D90320A1E740F2E5214D4800F0B7
:101B200089FFC4E74FF43B714A4800F083FFCCE7DC
:101B3000494A126812F4003FD2D101208EE7464A8A
:101B4000126812F0007FCBD1012087E7424B5B681F
:101B500003F00C03042B17D0FEF70CFB801B41F2A3
:101B600088339842F2D9032078E73B4B5B6803F057
:101B70000C03082B08D0FEF7FDFA801B41F28833D6
:101B80009842F2D9032069E7314B1B6803F0070341
:101B9000AB420CD92E4A136823F007032B43136082
:101BA000136803F00703AB4201D0012056E7236816
:101BB00013F0040F14D0E3685BB1B3F5806F08D065
:101BC000B3F5A06F05D0B3F5C06F02D0B3F5E06FE9
:101BD00030D1214A536823F4E063E1680B4353603A
:101BE000236813F0080F15D023695BB1B3F5806F3C
:101BF00008D0B3F5A06F05D0B3F5C06F02D0B3F530
:101C0000E06F1DD1144A536823F46053216943EAFD
:101C1000C1035360FFF7C8FE0F4B5B68C3F30313A8
:101C20000E4AD35CD8400E4B1860002000F0C2FF73
:101C3000002013E74FF45071064800F0FBFEC8E7A0
:101C400040F24731034800F0F5FEDBE7012005E7ED
:101C5000002002407C42000800100240D0430008EF
:101C600000000020014B1868704700BF00000020F2
:101C700008B5FFF7F7FF044B5B68C3F30223034A81
:101C8000D35CD84008BD00BF00100240E04300080C
:101C900008B5FFF7E7FF044B5B68C3F3C223034AB1
:101CA000D35CD84008BD00BF00100240E0430008EC
:101CB00038B50D460446D0B1FDB10F232360124B59
:101CC0005A6802F0030262605A6802F0F002A260F1
:101CD0005A6802F4E062E2605B68DB0803F4E063E8
:101CE00023610A4B1B6803F007032B6038BD40F2E9
:101CF000BF41074800F09EFEDEE74FF498610448BC
:101D000000F098FED9E700BF00100240002002401A
:101D10007C42000870B582B00446036813F0130FCC
:101D20006DD0236813F0010F3FD0636843B1B3F562
:101D3000807F05D0B3F5007F02D0B3F5407F63D13B
:101D4000504BDB6913F0805F63D14E4BDA6942F090
:101D50008052DA61DB6903F080530193019B012516
:101D6000494B1B6813F4807F55D0464B1B6A13F414
:101D7000407311D0626802F440729A420CD0414A1A
:101D8000136A23F44070414901260E6000260E605C
:101D9000106213F0010F52D13A4A136A23F44073D0
:101DA00061680B431362002D5AD1236813F0020FB0
:101DB00011D0A36843B1B3F5804F05D0B3F5004F00
:101DC00002D0B3F5404F50D12E4A536823F440431C
:101DD000A1680B435360236813F0100F50D0E368E1
:101DE000B3F5800F01D0002B44D1264A536823F469
:101DF0008003E1680B435360002002B070BD7E2178
:101E0000234800F017FE8CE78421214800F012FEE1
:101E100096E70025A4E71C4A136843F48073136017
:101E2000FEF7A8F90646184B1B6813F4807F9CD177
:101E3000FEF7A0F9801B6428F5D90320DDE7FEF743
:101E400099F906460F4B1B6A13F0020FA4D1FEF757
:101E500091F9801B41F288339842F3D90320CCE7F3
:101E6000D36923F08053D3619FE7CB21084800F06A
:101E7000E1FDA9E740F22711054800F0DBFDB4E7DA
:101E80000020BAE7001002400070004040044242C7
:101E9000B44200087047000010B5044603680F4ABA
:101EA00093420FD0B3F1804F0CD0A2F594329342FD
:101EB00008D002F58062934204D040F25F110848D6
:101EC00000F0B8FD2268D36843F00103D3602268B4
:101ED000136843F001031360002010BD002C014083
:101EE000F0420008704770477047704710B50446CD
:101EF00003681A6912F0020F11D0DA6812F0020FAB
:101F00000DD06FF002021A610123037703689B6909
:101F100013F0030F70D0FFF7E6FF00232377236849
:101F20001A6912F0040F12D0DA6812F0040F0ED002
:101F30006FF004021A610223237723689B6913F46C
:101F4000407F5FD02046FFF7CEFF00232377236832
:101F50001A6912F0080F12D0DA6812F0080F0ED0CA
:101F60006FF008021A61042323772368DB6913F0FA
:101F7000030F4ED02046FFF7B6FF002323772368D8
:101F80001A6912F0100F12D0DA6812F0100F0ED08A
:101F90006FF010021A61082323772368DB6913F4BA
:101FA000407F3DD02046FFF79EFF00232377236824
:101FB0001A6912F0010F03D0DA6812F0010F36D15E
:101FC00023681A6912F0800F03D0DA6812F0800FCC
:101FD00034D123681A6912F0400F03D0DA6812F086
:101FE000400F32D123681A6912F0200F03D0DA684B
:101FF00012F0200F30D110BDFFF774FF2046FFF71D
:1020000073FF8AE72046FFF76DFF2046FFF76CFF5E
:102010009BE72046FFF766FF2046FFF765FFACE72A
:102020002046FFF75FFF2046FFF75EFFBDE76FF03A
:1020300001021A61204600F013FCC1E76FF0800234
:102040001A61204600F0A3F8C3E76FF040021A615E
:102050002046FFF74AFFC5E76FF020021A612046CD
:1020600000F094F8C7E7000003681B4A90420AD0CA
:10207000B0F1804F07D0A2F59432904203D002F520
:102080008062904203D123F070034A681343124ADE
:1020900090420AD0B0F1804F07D0A2F5943290421E
:1020A00003D002F58062904203D123F44073CA68E2
:1020B000134323F080034A69134303608B68C362B0
:1020C0000B688362044B984202D00123436170473E
:1020D0000B690363F9E700BF002C014000284ED0D4
:1020E00010B504460368274A93420ED0B3F1804FDF
:1020F0000BD0A2F59432934207D002F5806293424E
:1021000003D0D721204800F095FCA3683BB1102BE9
:1021100005D0202B03D0402B01D0602B1AD123698E
:102120002BB1B3F5807F02D0B3F5007F17D1A3693F
:102130000BB1802B18D194F83D30D3B1022384F831
:102140003D30211D2068FFF78FFF012384F83D30CB
:10215000002010BDD8210C4800F06CFCDFE7D9212D
:10216000094800F067FCE2E7DA21074800F062FC6A
:10217000E1E784F83C302046FFF78CFEDEE70120E3
:10218000704700BF002C0140F042000870477047C4
:102190002DE9F843044642687E4B9A4200F2918052
:1021A000E3681BB1B3F5005F40F09180236933B160
:1021B000B3F5806F03D0B3F5C06F40F08E806369D4
:1021C0004FF6F372134200D123B940F6AC117248B6
:1021D00000F030FC2268136923F44053E1680B439C
:1021E0001361A36822691343626913432168CA68B3
:1021F00022F4B05222F00C021343CB6022685369E0
:1022000023F44073A1690B4353612268634B9A42E4
:1022100069D0FFF72DFD00EB800000EB80006568C2
:10222000AD00B0FBF5F55E4FA7FB05356D092E013E
:10223000FFF71EFD00EB800000EB80006568AD003D
:10224000B0FBF5F9FFF714FD00EB800000EB800018
:102250006568AD00B0FBF5F5A7FB05356D094FF0DE
:10226000640808FB15952D013235A7FB05356D096E
:1022700005F0F0053544FFF7FBFC00EB800000EBB8
:1022800080006668B600B0FBF6F6FFF7F1FC00EBE5
:10229000800000EB800063689B00B0FBF3F0A7FBBD
:1022A0000030400908FB10684FEA081808F13208AE
:1022B000A7FB0837C7F3431723682F449F60BDE887
:1022C000F88340F6A911344800F0B4FB68E740F603
:1022D000AA11314800F0AEFB68E740F6AB112E487A
:1022E00000F0A8FB6BE7FFF7D3FC00EB800000EBEE
:1022F00080006568AD00B0FBF5F5294FA7FB0535FB
:102300006D092E01FFF7C4FC00EB800000EB80009C
:102310006568AD00B0FBF5F9FFF7BAFC00EB800093
:1023200000EB80006568AD00B0FBF5F5A7FB053557
:102330006D094FF0640808FB15952D013235A7FB98
:1023400005356D0905F0F0053544FFF7A1FC00EBFC
:10235000800000EB80006668B600B0FBF6F6FFF781
:1023600097FC00EB800000EB800063689B00B0FBF3
:10237000F3F0A7FB0030400908FB10684FEA08188B
:1023800008F13208A7FB0837C7F3431723682F4427
:102390009F6094E720AA44002843000800380140C9
:1023A0001F85EB5100286CD010B5044683690BB330
:1023B0000368354A93420CD0A2F57442934208D088
:1023C00002F58062934204D040F211112F4800F0D0
:1023D00031FBA369FBB1B3F5807F1CD0B3F5007F5F
:1023E00019D0B3F5407F16D04FF48971274800F01B
:1023F00021FB10E00368244A93420CD0A2F57442FA
:10240000934208D002F58062934204D04FF48B715E
:102410001E4800F00FFBA36813B1B3F5805F24D111
:1024200094F839303BB3242384F839302268D368D8
:1024300023F40053D3602046FFF7AAFE22681369F5
:1024400023F4904313612268536923F02A035361F4
:102450002268D36843F40053D3600020E063202354
:1024600084F8393084F83A3010BD4FF48C71074845
:1024700000F0E0FAD4E784F83830204600F06CFB36
:10248000D1E70120704700BF003801402843000811
:10249000002103E00A4B5B584350043109480A4BC2
:1024A00042189A42F6D3094A02E0002342F8043B5C
:1024B000074B9A42F9D300F0CBFB00F095FA704736
:1024C00024440008000000206C0000206C00002064
:1024D000E80E0020FEE70000F0B585B00C46174678
:1024E00004AA02F8010D094E0A2500950123D02106
:1024F0003068FEF777FD3068009523463A46D021D4
:10250000FEF732FE60B205B0F0BD00BFC80D00207E
:1025100008B50A460121FFF7DFFF08BDF0B585B019
:102520000F46164604AA02F8010D084D0A2400942D
:102530000123D0212868FEF755FD286800943B460A
:102540003246D021FEF74EFD05B0F0BDC80D00208B
:1025500000B583B002AA02F8011D0121FFF7DEFFDA
:1025600003B05DF804FB02B97047F0B583B01746BD
:102570001D460C46064602A9002301F8013DFFF75F
:10258000C7FF08B903B0F0BD0123BB40013BE11B0D
:1025900001318B4005FA01F1C9B219409DF80720BD
:1025A00022EA030319438DF807103046FFF7D0FFE6
:1025B000E8E770B582B004460D4616460DF10701F6
:1025C000FFF7A6FF6EB9012101FA05F39DF8071088
:1025D00021EA03018DF807102046FFF7B9FF02B08A
:1025E00070BD012101FA05F39DF807101943C9B226
:1025F000F0E708B5012205216B20FFF7DAFF002282
:1026000006216B20FFF7D5FF08BD000008B5174B6A
:102610001860FEF7EFFB01231A4607216B20FFF736
:10262000A2FF642000F0A3FDFFF7E3FF0A2000F003
:102630009EFD0123032202216B20FFF794FF032359
:102640001A4602211A20FFF78EFF04211920FFF7F6
:102650007FFF0323022204211B20FFF784FF0023B6
:10266000022204211C20FFF77EFF08BDC80D0020B8
:102670002DE9F04180460F4616461D46144C224671
:102680000E213B20FFF728FF2278637843EA0223DC
:10269000A8F80030A278E37843EA02233B8022794D
:1026A000637943EA02233380227A637A43EA02237E
:1026B0002B80A27AE37A43EA0223069A1380227BD4
:1026C000637B43EA0223079A1380BDE8F08100BFD1
:1026D000CC0D002010B5044601F058F90146204603
:1026E00000F042F80121024800F03EF810BD00BFA2
:1026F000604300082DE9F04385B00F46194B1B6875
:1027000013F0010F0BD00446435643BB0425284663
:102710002146ABBE0446384605B0BDE8F083084606
:10272000FAE714F9011B04AA1A4402F8101C013339
:10273000AB42F6D304AA1344002203F8102C4FF046
:102740000408E94640464946ABBE8046761B002E4B
:10275000E1D03546102E28BF10250023E8E70E46AD
:10276000F5E700BFF0ED00E008B5FFF7C3FF08BDD7
:1027700084B00F4B9A6942F004029A619A6902F0A0
:1027800004020192019A9A6942F008029A619A69D8
:1027900002F008020292029A9A6942F010029A61CB
:1027A0009B6903F010030393039B04B0704700BFC1
:1027B0000010024000B5A1B02648FFF727FFFA201D
:1027C00000F0D5FC4FF400530A9303230C9301232C
:1027D0000B9302230D930AA91F48FDF765FF07AB72
:1027E00001930DF11E03009308AB0DF1220209A91C
:1027F0000DF12600FFF73CFFBDF82630BDF81C2088
:102800000492BDF81E200392BDF820200292BDF86C
:1028100022200192BDF824200092104A46210EA8E1
:1028200001F080F80EA8FFF755FF0B4C01224FF482
:1028300000512046FEF7C6F8C82000F098FC0022A0
:102840004FF400512046FEF7BDF8C82000F08FFC81
:10285000C5E700BFE00D00200010014088430008DC
:1028600008B50268034B9A4200D008BDFDF77AFC18
:10287000FBE700BF002C014008B5FFF72BFFFEE788
:1028800008B50C480C4B03600C4B4360002383607D
:10289000C3604FF48042026143618361C36103629C
:1028A000FEF7A8FA00B908BD40F211110448FFF77D
:1028B000E3FF00BFE00D002000540040A0860100AF
:1028C0007843000800B585B01248134B036000231D
:1028D0008360C36043614FF46022C261436001239F
:1028E0000361FDF73BFD60B90023019301220292D1
:1028F000039301A90748FDF743FC30B905B05DF823
:1029000004FBF3210548FFF7B7FFFD210348FFF75C
:10291000B3FF00BF340E00200024014078430008BC
:1029200008B50B480B4B03604FF4E13343600023C1
:102930008360C36003610C2242618361C361FFF75E
:1029400031FD00B908BD4FF492710348FFF794FFC1
:10295000640E0020003801407843000800B595B0AF
:1029600002230A9301230E9310230F930023119344
:102970000AA8FEF789FD30BB0F23059300210691BD
:1029800007910891099105A8FFF74CF8F8B90223BF
:1029900001930023039301A8FFF7BCF9D8B9FFF70F
:1029A00061F90F4BA3FB00308009FDF749FE0420BD
:1029B000FDF75CFE00220F214FF0FF30FDF7E4FD34
:1029C00015B05DF804FBBE210648FFF755FFCC218A
:1029D0000448FFF751FFD3210248FFF74DFF00BF26
:1029E000D34D62107843000800B587B0FDF7A8FB0F
:1029F000FFF7B4FFFFF7BCFEFFF742FFFFF762FFF0
:102A0000FFF78EFF01AC084D0FCD0FC42B6823607C
:102A1000002101A800F091FB044B18600448FFF767
:102A200059FE00F085FBFEE764430008DC0D002042
:102A3000BC4300087047000000B583B0214B9A6981
:102A400042F001029A619B6903F001030193019B2B
:102A50000320FDF77BFD002211466FF00B00FDF710
:102A600093FD002211466FF00A00FDF78DFD002254
:102A700011466FF00900FDF787FD002211466FF047
:102A80000400FDF781FD002211466FF00300FDF701
:102A90007BFD00220F216FF00100FDF775FD002284
:102AA0000F214FF0FF30FDF76FFD074B5A6822F002
:102AB000E0625A605A6842F000725A6003B05DF8F2
:102AC00004FB00BF001002400000014002680E4BF2
:102AD0009A4200D0704700B587B003F56C439A69FD
:102AE00042F400729A619B6903F400730193019BA5
:102AF000012302930323039302A90448FDF7D4FDA5
:102B000007B05DF804FB00BF00240140000801404D
:102B100002680E4B9A4200D0704700B587B0C023C0
:102B20000293122303930323059302A90848FDF798
:102B3000BBFD084BDA6942F40012DA61DB6903F489
:102B400000130193019B07B05DF804FB00540040A3
:102B5000000C0140001002400268144B9A4200D061
:102B6000704710B586B003F558439A6942F4804225
:102B70009A619B6903F480430193019B4FF40073B6
:102B800002930223039303230593094C02A92046D1
:102B9000FDF78AFD4FF480630293002303930493AF
:102BA00002A92046FDF780FD06B010BD00380140A7
:102BB0000008014000B589B0002201461920FDF748
:102BC000E3FC1920FDF726FD144B9A6942F40062DC
:102BD0009A619B6903F400630193019B02A903A816
:102BE000FFF766F8FFF754F80D4BA3FB00239B0C8F
:102BF000013B0C480C4A026040F2E732C26043607D
:102C0000002303618360FFF769FA18B1012009B05E
:102C10005DF804FB0348FFF73FF9F8E700100240B6
:102C200083DE1B43A40E0020002C01407047FEE70A
:102C3000FEE7FEE7FEE7704708B500F0A1FA08BD21
:102C400008B50248FFF752F908BD00BFA40E0020E6
:102C50000F4B1A6842F001021A6059680D4A0A4087
:102C60005A601A6822F0847222F480321A601A685C
:102C700022F480221A605A6822F4FE025A604FF44D
:102C80001F029A60044B4FF000629A60704700BFC9
:102C9000001002400000FFF800ED00E0124A12F0C0
:102CA000070F1ED0D11D21F00701C1F54063134469
:102CB0000A460E480260002141601344083B23F09D
:102CC00007030B48036059601960991A516013603B
:102CD000084B1960084B1960084B4FF000421A600E
:102CE00070474FF44063E4E7700000207C0C002044
:102CF0006C000020780C0020740C0020700C002068
:102D000010B4124B1A6882421AD359685C18844274
:102D100003D1406801445960184641684418A242F2
:102D200012D10B4C2468A2420CD05268114441606D
:102D30001A6812680260984200D0186010BC704790
:102D40001346DFE70460F6E70260F4E77C0C00203E
:102D50006C00002070B5044600F006FC3A4B1B687E
:102D6000BBB13A4B1B681C4263D1ACB1083414F0C0
:102D7000070F11D024F00704083404F007035BB1F7
:102D80004FF0500383F31188BFF36F8FBFF34F8F62
:102D9000FEE7FFF783FFE4E7002C4CD02C4B1B68C9
:102DA000A3424AD32B4B1D6801E02B4615466A68A7
:102DB000A24202D22A68002AF7D1234A1268AA4204
:102DC0003DD01E6808362A681A606B681B1B102BE2
:102DD00010D9281910F0070F08D04FF0500383F3D3
:102DE0001188BFF36F8FBFF34F8FFEE743606C60B6
:102DF000FFF786FF6A6816490B689B1A0B60164935
:102E000009688B4201D214490B60104B1B681343B5
:102E10006B6000232B6000F03BFC16F0070F10D016
:102E20004FF0500383F31188BFF36F8FBFF34F8FC1
:102E3000FEE70026EFE70026EDE70026EBE7002699
:102E4000E9E7304670BD00BF6C000020700C002028
:102E5000740C00207C0C0020780C002080B338B566
:102E60000446A0F1080550F8042C164909680A42E6
:102E700008D14FF0500383F31188BFF36F8FBFF376
:102E80004F8FFEE750F8080C40B14FF0500383F32A
:102E90001188BFF36F8FBFF34F8FFEE722EA010265
:102EA00044F8042C00F060FB54F8041C064A136834
:102EB0000B4413602846FFF723FF00F0E9FB38BD01
:102EC000704700BF700C0020740C00200B4B1B6877
:102ED000B3F1FF3F08D04FF0500383F31188BFF3E5
:102EE0006F8FBFF34F8FFEE74FF0500383F31188CE
:102EF000BFF36F8FBFF34F8FFEE700BF04000020CA
:102F000006480068006880F3088862B661B6BFF3BF
:102F10004F8FBFF36F8F00DF00BF000008ED00E0B0
:102F20004FF0807340F8043C21F0010140F8081C88
:102F3000034B40F80C3C40F8202C4038704700BF51
:102F4000CD2E00080000000000000000000000007E
:102F5000074B19680868B0E8F00F80F30988BFF3E1
:102F60006F8F4FF0000080F311884EF00D0E704708
:102F70008C0C00204FF0500383F31188BFF36F8F48
:102F8000BFF34F8F0A4A136801331360012B00D03F
:102F90007047084B1B6813F0FF0FF9D04FF0500338
:102FA00083F31188BFF36F8FBFF34F8FFEE700BF2E
:102FB0000400002004ED00E0094B1B6843B94FF00A
:102FC000500383F31188BFF36F8FBFF34F8FFEE77A
:102FD000013B034A13600BB983F31188704700BFAC
:102FE00004000020000000000000000000000000BD
:102FF000EFF30980BFF36F8F0D4B1A6820E9F00FD4
:1030000010602DE908404FF0500080F3118800F067
:1030100021FC4FF0000080F31188BDE808401968DA
:103020000868B0E8F00F80F30988BFF36F8F70472E
:103030008C0C002008B54FF0500383F31188BFF3C8
:103040006F8FBFF34F8F00F097FA18B1034B4FF01B
:1030500080521A60002383F3118808BD04ED00E05C
:10306000064B1B68064AA2FB03239B09013B054A4A
:103070001360054B07221A60704700BF0000002054
:10308000D34D621014E000E010E000E000B583B022
:103090001F4B1A78D2B20192FF221A701B78DBB252
:1030A0008DF803309DF8033003F05003194A137074
:1030B000194B07221A6009E0174A1368013B136095
:1030C0009DF803305B00DBB28DF803309DF80330D0
:1030D00013F0800FF0D1104A13681B0203F4E06371
:1030E0001360019BDBB20A4A13700C4B1A6842F45E
:1030F00070021A601A6842F070421A60FFF7B0FF5F
:10310000074B00221A60FFF7FBFEFFF7DFFE00BF50
:1031100000E400E0840C0020880C002020ED00E09A
:1031200004000020842801D003307047002070473D
:1031300008B500F0DBF9002008BDF0B585B00F46FA
:10314000446805680669B0F90800FFF7EBFF03ABB8
:10315000019300903B46B2B22946204600F094F914
:10316000012802D1039805B0F0BD0020FBE708B5A7
:10317000034600B90123184600F004FB002008BDF7
:1031800008B500F0B3FB012801D0FFF753FF08BDDD
:1031900000F1080343604FF0FF328260C3600361B7
:1031A00000230360704700230361704743684B604E
:1031B0009A688A609A68516099600861036801336F
:1031C0000360704730B40D68B5F1FF3F02D000F1E5
:1031D000080202E0026904E01A4653681C68AC4227
:1031E000FAD953684B6099608A605160086103683E
:1031F0000133036030BC70470369426881689160A5
:103200008268416851605A68824205D0002202619A
:10321000186801381860704782685A60F6E7000045
:10322000084B1B681B683BB1064B1B68DB68DB68FF
:103230005A68054B1A607047034B4FF0FF321A6013
:10324000704700BF900C0020680D002010B50446A8
:10325000006BFFF703FE2046FFF700FE10BD2DE9CF
:10326000F04780469946089D099F0A9C266B02F10B
:103270008042013A06EB820626F0070600230F2B58
:1032800007D8C856E21882F83400CA560AB101338A
:10329000F5E7002384F84330062D00D90625E562C2
:1032A00065644FF0000AC4F848A0201DFFF77BFFBB
:1032B00004F11800FFF777FF2461C5F10705A56148
:1032C0006462C4F84CA084F850A04A464146304697
:1032D000FFF726FE206007B13C60BDE8F0870000E4
:1032E00038B5002407E004EB840293000E4818442C
:1032F000FFF74EFF0134062CF5D90C4D2846FFF799
:1033000047FF0B4C2046FFF743FF0A48FFF740FFFB
:103310000948FFF73DFF0948FFF73AFF084B1D60DA
:10332000084B1C6038BD00BF980C00203C0D0020ED
:10333000500D0020700D00209C0D0020880D0020F5
:10334000900C0020940C002010B50446FFF712FEEC
:10335000204A1368013313601F4B1B685BB11F4B7E
:103360001B686BB91C4B1B68DA6AE36A9A4207D880
:10337000194B1C6004E0184B1C601368012B26D00D
:10338000174A136801331360E36A01229A40154912
:10339000086802430A6003EB83039A00211D124868
:1033A0001044FFF703FFFFF707FE0C4B1B686BB1E0
:1033B000094B1B68DA6AE36A9A4207D20B4B4FF05B
:1033C00080521A60BFF34F8FBFF36F8F10BDFFF7AE
:1033D00087FFD5E7240D00208C0C0020840D0020F1
:1033E000340D0020380D0020980C002004ED00E082
:1033F00070B504460E461D4B1D681D4B1868043001
:10340000FFF7FAFE50B91A4B1B68DA6A012303FA78
:1034100002F218490B6823EA02030B60B4F1FF3F84
:1034200013D02C44124B1B685C60A54216D8124B7B
:1034300018680F4B19680431FFF7C4FE0F4B1B6867
:10344000A34212D90D4B1C600FE0002EE9D0084BAF
:10345000196804310A48FFF7A9FE06E0094B18680D
:10346000034B19680431FFF7ADFE70BDB00D0020AD
:103470008C0C0020380D0020900C0020680D0020DE
:10348000880D0020940C00202DE9F04385B00746FC
:103490008846154699469000FFF75CFCF8B1064651
:1034A0005420FFF757FC0446A8B10663D4B10023AB
:1034B000039302940D9B01930C9B00934B462A4669
:1034C00041463846FFF7CBFE2046FFF73DFF01207F
:1034D00005B0BDE8F0833046FFF7C0FCE6E74FF0EB
:1034E000FF30F5E74FF0FF30F2E7000000B583B0A2
:1034F000174B019300230093802216491648FFF7CB
:10350000C3FF012805D0B0F1FF3F17D003B05DF82D
:1035100004FB4FF0500383F31188BFF36F8FBFF3A9
:103520004F8F0E4B4FF0FF321A600D4B01221A6085
:103530000C4B00221A60FFF7A9FDE7E74FF050039C
:1035400083F31188BFF36F8FBFF34F8FFEE700BF88
:10355000640D0020E84300082D380008680D0020A5
:10356000840D0020B00D0020024A1368013313605F
:10357000704700BF300D0020F8B53A4B1B68002B98
:1035800064D1394B1D6801351D60C5B9374B1B68C7
:103590001B6843B14FF0500383F31188BFF36F8F63
:1035A000BFF34F8FFEE7314A1168314B1868106046
:1035B0001960304A136801331360FFF731FE2E4B58
:1035C0001B68AB4238D900242C4B1B68DB6A03EB29
:1035D00083039A002A4B9B58012B3CD901243AE0E3
:1035E0000124224B1B681B6843B3204B1B68DB681C
:1035F000DE6873689D4226D3371D3846FFF7FCFD11
:10360000B36A1BB106F11800FFF7F6FDF36A012259
:103610009A401C49086802430A6003EB83039A003E
:10362000394617481044FFF7C1FDF26A134B1B6877
:10363000DB6A9A42D4D2D4E70024D2E70E4B4FF093
:10364000FF321A60C0E70C4A1360BDE70E4A1368E8
:103650000133136000240D4B1B6803B10124204685
:10366000F8BD00BF300D0020B00D0020900C0020F0
:10367000940C00206C0D0020680D00208C0C0020A4
:10368000980C0020380D00202C0D0020B40D0020D7
:1036900038B5334B1B6843B94FF0500383F311889F
:1036A000BFF36F8FBFF34F8FFEE7FFF763FC2C4B29
:1036B0001A68013A1A601B68002B4DD1294B1B6810
:1036C00023B90024FFF778FC204638BD0024264BA0
:1036D0001B681BB3244BDB68DC6804F11800FFF7A0
:1036E0008BFD251D2846FFF787FDE36A01229A40DE
:1036F0001E49086802430A6003EB83039A002946C7
:103700001B481044FFF752FDE26A1A4B1B68DB6A44
:103710009A42DCD3184B01221A60D8E70CB1FFF7AC
:103720007FFD164B1C6854B1FFF726FF10B1124BFA
:1037300001221A60013CF7D1104B00221A600E4B97
:103740001B685BB10E4B4FF080521A60BFF34F8F76
:10375000BFF36F8F0124B5E70024B3E70024B1E77E
:10376000300D0020240D0020700D0020380D0020A9
:10377000980C00208C0C0020B40D00202C0D002093
:1037800004ED00E010B5A8B104460F4B1B6843B12F
:103790004FF0500383F31188BFF36F8FBFF34F8F48
:1037A000FEE7FFF7E1FE00212046FFF721FEFFF7CD
:1037B0006FFF38B9054B4FF080521A60BFF34F8F3F
:1037C000BFF36F8F10BD00BF300D002004ED00E08F
:1037D000134B1B6813B310B5FFF7C6FE114B1C68E3
:1037E000FFF756FF24B90E4B1B68002BF4D110BD18
:1037F000FFF7C0FB0B4BDB68DC68201DFFF7FCFC10
:10380000094A1368013B1360054A1368013B1360C2
:10381000FFF7D2FB2046FFF719FDE4E7704700BF32
:10382000280D00209C0D0020240D002008B5FFF776
:10383000CFFF064B1B68012BF9D9054B4FF0805287
:103840001A60BFF34F8FBFF36F8FF0E7980C002023
:1038500004ED00E0204B1B681BB1204B01221A60D5
:1038600070471E4B00221A601D4B1B68B3FA83F38E
:10387000DBB2C3F11F0303EB83018A0019498A58A5
:1038800042B94FF0500383F31188BFF36F8FBFF33A
:103890004F8FFEE710B413489A00D418A1000144DA
:1038A0004C6864684C601A449100083108448442B2
:1038B0000AD003EB83039A000A4B13445B68DA686F
:1038C000094B1A6010BC704761680648142202FB5D
:1038D00003025160EDE700BF300D0020B40D002061
:1038E000380D0020980C00208C0C0020054B1B6824
:1038F00033B1054B1B680BB10020704702207047A5
:1039000001207047840D0020300D002010B5431EAB
:103910000A44914200D110BD11F8014B03F8014F48
:10392000F7E700000CB430B5174B0C1E9DB01D68B6
:1039300008DA8B234FF0FF302B601DB0BDE830401C
:1039400002B070474FF40273ADF814300CBF234639
:1039500004F1FF33049307934FF6FF730290069030
:10396000ADF81630209A21AB02A92846019300F049
:103970006FF8431CBCBF8B232B60002CDDD00022D2
:10398000029B1A70D9E700BF08000020034613F815
:10399000012B002AFBD1181A013870472DE9F04796
:1039A0008E6882469E420C469046994637D88A8950
:1039B00012F4906F31D00223256809696F1A656986
:1039C00005EB450595FBF3F509F101033B449D42E9
:1039D00038BF1D46530530D5294600F02BFB06465F
:1039E00050B90C234FF0FF30CAF80030A38943F0E0
:1039F0004003A381BDE8F0873A462169FFF786FFBF
:103A0000A38923F4906343F08003A38126613E449D
:103A100026604E466561ED1BA5604E4500D94E46B9
:103A200032464146206800F09FFAA36800209B1BA5
:103A3000A36023681E442660DCE72A4600F054FB9E
:103A400006460028E2D12169504600F0A7FAC8E7EF
:103A50002DE9F04F9DB003938B8980461D060C46DF
:103A600016460FD50B696BB9402100F0E3FA2060D0
:103A7000206128B90C23C8F800304FF0FF30C7E0B0
:103A8000402363610023099320238DF829303023DC
:103A90004FF0010B8DF82A3037463D4615F8013BB3
:103AA0000BB1252B3ED1B7EB060A0BD0534632465D
:103AB00021464046FFF772FF013000F0A480099BC9
:103AC000534409933B78002B00F09D8000234FF076
:103AD000FF32CDE90523049307938DF853301A93F1
:103AE0002F46052217F8011B4F4800F02FFA049BC0
:103AF000D0B9D90644BF20228DF853201A0744BFFD
:103B00002B228DF853202A782A2A15D02F46002000
:103B10000A25079A394611F8013B303B092B4DD94C
:103B2000B8B10FE02F46B8E73F4A3D46801A0BFA7E
:103B300000F018430490D3E7039A111D1268039113
:103B4000002A01DB079204E0524243F0020307928D
:103B500004933B782E2B0CD17B782A2B33D1039BFB
:103B600002371A1D1B680392002BB8BF4FF0FF33BA
:103B700005932E4D03223978284600F0E7F938B135
:103B80004023401B03FA00F0049B013703430493D6
:103B90003978062226487E1C8DF8281000F0D6F9C8
:103BA000002838D0234B13BB039B073323F00703B4
:103BB00008330393099B4B4409936DE705FB0232DD
:103BC00001200F46A6E700230A2519460137059371
:103BD000384610F8012B303A092A03D9002BC8D0F7
:103BE0000591C6E705FB012101230746F0E703AB7A
:103BF00000932246104B04A94046AFF30080B0F179
:103C0000FF3F8146D6D1A3895B063FF536AF0998C1
:103C10001DB0BDE8F08F03AB00932246064B04A90C
:103C2000404600F081F8EAE7F0430008F643000858
:103C3000FA430008000000009D3900082DE9F04714
:103C400091461F468A680B6906469342B8BF1346E1
:103C5000C9F8003091F843200C46DDF8208012B1FD
:103C60000133C9F800302368990642BFD9F8003003
:103C70000233C9F80030256815F0060507D104F1B4
:103C8000190AE368D9F800209B1AAB4229DC94F8A2
:103C900043302268003318BF012392062ED404F16A
:103CA000430239463046C047013021D02368E568D9
:103CB00003F00603042B18BF0025D9F800204FF0AD
:103CC000000908BFAD1AA368226908BF25EAE57597
:103CD0009342C4BF9B1AED181A344D451AD10020E7
:103CE00008E00123524639463046C047013003D12F
:103CF0004FF0FF30BDE8F0870135C2E73020E11812
:103D000081F843005A1C94F845102244023382F88B
:103D10004310C4E70123224639463046C0470130EC
:103D2000E6D009F10109D8E72DE9F04301F1430C90
:103D30000C46097E85B06E291746064698460C9AB1
:103D400000F0B38022D8632936D00AD8002900F0C9
:103D5000B980582900F0838004F1420584F84210AC
:103D600032E0642901D06929F6D12068136805067C
:103D700003F104012AD51B681160002B03DA2D2200
:103D80005B4284F843206F480A2239E0732900F02F
:103D90009D8008D86F2920D07029DDD1236843F099
:103DA0002003236003E0752917D07829D4D1782324
:103DB000654884F8453055E0136804F14205191D43
:103DC0001B68116084F8423001238CE01B6810F0FE
:103DD000400F116018BF1BB2CFE713682568181D8C
:103DE0001060280601D51B6802E06806FBD51B8819
:103DF0006F2914BF0A2208225248002184F8431078
:103E00006568002DA560C0F29580216821F004014D
:103E10002160002B3DD1002D40F08E806546082AA0
:103E20000BD12368DB0708D5236962689A42DEBF9D
:103E3000302305F8013C05F1FF35ACEB05032361A8
:103E4000CDF800803B4603AA21463046FFF7F6FE38
:103E500001304DD14FF0FF3005B0BDE8F083394857
:103E600084F84510136821681D1D1B6815600A063B
:103E70000BD5CA0744BF41F0200121601BB922685D
:103E800022F0200222601022B7E74D0648BF9BB205
:103E9000EFE76546B3FBF2F102FB1133C35C05F8B3
:103EA000013D0B460029F5D1B9E713682568181DB7
:103EB0006169106028061B6801D5196002E06A0676
:103EC000FBD51980002365462361B9E71368191DE6
:103ED00011601D6862680021284600F037F808B1BB
:103EE000401B606063682361002384F84330A7E7C8
:103EF00023692A4639463046C0470130AAD0236894
:103F00009B0713D4E068039B9842B8BF1846A3E709
:103F100001234A4639463046C04701309AD0013520
:103F2000E368039A9B1AAB42F2DCEBE7002504F14D
:103F30001909F5E7002BACD1037804F1420584F8A8
:103F400042306CE7014400081244000810B5C9B2C1
:103F500002449042034601D1002303E01C78013063
:103F60008C42F6D1184610BD884210B501EB020311
:103F700007D8421E99420AD011F8014B02F8014FAE
:103F8000F8E78342F5D98118D21AD34200D110BD87
:103F900013F8014D01F8014DF7E7000038B505466B
:103FA000002943D051F8043C0C1F002BB8BFE41883
:103FB00000F0D0F81E4A1368104633B963601460ED
:103FC0002846BDE8384000F0C6B8A3420BD92168A6
:103FD0006218934201BF1A685B68521822606360DE
:103FE0000460EDE713465A680AB1A242FAD919688B
:103FF0005818A0420BD12068014458188242196019
:10400000DED110685268014419605A60D8E702D9BD
:104010000C232B60D4E7206821188A4201BF116865
:1040200052680918216062605C60C9E738BD00BF52
:10403000B80D002070B5CD1C25F0030508350C2DFA
:1040400038BF0C25002D064601DBA94203D90C23FD
:104050003360002070BD00F07DF8214A14682146CD
:1040600091B9204C23681BB9304600F063F82060FA
:104070002946304600F05EF8431C24D10C2330461C
:10408000336000F068F8E4E70B685B1B18D40B2B77
:104090000FD90B60CC18CD50304600F05CF804F11D
:1040A0000B00231D20F00700C31AD3D05A42E25060
:1040B000D0E74B688C4216BF636013600C46EBE799
:1040C0000C464968CCE7C41C24F00304A04205D088
:1040D000211A304600F02EF80130CFD02560DBE702
:1040E000B80D0020BC0D0020F8B5074614460E465A
:1040F00021B9BDE8F8401146FFF79CBF22B9FFF790
:104100004DFF25462846F8BD00F026F8A0420FD204
:1041100021463846FFF78EFF05460028F2D031468B
:104120002246FFF7F3FB31463846FFF737FFE9E752
:104130003546E7E738B50023054C054608462360B9
:1041400000F012F8431C02D1236803B12B6038BD84
:10415000E40E00207047704751F8043C181F002BF4
:10416000BCBF0B58C0187047044A05491368002BA0
:1041700008BF0B461844106018467047C00D002059
:10418000E80E00202E2E2F73797374656D2F535413
:104190004D3332463178785F48414C5F44726976DE
:1041A00065722F5372632F73746D33326631787872
:1041B0005F68616C5F6164632E6300002E2E2F7355
:1041C000797374656D2F53544D3332463178785F6F
:1041D00048414C5F4472697665722F5372632F7346
:1041E000746D3332663178785F68616C5F636F72CB
:1041F0007465782E630000002E2E2F73797374651A
:104200006D2F53544D3332463178785F48414C5FBF
:104210004472697665722F5372632F73746D3332F3
:10422000663178785F68616C5F6770696F2E6300D4
:104230002E2E2F73797374656D2F53544D33324680
:104240003178785F48414C5F4472697665722F53CC
:1042500072632F73746D3332663178785F68616C86
:104260005F6932632E630000020304050607080934
:104270000A0B0C0D0E0F1010010200002E2E2F73D2
:10428000797374656D2F53544D3332463178785FAE
:1042900048414C5F4472697665722F5372632F7385
:1042A000746D3332663178785F68616C5F72636316
:1042B0002E6300002E2E2F73797374656D2F535467
:1042C0004D3332463178785F48414C5F44726976AD
:1042D00065722F5372632F73746D33326631787841
:1042E0005F68616C5F7263635F65782E63000000D6
:1042F0002E2E2F73797374656D2F53544D333246C0
:104300003178785F48414C5F4472697665722F530B
:1043100072632F73746D3332663178785F68616CC5
:104320005F74696D2E6300002E2E2F737973746590
:104330006D2F53544D3332463178785F48414C5F8E
:104340004472697665722F5372632F73746D3332C2
:10435000663178785F68616C5F756172742E630096
:104360000A000000C4430008B52700080000000050
:1043700000000000800000002E2E2F7372632F6D4E
:1043800061696E2E63000000616363783A25692CD1
:10439000616363793A25692C6163637A3A25692CF4
:1043A0006779726F783A25692C6779726F793A2547
:1043B000696779726F7A3A256900000074657374D1
:1043C0000000000064656661756C745461736B0075
:1043D00000000000000000000102030406070809B5
:1043E000000000000102030449444C4500000000A5
:1043F000232D302B2000686C4C00656667454647CE
:104400000030313233343536373839414243444550
:1044100046003031323334353637383961626364BF
:03442000656600CE
:1044240000A24A04AAAAAAAA0C00002000000000C4
:104434000000000000000000000000000000000078
:104444000000000000000000000000000000000068
:104454000000000000000000000000000000000058
:104464000000000000000000000000000000000048
:104474000000000000000000000000000000000038
:0C4484000000000000000000000000002C
:0400000508000140AE
:00000001FF
