:020000040800F2
:100000000050002005320008594400085B440008F5
:100010005D4400085F4400086144000800000000DF
:1000200000000000000000000000000091470008F0
:1000300063440008000000003148000865440008DF
:1000400049320008493200084932000849320008A4
:100050004932000849320008493200084932000894
:100060007D4400084932000849320008493200083E
:100070004932000849320008493200084932000874
:100080004932000849320008493200084932000864
:100090004932000849320008493200088744000804
:1000A000493200086D44000849320008493200080E
:1000B0004932000849320008493200084932000834
:1000C0004932000849320008493200084932000824
:1000D0004932000849320008493200084932000814
:1000E0004932000849320008493200080000000087
:1000F0000000000000000000000000000000000000
:0C01000000000000000000005FF808F1A3
:10010C00000070000000002400000002000300004A
:10011C0000650054FFEF0000FA80000B1282000112
:10012C00030C30C30E8C8CE914D5400213710F8E66
:10013C003883F8833000F883258EF8833000F883F9
:10014C00FFFFFFFF0FFEA9D6240004001A8279A13D
:10015C000000003CFFFF00000010000038836FA27D
:10016C00003E03304000000002CAE3093E8000005C
:10017C0020000000000000004000000060000000B3
:10018C00000C0000000C186E000006920A16C0DF6E
:10019C00FFFF0256FD8CD377FFE1C496E0C5BEAAE3
:1001AC0000000000FFFF0B2B000016570000035946
:1001BC004000000000001DFA00026C1D0000000051
:1001CC003FFFDFEB003EB3B6000D227800002F3C62
:1001DC0000000000001942B5000039A20000B36510
:1001EC00D90E9FC91DCF4C343000000050000000C8
:1001FC003BB67AE80064000000C800000000000074
:10020C00100000001000FA921000225E000D229FD8
:10021C000001000000320000FF46000063D4000023
:10022C001000000004D6000004CC000004CC000038
:10023C0000001072000000400000000000000000F0
:10024C00000600020005000700000000006400002A
:10025C000000000000000005000500640020000004
:10026C00000000000000000000004000000003003F
:10027C0000000032F8980000FF650000830F0000BA
:10028C00FF9BFC00000000000000000000000000CC
:10029C000000000000000000000000000000000052
:1002AC000000000000000000000000000000100032
:1002BC0040000000000000060000B26A00020000CE
:1002CC000001FB830068000000D9FC007CF1FF8377
:1002DC000000000000650000006403E800640028D2
:1002EC00000000250000000016A000000000100017
:1002FC0000001000002F0000000001F400001000AE
:10030C0000280000FFFF4581FFFFFA72000000008B
:10031C0000000000004400050005BAC6004778A2A2
:10032C0000000001000000000000060000000014A6
:10033C000000254D002F706D000005AE000C02D0A2
:10034C0000000000000000000000000000000000A1
:10035C00001B000000000000000000000000000076
:10036C000064000000080000000000000000000015
:10037C000000000000000000000000000000000071
:10038C000000000000000000000000000000000061
:10039C000000000000000000000000000000000051
:1003AC000000000000000000000000000000000041
:1003BC000000000000000000000000000000000031
:1003CC00001B00000000000000000000000E000EEA
:1003DC0000000AC70004000000000032FFFFFF9C71
:1003EC0000000B2B00000002000000010000006464
:1003FC00FFE500000000000000000000000000000D
:10040C0000000001000000000001000000000000DE
:10041C00000180000001800000018000002426D330
:10042C000000000000000000000600100096003CD8
:10043C0000000000000000000000000000000000B0
:10044C000C0A4E68CDCF770950166759C619CE8263
:10045C000000000000000000000000000000000090
:10046C00000000000000000017D78400030000000B
:10047C000000000000000000C7938F9D1E1B1C197C
:10048C000000000000000000000000000000000060
:10049C00000000000000000002031885000040006E
:1004AC00000000030000000300000000000000003A
:1004BC0040000000000000000000000000000000F0
:1004CC000000000000000000000000000000000020
:1004DC000000000000000000000000000000000010
:1004EC0000000000677DDF7E72902E554CF6E6888A
:1004FC0000000000000000000000000000000000F0
:10050C00D8DCB4B8B0D8B9ABF3F8FAB3B7BB8E9E9D
:10051C00AEF132F51BF1B4B8B08097F1A9DFDFDF93
:10052C00AADFDFDFF2AAC5CDC7A90CC92C97F1A9A8
:10053C0089264666B28999A92D557DB0B08AA896B0
:10054C00365676F1BAA3B4B280C0B8A89711B2836C
:10055C0098BAA3F0240844106418B2B9B49883F183
:10056C00A329557DBAB5B1A38393F0002850F5B2F9
:10057C00B6AA839328547CF1B9A3829361BAA2DA08
:10058C00DEDFDB819AB9AEF5606870F1DABAA2DF12
:10059C00D9BAA2FAB9A38292DB31BAA2D9BAA2F81B
:1005AC00DF85A4D0C1BBAD83C2C5C7B8A2DFDFDF76
:1005BC00BAA0DFDFDFD8D8F1B8AAB38DB4980D3567
:1005CC005DB2B6BAAF8C96198F9FA70E161EB49A51
:1005DC00B8AA872C547CBAA4B08AB691325676B29B
:1005EC008494A4C808CDD8B8B4B0F19982A82D557C
:1005FC007D98A80E161EA22C547C92A4F02C507838
:10060C00F184A898C4CDFCD80DDBA8FC2DF3D9BA85
:10061C00A6F8DABAA6DED8BAB2B68696A6D0F3C8D1
:10062C0041DAA6C8F8D8B0B4B882A892F52C548890
:10063C0098F135D9F418D8F1A2D0F8F9A884D9C713
:10064C00DFF8F883C5DADF69DF83C1D8F40114F170
:10065C00A8824EA884F311D182F5D992289788F1FB
:10066C0009F41C1CD884A8F3C0F9D1D99782F129BC
:10067C00F40DD8F3F9F9D1D982F4C203D8DEDF1A1C
:10068C00D8F1A2FAF9A88498D9C7DFF8F8F883C78B
:10069C00DADF69DFF883C3D8F40114F198A8822E4D
:1006AC00A884F311D182F5D992509788F109F41CE2
:1006BC00D884A8F3C0F8F9D1D99782F149F40DD8B0
:1006CC00F3F9F9D1D982F4C403D8DEDFD8F1AD88BF
:1006DC0098CCA809F9D98292A8F57CF1883ACF94E4
:1006EC004A6E98DB6931DAADF2DEF9D88795A8F25B
:1006FC0021D1DAA5F9F417D9F1AE8ED0C0C3AE82F0
:10070C00C684C3A88595C8A588F2C0F1F4010EF182
:10071C008E9EA8C63E56F554F18872F40115F198D8
:10072C0045856EF58E9E0488F142985A8E9E0688F9
:10073C0069F4011CF1981E1108D0F504F11E970202
:10074C0002983625DBF9D985A5F3C1DA85A5F3DF47
:10075C00D88595A8F309DAA5FAD88292A8F578F18C
:10076C00881A849F26889821DAF41DF3D8879F393C
:10077C00D1AFD9DFDFFBF9F40CF3D8FAD0F8DAF902
:10078C00F9D0DFD9F9D8F40BD8F3879F39D1AFD989
:10079C00DFDFF41DF3D8FAFCA869F9F9AFD0DADE83
:1007AC00FAD9F88F9FA8F1CCF398DB45D9AFDFD0FD
:1007BC00F8D8F18F9FA8CAF38809DAAF8FCBF8D895
:1007CC00F2AD978D0CD9A5DFF9BAA6F3FAF412F2B3
:1007DC00D8950DD1D9BAA6F3FADAA5F2C1BAA6F317
:1007EC00DFD8F1BAB2B68696A6D0CAF349DAA6CB50
:1007FC00F8D8B0B4B8D8AD84F2C0DFF18FCBC3A8B1
:10080C00B2B68696C8C1CBC3F3B0B48898A821DB26
:10081C00718D9D71859521D9ADF2FAD88597A8284F
:10082C00D9F408D8F28D29DAF405D9F285A4C2F2EC
:10083C00D8A88D9401D1D9F411F2D88721D8F40A13
:10084C00D8F28498A8C801D1D9F411D8F3A4C8BBA4
:10085C00AFD0F2DEF8F8F8F8F8F8F8F8D8F1B8F606
:10086C00B5B9B08A95A3DE3CA3D9F8D85CA3D9F866
:10087C00D87CA3D9F8D8F8F9D1A5D9DFDAFAD8B150
:10088C008530F7D9DED8F830ADDADED8F2B48C99F1
:10089C00A32D557DA083DFDFDFB591A0F629D9FB11
:1008AC00D8A0FC29D9FAD8A0D051D9F8D8FC51D964
:1008BC00F9D879D9FBD8A0D0FC79D9FAD8A1F9F913
:1008CC00F9F9F9A0DADFDFDFD8A1F8F8F8F8F8AC1D
:1008DC00DEF8ADDE8393AC2C547CF1A8DFDFDFF6C1
:1008EC009D2CDAA0DFD9FADB2DF8D8A850DAA0D0ED
:1008FC00DED9D0F8F8F8DB55F8D8A878DAA0D0DF34
:10090C00D9D0FAF8F8F8F8DB7DF8D89CA88CF5303B
:10091C00DB38D9D0DEDFA0D0DEDFD8A848DB58D951
:10092C00DFD0DEA0DFD0DED8A868DB70D9DFDFA097
:10093C00DFDFD8F1A888902C547C98A8D05C38D1F3
:10094C00DAF2AE8CDFF9D8B087A8C1C1B188A8C6DD
:10095C00F9F9DA36D8A8F9DA36D8A8F9DA36D8A8F7
:10096C00F9DA36D8A8F9DA36D8F78D9DADF818DA59
:10097C00F2AEDFD8F7ADFA30D9A4DEF9D8F2AEDE9C
:10098C00FAF983A7D9C3C5C7F1889BA77AADF7DE5F
:10099C00DFA4F8849408A797F300AEF29819A48802
:1009AC00C6A39488F632DFF28393DB09D9F2AADF6F
:1009BC00D8D8AEF8F9D1DAF3A4DEA7F1889B7AD8AF
:1009CC00F38494AE19F9DAAAF1DFD8A881C0C3C5B3
:1009DC00C7A39283F628ADDED9F8D8A350ADD9F8C9
:1009EC00D8A378ADD9F8D8F8F9D1A1DADEC3C5C748
:1009FC00D8A18194F818F2B089ACC3C5C7F1D8B8A6
:100A0C00B4B09786A8319B069907AB9728889BF0C2
:100A1C000C201440B0B4B8F0A88A9A285078B79B30
:100A2C00A8295179247059446938644831F1BBAB19
:100A3C0088002C547CF0B38BB8A804285078F1B003
:100A4C0088B49726A85998BBABB38B02264666B0E0
:100A5C00B8F08A9CA82951798B2951798A2470592C
:100A6C008B2058718A4469388B3940688A644831C4
:100A7C008B30496088F1AC002C547CF08CA8042895
:100A8C005078F1889726A85998AC8C02264666F0C7
:100A9C00899CA8295179247059446938644831A932
:100AAC008809205970AB11384069A8193148608CFD
:100ABC00A83C415C207C00F187981986A86E767E54
:100ACC00A999882D557DD8B1B5B9A3DFDFDFAED09C
:100ADC00DFAAD0DEF2ABF8F9D9B087C4AAF1DFDF18
:100AEC00BBAFDFDFB9D8B1F1A3978E60DFB084F272
:100AFC00C8F8F9D9DED89385F14AB183A308B58338
:100B0C009A0810B79F10D8F1B0BAAEB08AC2B2B67C
:100B1C008E9EF1FBD9F41DD8F9D90CF1D8F8F8ADAB
:100B2C0061D9AEFBD8F40CF1D8F8F8AD19D9AEFBFD
:100B3C00DFD8F416F1D8F8AD8D61D9F4F4ACF59C8E
:100B4C009C8DDF2BBAB6AEFAF8F40BD8F1AED0F818
:100B5C00AD51DAAEFAF8F1D8B9B1B6A3839C08B9A5
:100B6C00B1839AB5AAC0FD3083B79F10B58B93F2B1
:100B7C000202D1ABDADED8F1B080BAABC0C3B2841A
:100B8C00C1C3D8B1B9F38BA391B609B4D9ABDEB05C
:100B9C00879CB9A3DDF1B38B8B8B8B8BB087A3A315
:100BAC00A3A3B28BB69BF2A3A3A3A3A3A3A3A3A3B8
:100BBC00A3F1B087B59AA3F39BA3A3DCBAACDFB9BE
:100BCC00A3A3A3A3A3A3A3A3A3A3A3A3A3A3A3A3E9
:100BDC00D8D8D8BBB3B7F1AAF9DAFFD9809AAA282A
:100BEC00B48098A720B79787A86688F07951F190C0
:100BFC002C870CA781976293F07171608594012901
:100C0C00517990A5F1284C6C870C95188578A383A5
:100C1C0090284C6C886CD8F3A28200F210A8921920
:100C2C0080A2F2D926D8F188A84DD948D896A839EF
:100C3C0080D93CD89580A839A68698D92CDA87A774
:100C4C002CD8A8899519A980D938D8A88939A98010
:100C5C00DA3CD8A82EA83990D90CD8A8953198D9B7
:100C6C000CD8A809D9FFD801DAFFD89539A9DA260A
:100C7C00FFD890A80D8999A810809821DA2ED889D0
:100C8C0099A83180DA2ED8A886963180DA2ED8A889
:100C9C00873180DA2ED8A88292F34180F1D92ED8F0
:100CAC00A882F31980F1D92ED882ACF3C0A280228D
:100CBC00F1A62EA72EA92298A829DAACDEFFD8A27D
:100CCC00F22AF1A92E8292A8F23180A696F1D900CF
:100CDC00AC8C9C0C30ACDED0DEFFD88C9CACD01035
:100CEC00ACDE8092A2F24C82A8F1CAF235F1968861
:100CFC00A6D900D8F1FF0000037B034CCD6C03ABED
:100D0C000336567600680402CB47A202180400058D
:100D1C008BC1010C0400000000037F060CC92C974A
:100D2C009797038903264666006C02200002400454
:100D3C00000000000244040000000002480400000F
:100D4C000000024C040000000002500400000000EF
:100D5C000254040000000002580400000000025C71
:100D6C00040000000002BC040000000001EC0400C0
:100D7C00004000037F060CC92C9797970402030DC3
:100D8C00355D040904872D353D00A30100000000EA
:100D9C0001078601FE074105F120283038077E0146
:100DAC00300746019A074704F1283038076C04F1E4
:100DBC00283038021602001501B202FFFF01900420
:100DCC000923A135016A0206000160080000000039
:100DDC0000000000006004400000000162020000FE
:070DEC00006004004000005C
:100DF40034780008000000207000002034780008D7
:100E04000000000000000000700000203C0F0020E3
:080E14000000000000000000D6
:100E200008B5074A136843F010031360032000F06D
:100E3000FDF9002003F0D4FA03F014FA002008BDF5
:100E400000200240024A136801331360704700BF5C
:100E5000D00D0020014B1868704700BFD00D002056
:100E600030B583B005460C460023019303685C4A05
:100E7000934208D002F58062934204D040F2AC6104
:100E8000584803F0EDF92368112B3AD86368013B09
:100E90000F2B3CD8A368072B3FD895F82430012BA3
:100EA00000F09B80012385F824306368062B3AD834
:100EB0002868426B03EB8303053B1F21994022EA1C
:100EC0000102216801FA03F3134343632368092BEA
:100ED00049D92868C26803EB43031E3B07219940A8
:100EE00022EA0102A16801FA03F31343C3602368F5
:100EF000103B012B45D90020002385F8243003B096
:100F000030BD40F2AD61374803F0AAF9BEE740F2C8
:100F1000AE61344803F0A4F9BCE740F2AF61314858
:100F200003F09EF9B9E70C2B0ED82868026B03EB8F
:100F30008303233B1F21994022EA0102216801FA21
:100F400003F313430363C1E72868C26A03EB830317
:100F5000413B1F21994022EA0102216801FA03F373
:100F60001343C362B2E72868026903EB4303072116
:100F7000994022EA0102A16801FA03F313430361D5
:100F8000B5E72B68164A934205D0AB6A43F02003BD
:100F9000AB620120B0E79A6812F4000F1BD19A6887
:100FA00042F400029A602368102B01D00020A3E7CE
:100FB0000D4B1B680D4AA2FB03239B0C03EB830321
:100FC0005A00019202E0019B013B0193019B002B1F
:100FD000F9D1002090E700208EE702208FE700BFC4
:100FE00000240140FC7400080000002083DE1B4345
:100FF00038B503689A6812F0010F01D1002038BD9E
:1010000004469A6822F001029A60FFF723FF054622
:1010100023689B6813F0010F0ED0FFF71BFF401BE6
:101020000228F5D9A36A43F01003A362E36A43F0F0
:101030000103E3620120E2E70020E0E7002800F07E
:10104000EA8038B504460368744A934208D002F532
:101050008062934204D04FF4C271714803F000F9EA
:10106000636813B1B3F5006F63D1A36813B1B3F52F
:10107000807F64D1E368012B67D8E3698BB1B3F556
:10108000003F0ED0B3F5C02F0BD0B3F5002F08D022
:10109000B3F5202F05D0B3F5402F02D0B3F5602F64
:1010A00059D1A36863B12369013B0F2B59D86369F8
:1010B000012B5CD863691BB1A369013B072B5CD88A
:1010C000A36A002B5FD02046FFF792FFA36A13F0BC
:1010D000100340F09A80002840F09780A26A22F422
:1010E000885222F0020242F00202A2626268E169C2
:1010F0000A43E56842EA4502A168B1F5807F4CD019
:10110000012947D0616901294AD02568696821F41D
:1011100069410B436B6021688D68424B2B40134340
:101120008B60A368B3F5807F4BD0012B49D00021A1
:101130004AE040F285113A4803F092F895E74FF4FF
:10114000C371374803F08CF894E740F287113448B4
:1011500003F086F891E74FF4C471314803F080F84A
:101160009FE74FF4C6712E4803F07AF89FE740F2EC
:101170008D112B4803F074F89CE74FF4C871284890
:1011800003F06EF89CE7E36284F82430204603F015
:10119000B3F898E74FF48073B4E74FF48073B1E786
:1011A00035B9A169013943EA413343F40063ACE73F
:1011B000A16A41F02001A162E16A41F00101E1620E
:1011C000A3E72369013B19052568EB6A23F4700343
:1011D0000B43EB6223689968134B0B409A420BD088
:1011E000A36A23F0120343F01003A362E36A43F0FF
:1011F0000103E36201200DE00023E362A36A23F010
:10120000030343F00103A36204E0A36A43F0100365
:10121000A362012038BD0120704700BF00240140B7
:10122000FC740008FDF7E1FFFE0E1FFF10B5044639
:10123000C31E042B0FD80A4AD36823F4E0631B04AF
:101240001B0C240204F4E064234343F0BF6343F423
:101250000033D36010BDA421024803F001F8EAE78F
:1012600000ED00E03475000870B505460C461646E2
:101270000F2A25D80F2C28D81B4BDB68C3F3022379
:10128000C3F10702042A28BF0422191D062921D907
:10129000033B4FF0FF3101FA02F224EA02049C40C2
:1012A00001FA03F326EA03063443002D14DB24017C
:1012B000E4B205F1604505F5614585F8004370BD70
:1012C000BC210A4802F0CCFFD4E7BD21074802F058
:1012D000C7FFD1E70023DCE705F00F052401E4B2E6
:1012E000034B5C55EBE700BF00ED00E034750008F0
:1012F00014ED00E010B5041E08DB04F01F026409C1
:1013000001239340044A42F8243010BDD021034801
:1013100002F0A6FFF1E700BF00E100E0347500082D
:101320000138B0F1807F0AD2064B5860064AF0219E
:1013300082F823100020986007221A60704701206D
:10134000704700BF10E000E000ED00E010B504467B
:10135000042800D038B9042C0BD0094A136823F0B4
:101360000403136010BD40F2DB11064802F078FF61
:10137000F1E7034A136843F004031360F2E700BF88
:1013800010E000E0347500082DE9F04383B080469A
:101390000F46B64B984213D003F5806398420FD0A6
:1013A00003F5806398420BD003F58063984207D021
:1013B00003F58063984203D0CF21AD4802F050FF7F
:1013C0003B689AB212B11B0C1B041BB1D021A84878
:1013D00002F046FF7B68012B1ED9112B1CD0022B7B
:1013E0001AD0122B18D0A34A934215D002F58012BE
:1013F000934211D002F5801293420DD0A2F5F8125B
:10140000934209D002F58012934205D002F5801272
:10141000934201D0032B03D14FF000094E46D8E090
:10142000D121934802F01CFFF6E7002B5ED0012B80
:1014300005D1FB68013B022B65D8D7F80C90FF2C37
:1014400000F296804046FF2C00F29580B2000368BF
:101450000F21914023EA010309FA02F213430360CA
:101460007B6813F0805F00F0B380834B9A6942F091
:1014700001029A619B6903F001030193019BB20889
:10148000911C7E4B53F8210006F0030399000F23B3
:101490008B4020EA0300754B984572D003F58063BA
:1014A000984500F0CD8003F58063984500F0CA8030
:1014B00003F58063984562D0042363E0704A934249
:1014C00014D00BD96F4A934210D002F58032934268
:1014D0000CD0A2F580129342B1D107E0A2F58012A0
:1014E000934203D002F580329342A8D1BB68022B0D
:1014F0002DD8BB68002B38D0012B2ED0C8F8145043
:101500004FF008099BE7E721594802F0A9FE94E74C
:10151000EE21574802F0A4FE8EE0FB68013B022B4F
:1015200003D8FB6803F1080989E7F521504802F068
:1015300097FEF6E7FB68013B022B03D8FB6803F13B
:101540000C097CE7FC214A4802F08AFEF6E740F2EB
:101550000911474802F084FECBE7C8F810504FF05D
:1015600008096CE74FF0000969E74FF0040966E7E6
:1015700008F1040067E7A6F10802920067E7032379
:1015800000E000238B40034302323C4941F8223003
:101590007B6813F4803F57D03B4A136823431360A2
:1015A0007B6813F4003F55D0374A53682343536098
:1015B0007B6813F4801F53D0334A936823439360AE
:1015C0007B6813F4001F61D02F4AD3681C43D4609A
:1015D00001360F2E60D80125B5403C682C40A5424D
:1015E000F6D1224B984513D003F5806398450FD070
:1015F00003F5806398450BD003F58063984507D0C9
:1016000003F58063984503D0DF21194802F028FED6
:101610007B68122B8ED03FF651AF022B3FF47DAF8B
:101620007FF603AF032B9DD0112B7FF408AFFB682F
:10163000013B022B3FF66CAFFB6803F10409FEE6A9
:1016400001239FE702239DE70F4A136823EA04035F
:101650001360A5E70C4A536823EA04035360A7E725
:10166000094A936823EA04039360A9E7000801404C
:1016700070750008000011100010024000000140C9
:10168000000021100000311000040140044AD3681A
:1016900023EA0404D4609BE703B0BDE8F08300BFF5
:1016A0000004014070B5064615460C4629B1012DCF
:1016B00009D875B92404346170BD40F2E5110648BB
:1016C00002F0CEFDF3E74FF4F371034802F0C8FDDA
:1016D000EFE73461F0E700BF7075000808B5054B0F
:1016E0005B69034200D108BD024B586101F038FE2E
:1016F000F9E700BF0004014003685A6912F4806FE3
:101700000DD06FF480625A610423036400230363E5
:10171000202280F83D2080F83C30012070470020D6
:101720007047F8B506460C4617461D461EE02DB11B
:10173000FFF790FB069BC01AA84217D9002333631A
:10174000202286F83D2086F83E3086F83C30032083
:101750001AE033685B6924EA03039BB2B3FA83F3AC
:101760005B099F420FD1B5F1FF3FE0D1C4F30743BE
:10177000012BEED033689B6924EA03039BB2B3FAD2
:1017800083F35B09EDE70020F8BDF8B504460D468C
:1017900016461F4632E01A6842F400721A60236847
:1017A0006FF480625A6104232364002323632022A0
:1017B00084F83D2084F83C3001202DE026B1FFF76D
:1017C00049FBC01BB04219D900232363202284F8AF
:1017D0003D2084F83C3003201EE023685B6925EA45
:1017E00003039BB2003318BF0123A3B123685A69D6
:1017F00012F4806FCFD1B6F1FF3FDFD1C5F30743BD
:10180000012BEAD023689B6925EA03039BB20033CE
:1018100018BF0123E9E70020F8BD70B504460D4666
:10182000164623685B6913F0800F19D12046FFF735
:1018300063FFB8B9B5F1FF3FF3D025B1FFF70AFB5D
:10184000801BA842EDD9236C43F0200323640023BE
:101850002363202284F83D2084F83C30032000E0FC
:10186000002070BD0120FCE72DE9F04184B0044662
:101870000E46174698460B9D0268136843F4807322
:10188000136000950A9B00224FF00111FFF749FFFA
:10189000002847D1236806F0FE061E612B460A9AEF
:1018A00026492046FFF771FF20B1236C042B3ED15F
:1018B000012338E00023039323685A6903929B694C
:1018C0000393039B2A460A992046FFF7A6FF034687
:1018D00048B1236C042B2CD12268136843F40073A5
:1018E000136001231FE0B8F1010F13D023683A0AF7
:1018F0001A612A460A992046FFF78FFF034668B10E
:10190000236C042B17D12268136843F4007313600F
:10191000012308E02268FFB2176104E02268FFB2E9
:10192000176100E00323184604B0BDE8F0810323EB
:10193000F9E70323F7E70323F5E700BF02000100FF
:101940002DE9F04184B004460E46174698460B9D9B
:101950000268136843F4806313600268136843F4F9
:101960008073136000950A9B00224FF00111FFF76E
:10197000D8FE002874D1F6B2236806F0FE021A6180
:101980002B460A9A3F492046FFF7FFFE20B1236C01
:10199000042B6AD1012364E00023039323685A696E
:1019A00003929B690393039B2A460A992046FFF7FB
:1019B00034FF48B1236C042B59D12268136843F4D7
:1019C0000073136001234CE0B8F1010F12D12368BA
:1019D000FFB21F612A460A992046FFF71EFF00B397
:1019E000236C042B47D12268136843F400731360FF
:1019F000012336E023683A0A1A612A460A992046EA
:101A0000FFF70BFF48B1236C042B32D12268136817
:101A100043F400731360012323E02368FFB21F61C6
:101A2000D8E72268136843F48073136000950A9B1B
:101A300000224FF001112046FFF773FEE8B923683A
:101A400046F001061E612B460A9A0E492046FFF712
:101A50009CFE034628B1236C042B10D1012300E027
:101A60000323184604B0BDE8F0810323F9E70323FC
:101A7000F7E70323F5E70323F3E70323F1E7032362
:101A8000EFE700BF0200010070B504460D461646A0
:101A900023685B6913F0040F19D12046FFF72CFE71
:101AA000B8B9B5F1FF3FF3D025B1FFF7D3F9801BEB
:101AB000A842EDD9236C43F0200323640023236361
:101AC000202284F83D2084F83C30032000E00020F0
:101AD00070BD0120FCE770B505460C4616462B6824
:101AE0005A6912F0400F22D15A6912F0100F11D129
:101AF00024B1FFF7AFF9801BA042F0D92B6C43F063
:101B000020032B64202385F83D30002385F83C30EA
:101B1000032070BD6FF010025A6100232B642B6309
:101B2000202285F83D2085F83C300120F1E7002097
:101B3000EFE70000002800F0E78010B504460368D6
:101B4000724A934208D002F58062934204D040F278
:101B50007F116F4802F084FB6368013B6D4A93423A
:101B600067D8A36813B1B3F5804F68D1E36823F455
:101B70007F7323F00303002B67D12369B3F5804FF4
:101B800002D0B3F5404F66D16369012B69D8A369D0
:101B900033F0FE036BD1E3690BB1402B6DD1236AA7
:101BA0000BB1802B6FD194F83D30002B71D02423E2
:101BB00084F83D302268136823F00103136000F0BD
:101BC00011FF554BA3FB00239B0C226853606168F7
:101BD000524A914263D801332268136263684F4AC4
:101BE000934266D85B00B0FBF3F0C0F30B03032B0A
:101BF00000D804202368D861E369216A22680B4376
:101C000013602369E16822680B4393606369A169EB
:101C100022680B43D3602268136843F0010313600A
:101C200000202064202384F83D30206384F83E00A7
:101C300010BD4FF4C071364802F012FB91E740F23C
:101C40008111334802F00CFB90E74FF4C17130482A
:101C500002F006FB91E740F283112D4802F000FBF1
:101C600092E74FF4C2712A4802F0FAFA8FE740F285
:101C70008511274802F0F4FA8DE74FF4C371244828
:101C800002F0EEFA8BE740F28711214802F0E8FA01
:101C900089E784F83C30204602F050FB87E74FF498
:101CA000967202FB03F31E4AA2FB03239B09013336
:101CB00092E7A16889B903EB4302B0FBF2F2C2F3E9
:101CC0000B02B2FA82F25209E2B991B903EB430373
:101CD000B0FBF3F040F400408CE703EB830202EB2F
:101CE0008202B0FBF2F2C2F30B02B2FA82F25209A4
:101CF000EAE703EB830303EB8303B0FBF3F040F469
:101D0000404077E7012075E701207047005400400C
:101D1000A87500087F1A060083DE1B43A086010019
:101D2000D34D62102DE9F04182B004460F46904633
:101D30001E46FFF78FF80546012E01D0102E09D15F
:101D400094F83D30DBB2202B0AD00223184602B0B3
:101D5000BDE8F0814FF41961544802F081FAEFE7D1
:101D600000951923012252492046FFF7DAFC00288A
:101D700040F0938094F83C30012B00F090800123D8
:101D800084F83C3023681A6812F0010F03D11A68F6
:101D900042F001021A602268136823F400631360A2
:101DA000212384F83D30402384F83E30002323640F
:101DB000089B6362BDF8243063853E4BE362638D0C
:101DC000238501950A9B00933346424639462046B7
:101DD000FFF74AFDB0B1236C042B04D1002384F833
:101DE0003C300123B2E7002384F83C300323ADE705
:101DF000236C042B55D12268136843F400731360DD
:101E00000123A3E7238D002B28D02A460A992046D8
:101E1000FFF703FD0028EBD1636A5A1C6262226857
:101E20001B781361238D013B9BB22385628D013AA0
:101E300092B262852268516911F0040FE2D0002B42
:101E4000E0D0636A591C61621B781361238D013BEA
:101E50002385638D013B9BB26385D3E72A460A99AC
:101E60002046FFF711FE034648B1236C042B1AD11C
:101E70002268136843F400731360012366E7216846
:101E80000A6842F400720A60202284F83D20002291
:101E900084F83E2084F83C2058E7022356E70223CA
:101EA00054E7032352E7032350E700BFA875000857
:101EB000020010000000FFFF2DE9F04186B004464B
:101EC0000F4690461E46FEF7C5FF0546012E01D07F
:101ED000102E09D194F83D30DBB2202B0AD0022617
:101EE000304606B0BDE8F08140F61521944802F076
:101EF000B7F9EFE700951923012292492046FFF731
:101F000010FC002840F0598194F83C30012B00F07F
:101F10005681012384F83C3023681A6812F0010FBF
:101F200003D11A6842F001021A602268136823F490
:101F300000631360222384F83D30402384F83E3050
:101F4000002323640C9B6362BDF8343063857E4BB1
:101F5000E362638D238501950E9B009333464246D1
:101F600039462046FFF7ECFC064660B1236C042B93
:101F700004D1002384F83C300126B1E7002384F823
:101F80003C300326ACE7238D5BB9029323685A6982
:101F900002929A690292029A1A6842F400721A60D6
:101FA0007FE0012B0FD0022B21D02268136843F46D
:101FB000806313600023059323685A6905929B6927
:101FC0000593059B6DE02268136823F4806313601A
:101FD00072B60023039323685A6903929A690392A5
:101FE000039A1A6842F400721A6062B659E02268D5
:101FF000136843F40063136072B6002304932368EC
:102000005A6904929A690492049A1A6822F48062C6
:102010001A6062B645E02A460E992046FFF75BFD3E
:1020200068B923681A69636A591C61621A70238D42
:10203000013B2385638D013B9BB2638531E0236CBB
:10204000202B01D001264BE7032649E700950E9B84
:1020500000223E492046FFF764FB002840F0B18093
:1020600072B62268136843F40073136023681A6918
:10207000636A591C61621A70238D013B2385638D4D
:10208000013B9BB2638562B623681A69636A591C77
:1020900061621A70238D013B2385638D013B9BB2E6
:1020A0006385238D002B7FD0032B51D8012BB2D019
:1020B000022BCBD000950E9B002224492046FFF72F
:1020C00030FB00287FD12268136823F480631360FB
:1020D00072B623681A69636A591C61621A70238D8B
:1020E000013B2385638D013B9BB2638500950E9B6D
:1020F000002216492046FFF714FB002865D122680C
:10210000136843F40073136023681A69636A591CE7
:1021100061621A70238D013B2385638D013B9BB265
:10212000638562B623681A69636A591C61621A7012
:10213000238D013B2385638D013B9BB26385B0E713
:10214000A8750008020010000000FFFF0400010055
:102150002A460E992046FFF7BEFCF0B923681A699B
:10216000636A591C61621A70238D013B2385638D5C
:10217000013B9BB2638523685A6912F0040F90D02B
:102180001A69636A591C61621A70238D013B2385A9
:10219000638D013B9BB2638583E7236C202B01D0C9
:1021A00001269DE603269BE6202384F83D3000238C
:1021B00084F83E3084F83C3092E6022690E602260F
:1021C0008EE603268CE603268AE6032688E600BF11
:1021D00082B0084B1B68084AA2FB03235B0A00FB82
:1021E00003F0019000BF019B5A1E0192002BF9D110
:1021F00002B0704700000020D34D621070B582B06D
:10220000044678B3236813B113F00F0F30D023685E
:1022100013F0010F46D063682BB1B3F5803F02D0B5
:10222000B3F5A02F2AD1AC4B5B6803F00C03042B51
:102230002FD0A94B5B6803F00C03082B24D06368F4
:10224000B3F5803F5BD0002B6FD103F1804303F5E2
:1022500004331A6822F480321A601A6822F4802249
:102260001A6051E04FF486719C4801F0F9FFC9E70C
:1022700040F20D11994801F0F3FFC8E740F2131145
:10228000964801F0EDFFCEE7934B5B6813F4803F77
:10229000D5D0914B1B6813F4003F03D06368002B2B
:1022A00000F02D82236813F0020F00F08A8023696A
:1022B000012B63D863691F2B66D8874B5B6813F0CB
:1022C0000C0F6CD0844B5B6803F00C03082B61D0BF
:1022D0002369002B00F09A80814B01221A60FEF7DF
:1022E000B9FD05467C4B1B6813F0020F40F085805A
:1022F000FEF7B0FD401B0228F4D9032002E2764A23
:10230000136843F480331360636843B3FEF7A2FDA0
:102310000546714B1B6813F4003FC3D1FEF79AFDCD
:10232000401B6428F5D90320ECE1B3F5A02F09D0B8
:10233000694B1A6822F480321A601A6822F48022EB
:102340001A60E1E703F18043A3F53C331A6842F4D5
:1023500080221A601A6842F480321A60D4E7FEF7CD
:1023600079FD05465C4B1B6813F4003F9AD0FEF7DD
:1023700071FD401B6428F5D90320C3E140F24711E9
:10238000564801F06DFF95E74FF4A471534801F0F2
:1023900067FF92E7504B5B6813F4803F98D14E4B38
:1023A0001B6813F0020F04D02369012B01D0012018
:1023B000A8E1494A136823F0F803616943EAC103BD
:1023C0001360236813F0080F3BD0A369012B2FD8AB
:1023D000A369002B66D0434B01221A60FEF73AFD39
:1023E00005463D4B5B6A13F0020F27D1FEF732FD25
:1023F000401B0228F5D9032084E1374A136823F0F3
:10240000F803616943EAC1031360DAE7344B002241
:102410001A60FEF71FFD05462F4B1B6813F0020FD5
:10242000CFD0FEF717FD401B0228F5D9032069E144
:102430004FF4C471294801F013FFC9E70120FFF7E9
:10244000C7FE236813F0040F00F0A580E368012B9A
:1024500001D9052B38D1204BDB6913F0805F39D1CE
:102460001D4BDA6942F08052DA61DB6903F0805378
:102470000193019B01251C4B1B6813F4807F35D011
:10248000E368012B46D0002B5CD103F1804303F5B8
:1024900004331A6A22F001021A621A6A22F0040254
:1024A0001A623CE00F4B00221A60FEF7D3FC05468F
:1024B000094B5B6A13F0020FC3D0FEF7CBFC401B45
:1024C0000228F5D903201DE140F2B711034801F0BD
:1024D000C7FEC0E70025CEE700100240F4750008F3
:1024E000000042428004424200700040874A136864
:1024F00043F480731360FEF7ADFC0646834B1B6804
:1025000013F4807FBCD1FEF7A5FC801B6428F5D9AD
:102510000320F7E07E4A136A43F001031362E36885
:1025200033B3FEF797FC0646794B1B6A13F0020F94
:102530002FD1FEF78FFC801B41F288339842F3D9EC
:102540000320DFE0052B09D0714B1A6A22F001024B
:102550001A621A6A22F004021A62E0E76C4B1A6AE5
:1025600042F004021A621A6A42F001021A62D6E7C5
:10257000FEF770FC0646664B1B6A13F0020F08D08C
:10258000FEF768FC801B41F288339842F3D90320A0
:10259000B8E0002D53D1E369022B56D8E369002B34
:1025A00000F0AF805A4A526802F00C02082A00F08C
:1025B000AB80022B40F08F80236A13B1B3F5803FCC
:1025C00049D1636A4BB3B3F5802F26D0B3F5002F02
:1025D00023D0B3F5402F20D0B3F5801F1DD0B3F525
:1025E000A01F1AD0B3F5C01F17D0B3F5E01F14D049
:1025F000B3F5001F11D0B3F5101F0ED0B3F5201F97
:102600000BD0B3F5301F08D0B3F5401F05D0B3F59C
:10261000501F02D0B3F5601F23D13E4B00221A6039
:10262000FEF718FC05463A4B1B6813F0007F1ED0DE
:10263000FEF710FC401B0228F5D9032062E0344A63
:10264000D36923F08053D361A5E740F25521324886
:1026500001F006FEA2E740F25E212F4801F000FEE5
:10266000AFE740F25F212C4801F0FAFDD5E7236A7D
:10267000B3F5803F1AD026494B6823F47413226ABD
:10268000606A024313434B60224B01221A60FEF73B
:10269000E1FB04461E4B1B6813F0007F19D1FEF7C7
:1026A000D9FB001B0228F5D903202BE0A36813B146
:1026B000B3F5003F07D1164A536823F40033A168ED
:1026C0000B435360D7E740F27521134801F0C8FD72
:1026D000F1E7002016E00F4B00221A60FEF7BAFB6C
:1026E00004460B4B1B6813F0007F06D0FEF7B2FBCD
:1026F000001B0228F5D9032004E0002002E001209D
:1027000000E0002002B070BD0120FBE70070004037
:102710000010024060004242F475000810B487B017
:10272000184C94E80F000DF1180C0CE90F00238AE7
:10273000ADF80430144B5B6803F00C02042A03D09C
:10274000082A05D0114800E0114807B010BC7047B6
:10275000C3F3834206A90A4412F8100C13F4803F15
:102760000CD0094B5B68C3F340430B4413F8142CA3
:10277000074BB3FBF2F300FB03F0E6E7054B03FB6B
:1027800000F0E2E7E07500080010024000127A0055
:1027900000A24A0400093D0070B50D460446C0B1D0
:1027A000236813F00F0F1AD0022D1ED8854B1B681B
:1027B00003F00703AB421ED2824A136823F00703DB
:1027C0002B431360136803F00703AB4213D00120BF
:1027D00070BD40F2CA217C4801F042FDE0E740F2C2
:1027E000CB21794801F03CFDDEE74FF433717648A8
:1027F00001F036FDDAE7236813F0020F18D0A36862
:102800007BB1802B0DD0902B0BD0A02B09D0B02BFF
:1028100007D0C02B05D0D02B03D0E02B01D0F02B5C
:1028200034D16A4A536823F0F003A1680B43536024
:10283000236813F0010F61D06368022B2CD8636802
:10284000012B2FD0022B34D0604A126812F0020FF5
:1028500000F0B6805D494A6822F0030213434B60E2
:10286000FEF7F8FA06466368012B29D0022B36D012
:10287000564B5B6813F00C0F40D0FEF7EBFA801B51
:1028800041F288339842F3D90320A1E740F2E521D1
:102890004D4801F0E5FCC4E74FF43B714A4801F0B4
:1028A000DFFCCCE7494A126812F4003FD2D1012084
:1028B0008EE7464A126812F0007FCBD1012087E7ED
:1028C000424B5B6803F00C03042B17D0FEF7C2FAEF
:1028D000801B41F288339842F2D9032078E73B4BC2
:1028E0005B6803F00C03082B08D0FEF7B3FA801BDB
:1028F00041F288339842F2D9032069E7314B1B68D3
:1029000003F00703AB420CD92E4A136823F00703E8
:102910002B431360136803F00703AB4201D001207F
:1029200056E7236813F0040F14D0E3685BB1B3F5E6
:10293000806F08D0B3F5A06F05D0B3F5C06F02D09B
:10294000B3F5E06F30D1214A536823F4E063E168C6
:102950000B435360236813F0080F15D023695BB154
:10296000B3F5806F08D0B3F5A06F05D0B3F5C06F95
:1029700002D0B3F5E06F1DD1144A536823F46053BD
:10298000216943EAC1035360FFF7C8FE0F4B5B6840
:10299000C3F303130E4AD35CD8400E4B18600020DB
:1029A00001F01EFD002013E74FF45071064801F0BE
:1029B00057FCC8E740F24731034801F051FCDBE720
:1029C000012005E700200240F475000800100240D5
:1029D0009477000800000020014B1868704700BF82
:1029E0000000002008B5FFF7F7FF044B5B68C3F356
:1029F0000223034AD35CD84008BD00BF0010024048
:102A0000A477000808B5FFF7E7FF044B5B68C3F342
:102A1000C223034AD35CD84008BD00BF0010024067
:102A2000A477000838B50D460446D0B1FDB10F2398
:102A30002360124B5A6802F0030262605A6802F087
:102A4000F002A2605A6802F4E062E2605B68DB08B0
:102A500003F4E06323610A4B1B6803F007032B6058
:102A600038BD40F2BF41074801F0FAFBDEE74FF402
:102A70009861044801F0F4FBD9E700BF0010024060
:102A800000200240F475000870B582B00446036867
:102A900013F0130F6DD0236813F0010F3FD063685C
:102AA00043B1B3F5807F05D0B3F5007F02D0B3F515
:102AB000407F63D1504BDB6913F0805F63D14E4B95
:102AC000DA6942F08052DA61DB6903F080530193E6
:102AD000019B0125494B1B6813F4807F55D0464B61
:102AE0001B6A13F4407311D0626802F440729A4278
:102AF0000CD0414A136A23F44070414901260E600C
:102B000000260E60106213F0010F52D13A4A136A88
:102B100023F4407361680B431362002D5AD123687C
:102B200013F0020F11D0A36843B1B3F5804F05D065
:102B3000B3F5004F02D0B3F5404F50D12E4A536841
:102B400023F44043A1680B435360236813F0100F34
:102B500050D0E368B3F5800F01D0002B44D1264A52
:102B6000536823F48003E1680B435360002002B0F4
:102B700070BD7E21234801F073FB8CE7842121483E
:102B800001F06EFB96E70025A4E71C4A136843F4A6
:102B900080731360FEF75EF90646184B1B6813F44A
:102BA000807F9CD1FEF756F9801B6428F5D903205D
:102BB000DDE7FEF74FF906460F4B1B6A13F0020FD5
:102BC000A4D1FEF747F9801B41F288339842F3D92C
:102BD0000320CCE7D36923F08053D3619FE7CB2157
:102BE000084801F03DFBA9E740F22711054801F034
:102BF00037FBB4E70020BAE7001002400070004045
:102C0000400442422C7600087047000010B504468C
:102C100003680F4A93420FD0B3F1804F0CD0A2F556
:102C20009432934208D002F58062934204D040F27D
:102C30005F11084801F014FB2268D36843F00103D8
:102C4000D3602268136843F001031360002010BDB5
:102C5000002C014068760008704770477047704745
:102C600010B5044603681A6912F0020F11D0DA6831
:102C700012F0020F0DD06FF002021A6101230377E8
:102C800003689B6913F0030F70D0FFF7E6FF002382
:102C9000237723681A6912F0040F12D0DA6812F051
:102CA000040F0ED06FF004021A6102232377236809
:102CB0009B6913F4407F5FD02046FFF7CEFF0023CF
:102CC000237723681A6912F0080F12D0DA6812F01D
:102CD000080F0ED06FF008021A61042323772368CF
:102CE000DB6913F0030F4ED02046FFF7B6FF002339
:102CF000237723681A6912F0100F12D0DA6812F0E5
:102D0000100F0ED06FF010021A610823237723688A
:102D1000DB6913F4407F3DD02046FFF79EFF002380
:102D2000237723681A6912F0010F03D0DA6812F0D2
:102D3000010F36D123681A6912F0800F03D0DA68C8
:102D400012F0800F34D123681A6912F0400F03D0BB
:102D5000DA6812F0400F32D123681A6912F0200F9E
:102D600003D0DA6812F0200F30D110BDFFF774FFE6
:102D70002046FFF773FF8AE72046FFF76DFF2046E6
:102D8000FFF76CFF9BE72046FFF766FF2046FFF743
:102D900065FFACE72046FFF75FFF2046FFF75EFFC9
:102DA000BDE76FF001021A61204601F05BF9C1E74F
:102DB0006FF080021A61204600F0A3F8C3E76FF0BD
:102DC00040021A612046FFF74AFFC5E76FF0200274
:102DD0001A61204600F094F8C7E7000003681B4A18
:102DE00090420AD0B0F1804F07D0A2F594329042C1
:102DF00003D002F58062904203D123F070034A6849
:102E00001343124A90420AD0B0F1804F07D0A2F586
:102E10009432904203D002F58062904203D123F4B1
:102E20004073CA68134323F080034A691343036065
:102E30008B68C3620B688362044B984202D0012303
:102E4000436170470B690363F9E700BF002C014041
:102E500000284ED010B504460368274A93420ED08E
:102E6000B3F1804F0BD0A2F59432934207D002F514
:102E70008062934203D0D721204801F0F1F9A36882
:102E80003BB1102B05D0202B03D0402B01D0602B61
:102E90001AD123692BB1B3F5807F02D0B3F5007F3F
:102EA00017D1A3690BB1802B18D194F83D30D3B161
:102EB000022384F83D30211D2068FFF78FFF012396
:102EC00084F83D30002010BDD8210C4801F0C8F92D
:102ED000DFE7D921094801F0C3F9E2E7DA21074821
:102EE00001F0BEF9E1E784F83C302046FFF78CFEA4
:102EF000DEE70120704700BF002C01406876000823
:102F0000704770472DE9F843044642687E4B9A4269
:102F100000F29180E3681BB1B3F5005F40F091804F
:102F2000236933B1B3F5806F03D0B3F5C06F40F0C0
:102F30008E8063694FF6F372134200D123B940F6D5
:102F4000AC11724801F08CF92268136923F44053E4
:102F5000E1680B431361A368226913436269134359
:102F60002168CA6822F4B05222F00C021343CB60ED
:102F70002268536923F44073A1690B4353612268AB
:102F8000634B9A4269D0FFF72DFD00EB800000EB08
:102F900080006568AD00B0FBF5F55E4FA7FB053519
:102FA0006D092E01FFF71EFD00EB800000EB800095
:102FB0006568AD00B0FBF5F9FFF714FD00EB80008C
:102FC00000EB80006568AD00B0FBF5F5A7FB0535AB
:102FD0006D094FF0640808FB15952D013235A7FBEC
:102FE00005356D0905F0F0053544FFF7FBFC00EBF6
:102FF000800000EB80006668B600B0FBF6F6FFF7D5
:10300000F1FC00EB800000EB800063689B00B0FBEC
:10301000F3F0A7FB0030400908FB10684FEA0818DE
:1030200008F13208A7FB0837C7F3431723682F447A
:103030009F60BDE8F88340F6A911344801F010F90B
:1030400068E740F6AA11314801F00AF968E740F64E
:10305000AB112E4801F004F96BE7FFF7D3FC00EB4E
:10306000800000EB80006568AD00B0FBF5F5294FEE
:10307000A7FB05356D092E01FFF7C4FC00EB8000AE
:1030800000EB80006568AD00B0FBF5F9FFF7BAFC16
:1030900000EB800000EB80006568AD00B0FBF5F54B
:1030A000A7FB05356D094FF0640808FB15952D0148
:1030B0003235A7FB05356D0905F0F0053544FFF7FE
:1030C000A1FC00EB800000EB80006668B600B0FB5E
:1030D000F6F6FFF797FC00EB800000EB80006368DA
:1030E0009B00B0FBF3F0A7FB0030400908FB106821
:1030F0004FEA081808F13208A7FB0837C7F343174F
:1031000023682F449F6094E720AA4400A07600081B
:10311000003801401F85EB5100286CD010B50446E3
:1031200083690BB30368354A93420CD0A2F574420D
:10313000934208D002F58062934204D040F211110C
:103140002F4801F08DF8A369FBB1B3F5807F1CD047
:10315000B3F5007F19D0B3F5407F16D04FF48971D5
:10316000274801F07DF810E00368244A93420CD010
:10317000A2F57442934208D002F58062934204D0D3
:103180004FF48B711E4801F06BF8A36813B1B3F5CF
:10319000805F24D194F839303BB3242384F839304C
:1031A0002268D36823F40053D3602046FFF7AAFEB9
:1031B0002268136923F4904313612268536923F052
:1031C0002A0353612268D36843F40053D36000207C
:1031D000E063202384F8393084F83A3010BD4FF48E
:1031E0008C71074801F03CF8D4E784F83830204669
:1031F00001F0C8F8D1E70120704700BF0038014056
:10320000A0760008002103E00A4B5B5843500431CC
:1032100009480A4B42189A42F6D3094A02E00023B1
:1032200042F8043B074B9A42F9D301F031F900F020
:10323000DDFF704734780008000000207000002097
:10324000700000203C0F0020FEE7000000B5B7B082
:10325000044603220021012001F0D6FC3A4B1860FD
:103260003A4800F075FE204600F032FBFA2001F0EB
:10327000CCFB4FF40053209303232293012221928D
:10328000239320A93248FEF77FF800F05FFB00F09F
:103290004FFB304B0F930024109436A9202341F8A4
:1032A000A03D2D48FEF770F8224605211720FDF7B6
:1032B000DBFF1720FEF71EF800234FF0FF32194600
:1032C0002148006801F01EFD18AB1AAA1CA91EA80F
:1032D00000F0FCFD12AB069314AB059316AB049300
:1032E000DDE91823CDE90223DDE91A23CDE9002326
:1032F000DDE91C23DDE91E0100F048FDDDE91223B4
:10330000CDE90C23DDE91423CDE90A23DDE91623F9
:10331000CDE90823DDE91823CDE90623DDE91A23E9
:10332000CDE90423DDE91C23CDE90223DDE91E23D9
:10333000CDE90023094A462124A803F065FD24A80D
:1033400000F006FEB8E700BFD80D0020D8760008D0
:10335000001001400000111000080140EC76000848
:10336000202800D0704708B50021024B186801F0F2
:103370006FFC08BDD80D002030B585B00C46074B5A
:103380001D681E2302930191009201230246D02161
:103390002846FEF791FD60B205B030BDD40D002087
:1033A00008B50A460121FFF7E7FF08BDF0B587B071
:1033B00007460D461646002415E036F814301A0A62
:1033C0008DF814208DF81530094B18681E230293D0
:1033D0000223019305AB009301233A46D021FEF767
:1033E000A1FC0134E4B2AC42E7D307B0F0BD00BFAA
:1033F000D40D002010B584B0064B1C681E23029328
:103400000191009201230246D0212046FEF78AFC5A
:1034100004B010BDD40D002000B583B002AA02F89C
:10342000011D0121FFF7E6FF03B05DF804FB12B9AF
:1034300000231846704770B582B016461D460C46EC
:103440000DF10701FFF7ACFF034658B10120B04072
:103450000138A41B661C00FA06F49DF807201440EE
:1034600034412C70184602B070BD02B97047F0B5F7
:1034700083B017461D460C46064602A9002301F8F4
:10348000013DFFF78DFF08B903B0F0BD0123BB403C
:10349000013BE11B01318B4005FA01F1C9B2194032
:1034A0009DF8072022EA030319438DF807103046E0
:1034B000FFF7B2FFE8E770B582B004460D46164646
:1034C0000DF10701FFF76CFF6EB9012101FA05F359
:1034D0009DF8071021EA03018DF807102046FFF739
:1034E0009BFF02B070BD012101FA05F39DF80710A2
:1034F0001943C9B2F0E708B500F01F000AB140F067
:10350000200009B140F0400001466D20FFF784FF24
:1035100008BD08B501466E20FFF77EFF08BD2DE906
:10352000F84380460E461746994600221146384613
:10353000FFF7E1FF4846FFF7ECFF002509E0102404
:1035400011E0002211463846FFF7D5FF4846FFF745
:10355000E0FFB54221D205F11003B342EFDDF4B232
:10356000EBB2E31ADCB2C9F580739C4202DDC9F10B
:103570000003DCB208EB050221466F20FFF7FCFEDA
:103580002544ADB24C445FFA84F9AE42E1D9B9F1B9
:10359000000FD6D10137FFB2D3E7BDE8F8832DE99C
:1035A000F04F83B081468846104600921D469DF834
:1035B00030B09DF834A000221146FFF79CFF28464A
:1035C000FFF7A7FFBBF1000F07D100230193BAF16A
:1035D000000F07D1002700262BE0102003F02CFB62
:1035E0000190F4E7102003F027FB0746F3E71024CF
:1035F0002BE05A1819F80220FA540133DBB29C422E
:10360000F7D82DE00023FAE7019803F01DFBBAF18B
:10361000000F01D150465AE0384603F015FB002058
:1036200055E0002211460098FFF765FF2846FFF796
:1036300070FF46453FD2314606F110034345D6DDC3
:103640005FFA88F4F3B2E41AE4B2C5F580739C42E1
:1036500001DD6C42E4B2BAF1000FD3D109EB0607E9
:103660003A4621466F20FFF7C5FEBBF1000F15D08B
:10367000019B9BB1002211460098FFF73CFF2846B2
:10368000FFF747FF019A21466F20FFF775FE22469C
:103690000199384603F0E0FA0028B5D12644B6B2C5
:1036A0002544EDB2B045C4D9002DBAD1009B0133F9
:1036B000DBB20093B5E7BBF1000F0BD1BAF1000FFD
:1036C0000CD1002211460098FFF715FF012003B02E
:1036D000BDE8F08F019803F0B7FAEFE7384603F042
:1036E000B3FAEEE72DE9F04F85B005468B469046DC
:1036F0001AB94FF00009002434E0082003F09CFAC6
:103700008146F8E7621C92B22B5D0393A31C9BB227
:1037100015F802A00334A7B2EE5C33E0042E01D802
:1037200000230BE03146484603F056FB8146F7E79D
:10373000FA18AA5C09F8032001339BB2B2B29A428C
:10374000F6D8B6B200230193012300935346039A9F
:1037500031464846FFF723FF82463E44B4B2BAF1F1
:10376000000F2CD05C4533D2B8F1000FCAD0621CD8
:1037700092B22B5D0393A31C9BB215F802A00334F5
:10378000A7B2EE5C2EB1B8F1000FC7D105EB070967
:10379000D7E7B8F1000F0BD07C1CA4B215F807A036
:1037A000BAF1010F09D132213820FFF735FED6E7F3
:1037B0007C1CA4B215F807A0F2E7B246CFE7B8F137
:1037C000000F01D1C24608E0484603F03DFA04E08C
:1037D000B8F1000F05D14FF0010A504605B0BDE821
:1037E000F08F484603F030FA4FF0010AF5E7000089
:1037F00010B5054C224602217220FFF7BDFD20784E
:10380000637843EA002010BDDC0D002008B50246B5
:103810007420FFF7B1FD08BD10B5034C21463A20D6
:10382000FFF7BEFD207810BDDC0D002008B5012299
:1038300002216A20FFF73FFE08BD000010B5054CCD
:103840002346062211460020FFF7F1FD207840B202
:1038500010BD00BFDC0D002008B5C3B20622114622
:103860000020FFF702FE08BD10B5054C23460622D6
:1038700011460120FFF7DBFD207840B210BD00BFEC
:10388000DC0D002008B5C3B2062211460120FFF767
:10389000ECFD08BD10B5054C23460622114602205A
:1038A000FFF7C5FD207840B210BD00BFDC0D002041
:1038B00008B5C3B2062211460220FFF7D6FD08BDA7
:1038C00008B5002206216B20FFF7F5FD08BD0000BA
:1038D00008B5164B1860012207216B20FFF7EBFD9E
:1038E000642001F092F8FFF7EBFF0A2001F08DF859
:1038F0000123032202216B20FFF7B7FD03231A46A1
:1039000002211A20FFF7B1FD04211920FFF784FDE1
:103910000323022204211B20FFF7A7FD002302221C
:1039200004211C20FFF7A1FD08BD00BFD40D00201D
:1039300008B5012207216A20FFF7BDFD08BD08B5C3
:10394000002207216A20FFF7B6FD08BD70B5A6B0BA
:10395000012207216B20FFF7AEFD1E2001F055F874
:10396000FFF7AEFF002211461046FFF7C4FDFFF738
:1039700065FF0546FFF778FF0446FFF78BFF7F21C1
:103980002520FFF749FD002205216A20FFF793FD5E
:1039900068212520FFF740FD012211466A20FFF72C
:1039A0008AFD142001F031F80123019300930023D4
:1039B0001A4640F6F631D048FFF7F1FD012805D050
:1039C000CE4800F0C5FA012026B070BD0122C0210A
:1039D000CB48FFF787FE002800F088810A2001F01D
:1039E00014F803231A4602216B20FFF73EFD122133
:1039F0003820FFF711FD04211920FFF70DFD0123E9
:103A0000032205211A20FFF730FD03231A46022165
:103A10001A20FFF72AFD0323022204211B20FFF7AF
:103A200024FD03217020FFF7F7FC00217120FFF730
:103A3000F3FC002211461046FFF73DFD2846FFF734
:103A40000BFF2046FFF71EFF5A20FFF731FF002231
:103A500001211320FFF7AAFC002201211520FFF706
:103A6000A5FC002201211720FFF7A0FC002423461B
:103A70000BE0A14A224492F8B81C26AA1A4402F884
:103A8000901C0133DBB20134A4B2032BF1D99DF8B1
:103A90000A10CA1C9342ECDB9DF809309DF80820FF
:103AA00000250195012000900DF10B00FFF777FD37
:103AB0002B46032B40F2CC809DF80A10CA1C93427F
:103AC000C0F2C6809DF809309DF8082000200190C2
:103AD000012500950DF10B00FFF761FD2B462A46ED
:103AE00002216A20FFF7C1FC0A2000F08EFFFFF7D9
:103AF0007FFEC1B219B106AA7420FFF73DFC022176
:103B00001F20FFF789FC9C212120FFF785FC502115
:103B10002020FFF781FC00212220FFF77DFC0122FD
:103B200002216A20FFF7C7FC78212320FFF774FCED
:103B3000012206216A20FFF7BEFC0A2000F065FF83
:103B4000FFF7F6FE012203216A20FFF7B4FC0A20EA
:103B500000F05BFFFFF74CFEC6B2022EFAD900233D
:103B6000032B40F282809DF80A10CA1C93427CDB32
:103B70009DF809309DF8082000250195012000904E
:103B80000DF10B00FFF70BFD2B46032B7AD99DF8A7
:103B90000A10CA1C934275DB9DF809309DF8082075
:103BA00000250195012000900DF10B00FFF7F7FCB7
:103BB0002B46032B73D99DF80A10CA1C93426EDB67
:103BC0009DF809309DF808200025019501200090FE
:103BD0000DF10B00FFF7E3FC314606A8FFF716FED8
:103BE0002B46032B68D99DF80A10CA1C934263DB4D
:103BF0009DF809309DF808200DF10B00FFF78FFCB0
:103C0000FFF7F6FDC1B20229FAD906A8FFF7FEFDBB
:103C10000023032B5DD99DF80A10CA1C934258DB80
:103C20009DF809309DF80820002401940125009595
:103C30000DF10B00FFF7B3FCFFF781FE2A460221CE
:103C40006A20FFF738FC2F4800F082F92046BBE6D7
:103C5000294A224492F8B81C26AA1A4402F8901C59
:103C60000133DBB20134A4B223E7234A224492F8A1
:103C7000B81C26AA1A4402F8901C0133DBB20134A6
:103C8000A4B26DE71C4A224492F8B81C26AA1A4432
:103C900002F8901C0133DBB20134A4B275E7164A76
:103CA000224492F8B81C26AA1A4402F8901C013348
:103CB000DBB20134A4B27CE70F4A224492F8B81C6C
:103CC00026AA1A4402F8901C0133DBB20134A4B2D4
:103CD00087E7094A224492F8B81C26AA1A4402F837
:103CE000901C0133DBB20134A4B292E7064800F025
:103CF0002FF9022068E600BF0C01000838770008A1
:103D0000040D00081C77000824770008F8B50F465A
:103D100016461D460446002831D02078637803EB10
:103D2000002002F069FC0022164B02F0CFFCC7E92C
:103D300000012079637903EB002002F05DFC002292
:103D4000104B02F0C3FCC6E90001207A637A03EB52
:103D5000002002F051FC00220A4B02F0B7FCC5E93A
:103D60000001207B637B03EB002002F045FC002276
:103D7000044B02F0ABFC069BC3E90001F8BD024B0B
:103D80001C68CAE70000103FEC0D00202DE9F04F41
:103D900087B006460F4692469B461046194602F0EB
:103DA000DFFA80468946DDE9102302F08FFCCDE979
:103DB000000132463B463046394602F0D1FA04460D
:103DC0000D46DDE9122302F081FCCDE90201324605
:103DD0003B462046294602F079FC06460F465246ED
:103DE0005B464046494602F071FC02460B463046AF
:103DF000394602F0B5FA0022334B02F0AFFACDE9B2
:103E00000401DDE90223DDE9000102F0A7FADDE9A2
:103E1000042301F029FD169BC3E90001DDE912230B
:103E20004046494602F052FC80468946DDE91023AF
:103E30002046294602F04AFC02460B4640464946C7
:103E400002F08EFA01F0BEFC024601F10043159922
:103E5000C1E90023DDE910231046194602F080FA7B
:103E6000DDE9122302F032FC8046894652465B4669
:103E70002046294602F02AFC04460D46DDE91223BD
:103E80001046194602F06CFADDE9122302F01EFC1E
:103E900002460B463046394602F062FA00220A4BCF
:103EA00002F05CFA06460F4622462B46404649463B
:103EB00002F054FA32463B4601F0D6FC149BC3E9AB
:103EC000000107B0BDE8F08F0000F03F2DE9F041A0
:103ED00082B005460E4617469846FFF79DFC194CE2
:103EE0002070FFF785FC184B1880237813F0100F13
:103EF00007D1B0F5806F04D013F0020F0BD1002072
:103F000002E0FFF793FC002002B0BDE8F081FFF76C
:103F10006FFC0D4B18800C4B1B88292BF7D90B4CD1
:103F20002A212046FFF772FC074A13882A3B138098
:103F3000CDF800803B46324629462046FFF7E6FE94
:103F40000120E1E77200002070000020F00D002049
:103F500010B5044602F08CFF0146204600F042F8FE
:103F60000121024800F03EF810BD00BF4C77000868
:103F70002DE9F04385B00F46194B1B6813F0010F74
:103F80000BD00446435643BB042528462146ABBE0E
:103F90000446384605B0BDE8F0830846FAE714F950
:103FA000011B04AA1A4402F8101C0133AB42F6D3D9
:103FB00004AA1344002203F8102C4FF00408E94629
:103FC00040464946ABBE8046761B002EE1D03546C2
:103FD000102E28BF10250023E8E70E46F5E700BFA6
:103FE000F0ED00E008B5FFF7C3FF08BD84B00F4B4C
:103FF0009A6942F004029A619A6902F004020192FD
:10400000019A9A6942F008029A619A6902F00802DC
:104010000292029A9A6942F010029A619B6903F037
:1040200010030393039B04B0704700BF00100240CD
:1040300008B50B4C01224FF400512046FDF732FB2E
:104040004FF4FA7000F0E1FC00224FF400512046DA
:10405000FDF728FB4FF4FA7000F0D7FCE9E700BF4A
:104060000010014008B50268034B9A4200D008BD19
:10407000FCF7E8FEFBE700BF002C014008B5FFF7A6
:1040800067FFFEE708B50C480C4B03600C4B436020
:1040900000238360C3604FF4804202614361836107
:1040A000C3610362FDF746FD00B908BD4FF48A7194
:1040B0000448FFF7E3FF00BF340E00200054004027
:1040C000A08601006477000800B585B01248134B44
:1040D000036000238360C36043614FF46022C261C8
:1040E000436001230361FCF7A9FF60B9002301933A
:1040F00001220292039301A90748FCF7B1FE30B9EF
:1041000005B05DF804FBF6210548FFF7B7FF4FF453
:1041100080710348FFF7B2FF880E002000240140A1
:104120006477000808B50B480B4B03604FF4E1338C
:10413000436000238360C36003610C22426183619A
:10414000C361FEF7E9FF00B908BD40F2271103483B
:10415000FFF794FFB80E0020003801406477000894
:1041600000B595B002230A9301230E9310230F93F9
:10417000002311930AA8FEF741F830BB0F230593E3
:104180000021069107910891099105A8FEF704FB0B
:10419000F8B9022301930023039301A8FEF774FCEE
:1041A000D8B9FEF719FC0F4BA3FB00308009FDF7CF
:1041B000B7F80420FDF7CAF800220F214FF0FF30B6
:1041C000FDF752F815B05DF804FBC1210648FFF772
:1041D00055FFCF210448FFF751FFD6210248FFF7D2
:1041E0004DFF00BFD34D62106477000800B589B061
:1041F000FCF716FEFFF7B4FFFFF7F8FEFFF742FFEC
:10420000FFF762FFFFF78EFF03AC0E4D0FCD0FC41B
:104210002B682360002103A800F0DDFB0A4B186027
:104220000A4B1B68019303230093094B4FF48072E0
:104230000849094800F06CFF0848FFF789FE00F0C4
:10424000C5FBFEE750770008300E00207400002008
:10425000340E0020747700084D3200088077000883
:104260007047000000B583B0214B9A6942F001020B
:104270009A619B6903F001030193019B0320FCF702
:10428000D5FF002211466FF00B00FCF7EDFF002276
:1042900011466FF00A00FCF7E7FF002211466FF0AD
:1042A0000900FCF7E1FF002211466FF00400FCF763
:1042B000DBFF002211466FF00300FCF7D5FF002260
:1042C0000F216FF00100FCF7CFFF00220F214FF00C
:1042D000FF30FCF7C9FF074B5A6822F0E0625A60D2
:1042E0005A6842F000725A6003B05DF804FB00BFE8
:1042F000001002400000014002680E4B9A4200D0BC
:10430000704700B587B003F56C439A6942F40072B8
:104310009A619B6903F400730193019B012302934B
:104320000323039302A90448FDF72EF807B05DF8B4
:1043300004FB00BF002401400008014002680E4B4E
:104340009A4200D0704700B587B0C0230293122371
:1043500003930323059302A90848FDF715F8084BBA
:10436000DA6942F40012DA61DB6903F400130193A5
:10437000019B07B05DF804FB00540040000C0140B5
:10438000001002400268144B9A4200D0704710B5EA
:1043900086B003F558439A6942F480429A619B695A
:1043A00003F480430193019B4FF4007302930223B3
:1043B000039303230593094C02A92046FCF7E4FF6D
:1043C0004FF48063029300230393049302A92046D1
:1043D000FCF7DAFF06B010BD0038014000080140CC
:1043E00000B589B0002201461920FCF73DFF1920D5
:1043F000FCF780FF144B9A6942F400629A619B6952
:1044000003F400630193019B02A903A8FEF70AFBD2
:10441000FEF7F8FA0D4BA3FB00239B0C013B0C4865
:104420000C4A026040F2E732C2604360002303613D
:104430008360FEF70DFD18B1012009B05DF804FBA3
:104440000348FEF7E3FBF8E70010024083DE1B435E
:10445000F80E0020002C01407047FEE7FEE7FEE763
:10446000FEE7704708B500F0D9FA08BD08B5024864
:10447000FEF7F6FB08BD00BFF80E002008B50420CB
:10448000FDF72CF908BD08B52020FDF727F908BD78
:104490000F4B1A6842F001021A6059680D4A0A402F
:1044A0005A601A6822F0847222F480321A601A6804
:1044B00022F480221A605A6822F4FE025A604FF4F5
:1044C0001F029A60044B4FF000629A60704700BF71
:1044D000001002400000FFF800ED00E0124A12F068
:1044E000070F1ED0D11D21F00701C1F54063134411
:1044F0000A460E480260002141601344083B23F045
:1045000007030B48036059601960991A51601360E2
:10451000084B1960084B1960084B4FF000421A60B5
:1045200070474FF44063E4E77C000020880C0020D3
:1045300078000020840C0020800C00207C0C0020DF
:1045400010B4124B1A6882421AD359685C1884421C
:1045500003D1406801445960184641684418A2429A
:1045600012D10B4C2468A2420CD052681144416015
:104570001A6812680260984200D0186010BC704738
:104580001346DFE70460F6E70260F4E7880C0020DA
:104590007800002070B5044600F02AFE3A4B1B68F4
:1045A000BBB13A4B1B681C4263D1ACB1083414F068
:1045B000070F11D024F00704083404F007035BB19F
:1045C0004FF0500383F31188BFF36F8FBFF34F8F0A
:1045D000FEE7FFF783FFE4E7002C4CD02C4B1B6871
:1045E000A3424AD32B4B1D6801E02B4615466A684F
:1045F000A24202D22A68002AF7D1234A1268AA42AC
:104600003DD01E6808362A681A606B681B1B102B89
:1046100010D9281910F0070F08D04FF0500383F37A
:104620001188BFF36F8FBFF34F8FFEE743606C605D
:10463000FFF786FF6A6816490B689B1A0B601649DC
:1046400009688B4201D214490B60104B1B6813435D
:104650006B6000232B6000F05FFE16F0070F10D098
:104660004FF0500383F31188BFF36F8FBFF34F8F69
:10467000FEE70026EFE70026EDE70026EBE7002641
:10468000E9E7304670BD00BF780000207C0C0020B8
:10469000800C0020880C0020840C002080B338B5EA
:1046A0000446A0F1080550F8042C164909680A428E
:1046B00008D14FF0500383F31188BFF36F8FBFF31E
:1046C0004F8FFEE750F8080C40B14FF0500383F3D2
:1046D0001188BFF36F8FBFF34F8FFEE722EA01020D
:1046E00044F8042C00F084FD54F8041C064A1368B6
:1046F0000B4413602846FFF723FF00F00DFE38BD82
:10470000704700BF7C0C0020800C00200B4B1B6806
:10471000B3F1FF3F08D04FF0500383F31188BFF38C
:104720006F8FBFF34F8FFEE74FF0500383F3118875
:10473000BFF36F8FBFF34F8FFEE700BF0400002071
:1047400006480068006880F3088862B661B6BFF367
:104750004F8FBFF36F8F00DF00BF000008ED00E058
:104760004FF0807340F8043C21F0010140F8081C30
:10477000034B40F80C3C40F8202C4038704700BFF9
:104780000D470008000000000000000000000000CD
:10479000074B19680868B0E8F00F80F30988BFF389
:1047A0006F8F4FF0000080F311884EF00D0E7047B0
:1047B000980C00204FF0500383F31188BFF36F8FE4
:1047C000BFF34F8F0A4A136801331360012B00D0E7
:1047D0007047084B1B6813F0FF0FF9D04FF05003E0
:1047E00083F31188BFF36F8FBFF34F8FFEE700BFD6
:1047F0000400002004ED00E0094B1B6843B94FF0B2
:10480000500383F31188BFF36F8FBFF34F8FFEE721
:10481000013B034A13600BB983F31188704700BF53
:104820000400002000000000000000000000000064
:10483000EFF30980BFF36F8F0D4B1A6820E9F00F7B
:1048400010602DE908404FF0500080F3118800F00F
:1048500045FE4FF0000080F31188BDE8084019685C
:104860000868B0E8F00F80F30988BFF36F8F7047D6
:10487000980C002008B54FF0500383F31188BFF364
:104880006F8FBFF34F8F00F0BBFC18B1034B4FF09D
:1048900080521A60002383F3118808BD04ED00E004
:1048A000064B1B68064AA2FB03239B09013B054AF2
:1048B0001360054B07221A60704700BF00000020FC
:1048C000D34D621014E000E010E000E000B583B0CA
:1048D0001F4B1A78D2B20192FF221A701B78DBB2FA
:1048E0008DF803309DF8033003F05003194A13701C
:1048F000194B07221A6009E0174A1368013B13603D
:104900009DF803305B00DBB28DF803309DF8033077
:1049100013F0800FF0D1104A13681B0203F4E06318
:104920001360019BDBB20A4A13700C4B1A6842F405
:1049300070021A601A6842F070421A60FFF7B0FF06
:10494000074B00221A60FFF7FBFEFFF7DFFE00BFF8
:1049500000E400E0900C0020940C002020ED00E02A
:1049600004000020EFF305830F2B0FD9104A9B5C46
:10497000DBB2104A12789A4208D94FF0500383F301
:104980001188BFF36F8FBFF34F8FFEE70A4B1B6891
:1049900003F4E063094A1268934208D94FF05003C8
:1049A00083F31188BFF36F8FBFF34F8FFEE770471C
:1049B000F0E300E0900C00200CED00E0940C0020EF
:1049C000842801D0033070470020704708B500F0FC
:1049D000D1FB002008BDF0B585B00F4644680568DE
:1049E0000669B0F90800FFF7EBFF03AB01930090F5
:1049F0003B46B2B22946204600F08AFB012802D18C
:104A0000039805B0F0BD0020FBE708B5034600B9E8
:104A10000123184600F0FAFC002008BD08B500F09C
:104A200063FE012801D0FFF725FF08BD00F1080350
:104A300043604FF0FF328260C36003610023036074
:104A4000704700230361704743684B609A688A602F
:104A50009A68516099600861036801330360704788
:104A600030B40D68B5F1FF3F02D000F1080202E05A
:104A7000026904E01A4653681C68AC42FAD95368CC
:104A80004B6099608A60516008610368013303607C
:104A900030BC7047036942688168916082684168F0
:104AA00051605A68824205D00022026118680138BC
:104AB0001860704782685A60F6E710B50446FFF741
:104AC00079FEA36B23B10024FFF796FE204610BDAC
:104AD0000124F9E7026C72B110B5C3681344C360D6
:104AE0004468A34201D30368C3600C46C1682046F2
:104AF00002F0C1F810BD704738B50546FFF75AFE01
:104B000095F8454064B203E000F0E8FD013C64B272
:104B1000002C08DD6B6A33B105F1240000F042FD82
:104B20000028F3D0F0E7FF2385F84530FFF764FE57
:104B3000FFF740FE95F8444064B203E000F0CEFD7C
:104B4000013C64B2002C08DD2B6933B105F1100083
:104B500000F028FD0028F3D0F0E7FF2385F844306B
:104B6000FFF74AFE38BD000038B540B94FF050039A
:104B700083F31188BFF36F8FBFF34F8FFEE70446B7
:104B80000D46FFF717FE2168E26B236C03FB021052
:104B900060600020A063A160013A02FB0313E360A0
:104BA000FF2384F8443084F84530A5B923691BB944
:104BB000FFF722FE012038BD04F1100000F0F2FCE6
:104BC0000028F5D0084B4FF080521A60BFF34F8F8A
:104BD000BFF36F8FECE704F11000FFF727FF04F13C
:104BE0002400FFF723FFE3E704ED00E010B5029B8C
:104BF0000C4639B11A60D8631C6401211846FFF7CE
:104C0000B3FF10BD1B60F6E740B94FF0500383F3CC
:104C10001188BFF36F8FBFF34F8FFEE7F0B583B0FE
:104C2000054611B101FB00F000E0002017460C46DC
:104C30004830FFF7AFFC064638B100903B4600F124
:104C4000480221462846FFF7D1FF304603B0F0BDA9
:104C500060B170B50446036C8BB14FF0500383F321
:104C60001188BFF36F8FBFF34F8FFEE74FF05003F4
:104C700083F31188BFF36F8FBFF34F8FFEE7036895
:104C80002BB30E46FFF76EFEEFF311854FF0500386
:104C900083F31188BFF36F8FBFF34F8FA26BE36B6A
:104CA000934226D994F845305BB20132A263B3F146
:104CB000FF3F18D1636AF3B104F1240000F072FCE5
:104CC000D8B1E6B10120306085F3118870BD43682A
:104CD000002BD6D04FF0500383F31188BFF36F8FB2
:104CE000BFF34F8FFEE701335BB284F845300120FC
:104CF000EAE70020E8E70120E6E70120E4E70120F9
:104D0000E2E700002DE9F04184B0019260B1044671
:104D100099B9026C8AB14FF0500383F31188BFF345
:104D20006F8FBFF34F8FFEE74FF0500383F311886F
:104D3000BFF36F8FBFF34F8FFEE71F46884600F02B
:104D4000D3FC50B9019B53B14FF0500383F311884A
:104D5000BFF36F8FBFF34F8FFEE700265FE00026A3
:104D60005DE0E66841462046FFF7B4FEDFB9013D4D
:104D7000A563236813B900F017FD6060236963B170
:104D800004F1100000F00EFC38B1464B4FF0805299
:104D90001A60BFF34F8FBFF36F8FFFF72DFD012018
:104DA00004B0BDE8F081E660636A002BF5D004F141
:104DB000240000F0F7FB0028EFD03A4B4FF0805270
:104DC0001A60BFF34F8FBFF36F8FE6E7FFF714FD55
:104DD0000020E5E702A800F02BFC012629E00023D3
:104DE00084F8443031E0002384F8453033E0FFF7A5
:104DF000E1FC606800F088FCFFF7FEFC3BE0204629
:104E0000FFF77AFE00F088FA09E02046FFF774FE0B
:104E100000F082FA2046FFF750FE002840D1FFF74D
:104E2000C9FCA56B002D9CD1019B002BCED0002E80
:104E3000D0D0FFF7E1FC00F0DBF9FFF7BBFC94F802
:104E400044305BB2B3F1FF3FC9D094F845305BB258
:104E5000B3F1FF3FC7D0FFF7CFFC01A902A800F0D4
:104E6000FDFB0028D1D12046FFF727FE0028C6D041
:104E70002368002BBBD0019904F1240000F07AFBD9
:104E80002046FFF739FE00F047FA0028C7D1054B4E
:104E90004FF080521A60BFF34F8FBFF36F8FBEE7A2
:104EA00000207DE704ED00E0084B1B681B683BB168
:104EB000064B1B68DB68DB685A68054B1A60704755
:104EC000034B4FF0FF321A60704700BF9C0C00206C
:104ED000740D002010B50446006BFFF7DFFB204681
:104EE000FFF7DCFB10BD2DE9F04780469946089D91
:104EF000099F0A9C266B02F18042013A06EB82066A
:104F000026F0070600230F2B07D8C856E21882F8B0
:104F10003400CA560AB10133F5E7002384F8433060
:104F2000062D00D90625E56265644FF0000AC4F835
:104F300048A0201DFFF785FD04F11800FFF781FD53
:104F40002461C5F10705A5616462C4F84CA084F82A
:104F500050A04A4641463046FFF702FC206007B1A8
:104F60003C60BDE8F087000038B5002407E004EBA2
:104F7000840293000E481844FFF758FD0134062CB4
:104F8000F5D90C4D2846FFF751FD0B4C2046FFF795
:104F90004DFD0A48FFF74AFD0948FFF747FD09485C
:104FA000FFF744FD084B1D60084B1C6038BD00BF77
:104FB000A40C0020480D00205C0D00207C0D00207A
:104FC000A80D0020940D00209C0C0020A00C0020B7
:104FD00010B50446FFF7EEFB204A13680133136057
:104FE0001F4B1B685BB11F4B1B686BB91C4B1B68CD
:104FF000DA6AE36A9A4207D8194B1C6004E0184B3E
:105000001C601368012B26D0174A13680133136004
:10501000E36A01229A401549086802430A6003EBDB
:1050200083039A00211D12481044FFF70DFDFFF77E
:10503000E3FB0C4B1B686BB1094B1B68DA6AE36A34
:105040009A4207D20B4B4FF080521A60BFF34F8F3A
:10505000BFF36F8F10BDFFF787FFD5E7300D00203E
:10506000980C0020900D0020400D0020440D0020E1
:10507000A40C002004ED00E070B504460E461D4B64
:105080001D681D4B18680430FFF704FD50B91A4B1A
:105090001B68DA6A012303FA02F218490B6823EA53
:1050A00002030B60B4F1FF3F13D02C44124B1B687A
:1050B0005C60A54216D8124B18680F4B1968043172
:1050C000FFF7CEFC0F4B1B68A34212D90D4B1C609F
:1050D0000FE0002EE9D0084B196804310A48FFF7A9
:1050E000B3FC06E0094B1868034B19680431FFF75D
:1050F000B7FC70BDBC0D0020980C0020440D0020B2
:105100009C0C0020740D0020940D0020A00C0020A9
:105110002DE9F04385B0074688461546994690002C
:10512000FFF738FAF8B106465420FFF733FA044681
:10513000A8B10663D4B10023039302940D9B01939D
:105140000C9B00934B462A4641463846FFF7CBFE60
:105150002046FFF73DFF012005B0BDE8F083304653
:10516000FFF79CFAE6E74FF0FF30F5E74FF0FF302E
:10517000F2E7000000B583B0174B019300230093C2
:10518000802216491648FFF7C3FF012805D0B0F169
:10519000FF3F17D003B05DF804FB4FF0500383F3DB
:1051A0001188BFF36F8FBFF34F8F0E4B4FF0FF325D
:1051B0001A600D4B01221A600C4B00221A60FFF797
:1051C00085FBE7E74FF0500383F31188BFF36F8F40
:1051D000BFF34F8FFEE700BF700D0020AC770008D3
:1051E000B5540008740D0020900D0020BC0D002067
:1051F000024A136801331360704700BF3C0D002062
:10520000F8B53A4B1B68002B64D1394B1D6801354A
:105210001D60C5B9374B1B681B6843B14FF0500385
:1052200083F31188BFF36F8FBFF34F8FFEE7314ACF
:105230001168314B186810601960304A13680133E7
:105240001360FFF731FE2E4B1B68AB4238D90024A8
:105250002C4B1B68DB6A03EB83039A002A4B9B5899
:10526000012B3CD901243AE00124224B1B681B6826
:1052700043B3204B1B68DB68DE6873689D4226D30E
:10528000371D3846FFF706FCB36A1BB106F118005C
:10529000FFF700FCF36A01229A401C4908680243A8
:1052A0000A6003EB83039A00394617481044FFF75E
:1052B000CBFBF26A134B1B68DB6A9A42D4D2D4E769
:1052C0000024D2E70E4B4FF0FF321A60C0E70C4AC1
:1052D0001360BDE70E4A13680133136000240D4BC1
:1052E0001B6803B101242046F8BD00BF3C0D00201F
:1052F000BC0D00209C0C0020A00C0020780D00208C
:10530000740D0020980C0020A40C0020440D0020F7
:10531000380D0020C00D002038B5334B1B6843B951
:105320004FF0500383F31188BFF36F8FBFF34F8F9C
:10533000FEE7FFF73FFA2C4B1A68013A1A601B6828
:10534000002B4DD1294B1B6823B90024FFF754FAD9
:10535000204638BD0024264B1B681BB3244BDB685A
:10536000DC6804F11800FFF795FB251D2846FFF7C0
:1053700091FBE36A01229A401E49086802430A60D1
:1053800003EB83039A0029461B481044FFF75CFB9C
:10539000E26A1A4B1B68DB6A9A42DCD3184B012283
:1053A0001A60D8E70CB1FFF77FFD164B1C6854B1AB
:1053B000FFF726FF10B1124B01221A60013CF7D112
:1053C000104B00221A600E4B1B685BB10E4B4FF066
:1053D00080521A60BFF34F8FBFF36F8F0124B5E780
:1053E0000024B3E70024B1E73C0D0020300D00207D
:1053F0007C0D0020440D0020A40C0020980C0020FF
:10540000C00D0020380D002004ED00E010B5A8B15B
:1054100004460F4B1B6843B14FF0500383F31188D0
:10542000BFF36F8FBFF34F8FFEE7FFF7E1FE002161
:105430002046FFF721FEFFF76FFF38B9054B4FF00D
:1054400080521A60BFF34F8FBFF36F8F10BD00BF44
:105450003C0D002004ED00E0134B1B6813B310B5A6
:10546000FFF7C6FE114B1C68FFF756FF24B90E4B21
:105470001B68002BF4D110BDFFF79CF90B4BDB68C8
:10548000DC68201DFFF706FB094A1368013B136027
:10549000054A1368013B1360FFF7AEF92046FFF79A
:1054A00019FDE4E7704700BF340D0020A80D00206F
:1054B000300D002008B5FFF7CFFF064B1B68012B0E
:1054C000F9D9054B4FF080521A60BFF34F8FBFF3ED
:1054D0006F8FF0E7A40C002004ED00E0204B1B6868
:1054E0001BB1204B01221A6070471E4B00221A602C
:1054F0001D4B1B68B3FA83F3DBB2C3F11F0303EB4D
:1055000083018A0019498A5842B94FF0500383F346
:105510001188BFF36F8FBFF34F8FFEE710B41348AE
:105520009A00D418A10001444C6864684C601A4485
:1055300091000831084484420AD003EB83039A00A7
:105540000A4B13445B68DA68094B1A6010BC704759
:1055500061680648142202FB03025160EDE700BFB8
:105560003C0D0020C00D0020440D0020A40C0020A4
:10557000980C002040B94FF0500383F31188BFF31B
:105580006F8FBFF34F8FFEE710B50C46044B1968C1
:105590001831FFF765FA01212046FFF76DFD10BDB8
:1055A000980C002038B5C368DC6844B94FF050034C
:1055B00083F31188BFF36F8FBFF34F8FFEE704F1C2
:1055C00018052846FFF766FA134B1B68E3B9251D3B
:1055D0002846FFF75FFAE36A01229A400F490868FC
:1055E00002430A6003EB83039A0029460C481044E7
:1055F000FFF72AFAE26A0B4B1B68DB6A9A4208D96A
:105600000120094B186038BD29460848FFF71CFAED
:10561000F0E70020F7E700BF3C0D0020440D00201C
:10562000A40C0020980C0020C00D00207C0D002050
:1056300030B1084A12680260074A12684260704737
:105640004FF0500383F31188BFF36F8FBFF34F8F79
:10565000FEE700BF780D0020BC0D002038B550B12A
:10566000044689B94FF0500383F31188BFF36F8F5D
:10567000BFF34F8FFEE74FF0500383F31188BFF362
:105680006F8FBFF34F8FFEE70D46FFF793F8114B77
:1056900019682B68B3F1FF3F18D020680E4A1268D2
:1056A000904202D062688A4212D96268881A8342A4
:1056B00004D80124FFF7A0F8204638BD521A13443D
:1056C0002B602046FFF7B4FF0024F3E70024F1E746
:1056D0000124EFE7BC0D0020780D0020014B0122D2
:1056E0001A607047C00D0020054B1B6833B1054B95
:1056F0001B680BB1002070470220704701207047E3
:10570000900D00203C0D0020002845D038B50446FF
:10571000C26A22490968C96A8A4214D28169002989
:1057200005DB1E490968C96AC1F107018161606929
:1057300002EB820291001A4A0A44904204D0174AAE
:105740001268D26AE26238BD251D2846FFF7A2F929
:1057500090B1124B1B68DB6AE36201229A40114947
:10576000086802430A6003EB83039A0029460C4849
:105770001044FFF769F9E6E7E36A03EB83018A0067
:1057800007498A58002AE4D101229A4005490B684A
:1057900023EA02030B60DCE7704700BF980C00208F
:1057A000A40C0020440D0020054B1B6823B1044BC2
:1057B0001A68936C01339364014B1868704700BFFB
:1057C000980C00202DE9F0438BB004460D4600F004
:1057D0004FF8DFF89080064698F900300F46013305
:1057E0002BD022462B462046294601F009FA814655
:1057F00018BB2046294600F0A1FD0022164B01F0FF
:10580000F5F9D0B10122154B1548CDE90023CDF8AB
:105810002090CDE90445CDE9024500F095FD98F9C9
:105820000030CDE90601022B0CD0684600F08AFD5D
:1058300040B1089B5BB9DDE90667304639460BB0DD
:10584000BDE8F08301F0F2F921230360F1E701F0F4
:10585000EDF9089B0360EEE70000F03FB477000825
:10586000B07700080800002000F03EBA00000000F9
:105870002DE9F04FB24B21F000479F4287B00D4613
:10588000044615DD034607F1404707F580173B4303
:1058900026D002460B4600F061FD0B46024601F0A1
:1058A0003FF804460B462046194607B0BDE8F08F86
:1058B000A44B0E469F422EDCB7F1795F80F24A81FD
:1058C00083A3D3E9002300F04BFD00229E4B01F09F
:1058D0008DF900B32B462046194607B0BDE8F08F7E
:1058E0007DA3D3E9002300F0F1FE7DA3D3E90023DB
:1058F00006460F462046294600F0E8FE02460B46C3
:105900003046394600F02CFD04460B462046194629
:1059100007B0BDE8F08F2046294600F00FFD024693
:105920000B460020884900F019FD0022874B00F04B
:10593000CDFE6DA3D3E9002304460D4600F0C6FE5C
:105940006BA3D3E9002300F00BFD22462B4600F0A9
:10595000BDFE69A3D3E9002300F000FD22462B46DB
:1059600000F0B4FE66A3D3E9002300F0F9FC224660
:105970002B4600F0ABFE64A3D3E9002300F0EEFC5D
:1059800022462B4600F0A2FE61A3D3E9002300F0DB
:10599000E7FC22462B4600F099FE5FA3D3E90023E3
:1059A000CDE900012046294600F090FE5CA3D3E932
:1059B000002300F0D3FC22462B4600F087FE5AA3BA
:1059C000D3E9002300F0CCFC22462B4600F07EFEFB
:1059D00057A3D3E9002300F0C1FC22462B4600F078
:1059E00075FE594B002200F0BBFC82468B462046D8
:1059F0002946CDE902AB00F051FA554B80469F4253
:105A0000894600F31C8102460B4600F0A9FCDDE943
:105A10000223CDE90401DDE9000100F081FF024627
:105A20000B46DDE9040100F051FE4FF0000ACDE91C
:105A3000000152464B465046494600F047FE02469A
:105A40000B462046294600F089FC524604460D4686
:105A50004B464046494600F083FC02460B46204632
:105A6000294600F05DFF02460B4600F079FC024635
:105A70000B461BA1D1E9000100F070FC02460B4669
:105A8000DDE9000100F06AFC524604460D464B4633
:105A90005046494600F064FC02460B4626A1D1E977
:105AA000000100F05BFC02460B462046294600F050
:105AB00055FC0B46024620A1D1E9000100F04EFC46
:105AC00004460B46002E3FF7EEAE03F10043EAE634
:105AD0009C7500883CE4377E182D4454FB21F93F27
