:020000040800F2
:1000000000500020C5010008C9010008CB0100080C
:10001000E1010008E3010008F90100080000000008
:100020000000000000000000000000000F020008B7
:100030001102000800000000130200081502000869
:1000400029020008290200082902000829020008E4
:1000500029020008290200082902000829020008D4
:1000600029020008290200082902000829020008C4
:1000700029020008290200082902000829020008B4
:1000800029020008290200082902000829020008A4
:100090002902000829020008290200082902000894
:1000A0002902000829020008290200082902000884
:1000B0002902000829020008290200082902000874
:1000C0002902000829020008290200082902000864
:1000D0002902000829020008290200082902000854
:1000E0002902000829020008290200080000000077
:1000F0000000000000000000000000000000000000
:1001000000000000000000005FF808F107B500F0F3
:10011000B1F8214A214B22498B4226D30021214BA1
:10012000214A934226D300F0B1F801A9684600F0B5
:1001300099F800251D4E1E4CA41BA410AC421CDCDB
:1001400000251C4E1C4CA41BA410AC421ADCDDE99B
:10015000000100F05DF90646184D194C641BA4100F
:10016000002C14DC304600F07AF852F8040F43F803
:10017000040BD1E743F8041BD3E756F82530984722
:100180000135DBE756F8253098470135DDE7013CBE
:1001900055F824309847E3E72004000800000020C9
:1001A0001C0000201C000020200000205402000839
:1001B00054020008540200085402000854020008C7
:1001C0005402000814480047FEE71EF0040F0CBF5D
:1001D000EFF30880EFF309807146104A1047FEE7FD
:1001E000FEE71EF0040F0CBFEFF30880EFF3098069
:1001F00071460B4A1047FEE71EF0040F0CBFEFF3E9
:100200000880EFF309807146064A1047FEE7FEE7D3
:10021000FEE7FEE7704700000D010008DF0100085F
:0A022000F70100080D020008FEE7D8
:10022C0024040008000000201C0000202404000806
:10023C0000000000000000001C0000202000002036
:08024C000000000000000000AA
:100254000AB1016170474161704708B500F016F8B2
:1002640001230360014B0B60704700BF00000020B6
:1002740008B500F01DF8024A024B9A6008BD00BFA1
:100284000000000800ED00E000F08AB8BFF34F8FD3
:100294000549064BCA6802F4E0621343CB60BFF31E
:1002A4004F8F00BFFDE700BF00ED00E00400FA053A
:1002B400374B82B01A6842F001021A605968354A15
:1002C4000A405A601A6822F0847222F480321A605A
:1002D4001A6822F480221A605A6822F4FE025A60D4
:1002E4004FF41F029A600022009201921A6842F4AD
:1002F40080321A601A6802F400320192009A0132C4
:100304000092019A1AB9009AB2F5A06FF2D11A6854
:1003140012F4003218BF01220192019A012A30D14D
:100324001D4A116841F010011160116821F00301A8
:100334001160116841F0020111605A685A605A68EC
:100344005A605A6842F480625A605A6822F47C12F5
:100354005A605A6842F4E8125A601A6842F080728D
:100364001A601A689201FCD55A6822F003025A6096
:100374005A6842F002025A605A6802F00C02082AD3
:10038400FAD14FF00062054B9A6002B0704700BF8B
:10039400001002400000FFF80020024000ED00E0E1
:1003A400134A144B516801F00C0104290CD008299C
:1003B4000CD01149196052681049C2F30312895CC8
:1003C4001A68CA401A6070470D49F3E751685068CB
:1003D400C1F38341C00301F1020102D4094841433E
:1003E400E8E7506880034CBF07480548F7E700BFBB
:1003F400001002401800002000127A0008000020BB
:1004040000A24A0400093D000051250208B5034C2E
:10041400012220212046FFF71BFFF9E700080140D5
:100424001C0000200000000000000000000000008C
:0C043400010203040607080900A24A04A4
:040000050800010DE1
:00000001FF
